:020000040800F2
:10000000002000205D630008A5530008AB530008E2
:1000100000000000000000000000000000000000E0
:10002000000000000000000000000000B1530008C4
:100030000000000000000000BB530008C55300088A
:10004000AD630008AD630008D5530008AD63000838
:10005000AD630008ED530008AD630008FD530008D0
:10006000000000001154000829540008AD63000886
:10007000AD6300084154000800000000AD630008B3
:1000800000000000AD630008000000000000000058
:10009000AD63000800000000AD630008AD63000818
:1000A000AD630008AD630008AD6300085954000853
:1000B000AD630008AD630008000000000000000010
:1000C00010B5064C2378002B07D1054B002B02D02E
:1000D000044800E000BF0123237010BD040200208B
:1000E0000000000094E30008044B10B5002B03D07F
:1000F0000349044800E000BF10BDC04600000000F6
:100100000802002094E300080023C25C0133002AA7
:10011000FBD1581E7047000002B4714649084900DF
:10012000095C49008E4402BC7047C04603B4714666
:10013000490840004900095E49008E4403BC7047ED
:10014000002243088B4274D303098B425FD3030A16
:100150008B4244D3030B8B4228D3030C8B420DD329
:10016000FF22090212BA030C8B4202D312120902B7
:1001700065D0030B8B4219D300E0090AC30B8B42F5
:1001800001D3CB03C01A5241830B8B4201D38B03A3
:10019000C01A5241430B8B4201D34B03C01A524148
:1001A000030B8B4201D30B03C01A5241C30A8B428B
:1001B00001D3CB02C01A5241830A8B4201D38B0276
:1001C000C01A5241430A8B4201D34B02C01A52411A
:1001D000030A8B4201D30B02C01A5241CDD2C3098C
:1001E0008B4201D3CB01C01A524183098B4201D308
:1001F0008B01C01A524143098B4201D34B01C01AF3
:10020000524103098B4201D30B01C01A5241C3086A
:100210008B4201D3CB00C01A524183088B4201D3D9
:100220008B00C01A524143088B4201D34B00C01AC5
:100230005241411A00D20146524110467047FFE731
:1002400001B5002000F0F0F802BDC0460029F7D04B
:1002500076E7704703460B437FD4002243088B4266
:1002600074D303098B425FD3030A8B4244D3030B3D
:100270008B4228D3030C8B420DD3FF22090212BA02
:10028000030C8B4202D31212090265D0030B8B427E
:1002900019D300E0090AC30B8B4201D3CB03C01A68
:1002A0005241830B8B4201D38B03C01A5241430B43
:1002B0008B4201D34B03C01A5241030B8B4201D333
:1002C0000B03C01A5241C30A8B4201D3CB02C01A9E
:1002D0005241830A8B4201D38B02C01A5241430A16
:1002E0008B4201D34B02C01A5241030A8B4201D305
:1002F0000B02C01A5241CDD2C3098B4201D3CB01AC
:10030000C01A524183098B4201D38B01C01A52415A
:1003100043098B4201D34B01C01A524103098B425E
:1003200001D30B01C01A5241C3088B4201D3CB0049
:10033000C01A524183088B4201D38B00C01A52412C
:1003400043088B4201D34B00C01A5241411A00D2DC
:1003500001465241104670475DE0CA0F00D0494245
:10036000031000D34042534000229C4603098B42B5
:100370002DD3030A8B4212D3FC22890112BA030A3D
:100380008B420CD3890192118B4208D389019211BF
:100390008B4204D389013AD0921100E08909C30944
:1003A0008B4201D3CB01C01A524183098B4201D346
:1003B0008B01C01A524143098B4201D34B01C01A31
:1003C000524103098B4201D30B01C01A5241C308A9
:1003D0008B4201D3CB00C01A524183088B4201D318
:1003E0008B00C01A5241D9D243088B4201D34B0033
:1003F000C01A5241411A00D20146634652415B1075
:10040000104601D34042002B00D549427047634655
:100410005B1000D3404201B5002000F005F802BD9A
:100420000029F8D016E770477047C0468446101C74
:1004300062468C46191C634600E0C0461FB501F0B9
:100440003DFF002801D40021C8421FBD10B501F0B6
:1004500087FE4042013010BD10B501F02FFF00288B
:1004600001DB002010BD012010BDC04610B501F019
:1004700025FF002801DD002010BD012010BDC04671
:1004800010B501F0A9FE002801DC002010BD0120FC
:1004900010BDC04610B501F09FFE002801DA002013
:1004A00010BD012010BDC0468446081C6146FFE710
:1004B0001FB500F07BFC002801D40021C8421FBDFD
:1004C00010B500F0FFFB4042013010BD10B500F048
:1004D0006DFC002801DB002010BD012010BDC046CE
:1004E00010B500F063FC002801DD002010BD0120E4
:1004F00010BDC04610B500F00DFC002801DC002046
:1005000010BD012010BDC04610B500F003FC00284E
:1005100001DA002010BD012010BDC046002B11D112
:10052000002A0FD1002900D1002802D00021C943A0
:10053000081C07B4024802A14018029003BDC0463F
:10054000E9FEFFFF03B4684601B5029800F046F8E3
:10055000019B9E4602B00CBC7047C046F0B5150426
:100560002D0C0F0001002E00C64684460004140C1A
:10057000000C090C46434D43604361434019340C61
:10058000241800B5A54203D980204002804641448A
:10059000250C6D18614659437A43300449192404E7
:1005A000000C2018891880BCB846F0BD9E2110B5FB
:1005B000C905041CFFF7A8FF002803D1201C00F088
:1005C00021FF10BD9E21201CC90500F053FD00F045
:1005D00019FF80231B069C466044F2E7F0B557469E
:1005E0004E464546DE46E0B504000D00924699466B
:1005F00083B08B4230D82DD04946504602F064FE7D
:1006000029000600200002F05FFE331A9846203BC6
:100610009B4633D45A465346934042461F005346A6
:1006200093401E00AF423AD8AF4200D178E05B461B
:10063000A41BBD41002B00DA75E0002200230092CC
:10064000019301235A46934001930123424693406C
:10065000009328E08242CFD9002200230092019328
:100660000C9B002B01D01C605D600098019903B0C9
:10067000F0BCBB46B246A946A046F0BD4246202388
:100680009B1A5246DA40414613004A468A401700F8
:1006900042461F43534693401E00AF42C4D9002236
:1006A0000023009201934346002BD9D0FB07720828
:1006B0001A4346467B080EE0AB4201D1A2420CD859
:1006C000A41A9D41012024196D410021013E2418E6
:1006D0004D41002E06D0AB42EED9013E24196D41AA
:1006E000002EF8D1009801995B4600196941002B52
:1006F00024DB2B005A464446D3402A00E2401C002B
:100700005B461500002B2ADB26009E4033002600A6
:100710004746BE403200801A9941009001919FE700
:10072000A342BCD883E74246202300219B1A002223
:10073000009101920122DA40019286E7424620238D
:100740009B1A2A0046469A402300F340444613432E
:100750002A00E2401C005B461500002BD4DA42461A
:100760002F002023260097409B1ADE403B00334396
:10077000CDE7C046F0B54646D6464F464D0242024A
:10078000C0B5520A6E0A4700B0463F0E4E00C40F75
:10079000D00094463B008246360EC90FAD098C420C
:1007A0006DD0B81B814600284DDD002E00D188E0B9
:1007B000FF2F5AD08023DB041D434B4601221B2B05
:1007C0000ADC2B004A464946D3402022521A954063
:1007D0002A00551EAA411A4353469A1A530100D4BF
:1007E000B9E092019609300002F050FD05388640CC
:1007F000874200DDD4E03300C71B20200137FB40D7
:10080000C71BBE403200561EB24100271A43530791
:1008100004D00F231340042B00D00432530100D422
:100820009CE07B1CFE2F00D19AE09201520A944674
:10083000DBB2D8056346E40718432043E0BCBA4660
:10084000B146A846F0BD002849D0F31B002F00D0C8
:10085000B6E05246002A60D0013B002B00D1FCE0FC
:10086000FF2E00D0B4E00C004246002A78D0802051
:10087000C00310434202530A9C46FF23D9E7B91B29
:10088000002971DD002E3FD0FF2FEED08023DB0446
:100890001D4301221B2907DC2A002023CA40591AC4
:1008A0008D406B1E9D412A435244530153D501375D
:1008B000FF2F55D001237B49134052080A401A43A9
:1008C000A5E7002D2CD001235B429C46E1444B461A
:1008D000002B00D1ADE0FF2F00D06EE7C5E7FE2072
:1008E0007E1C304260D1002F00D093E05246002A97
:1008F00000D1B6E0002D9CD0521B500100D4C3E0C3
:1009000053460C00EA1A82E7002D09D0013900296C
:1009100000D18BE0FF2FBCD1A7E70C004246370087
:10092000FF2FA2D05202530A9C46FBB281E7FE2160
:100930000137394265D1002B7ED1002800D1AAE0D1
:10094000002D00D175E72A0052440027530102D53B
:10095000554B01371A40530700D05AE7D208DFE75A
:100960000022FF23944664E70029E0D0F31B002F08
:100970003ED0FF2E00D177E780220100D204114340
:100980008A4601221B2B08DC524620215046DA40C1
:10099000CB1A9840431E984102433700521984E70E
:1009A000414A3F1A324032E753465E1B73012DD451
:1009B000002E00D017E7002200240023944638E7D9
:1009C000FF2E00D14FE780225046D20410438246CA
:1009D00001221B2B08DC524620245046DA40E31A41
:1009E0009840431E984102430C003700AA1AF5E6CE
:1009F000002893D0013B002B4FD0FF2EC1D142469F
:100A000033E7FF2FACD055446A08A4E753460C00E7
:100A1000EE1AE8E65346002B28D1002D00D022E73D
:100A20008023DB039C460024FF2302E72A00524474
:100A30003BE753465A1BD1E6002800D114E7002DAE
:100A400000D112E78023DB031A4200D10DE74146B3
:100A5000194200D009E7424607E70C003700AA1AFE
:100A6000BCE6002D13D00C00C446E2E6002D00D1F8
:100A7000FBE68023DB031A4200D1F6E6404618422B
:100A800000D0F2E60C00EFE6002A00D063E7002277
:100A900000249446CDE6C446CBE62A0037005244F3
:100AA00003E7C046FFFFFF7DFFFFFFFBF0B54F46AA
:100AB0004646D6464502C0B547000C1C6D0A3F0E9F
:100AC000C60F002F66D0FF2F6CD00023EA008025D0
:100AD00099469A46ED0415437F3F60026100430A40
:100AE0009846090EE40F002948D0FF2910D0802233
:100AF000D800D2040243904600207F394A46330092
:100B00007F1A02436C4992008A586340DBB29746D1
:100B1000002B6DD10220FF3F33E0002398462600D2
:100B2000454682465346022B00D17FE0032B00D17D
:100B300094E0012B17D038007F3000285FDD6B0771
:100B400004D00F232B40042B00D004352B0103D5F8
:100B500038005A4B80301D40FE2867DCAD016D0A1D
:100B6000C0B202E01E0000200025C0052843F607A1
:100B70003043E0BCBA46B146A846F0BD002B2BD1AD
:100B800001204A4633004E49024392008A5863408E
:100B9000DBB29746002D13D104239946033B00276F
:100BA0009A469AE7002D05D108239946063BFF2770
:100BB0009A4692E70C239946093BFF279A468CE711
:100BC000280002F063FB7627431F9D4000237F42ED
:100BD00099469A463F1A80E7180002F057FB4246B2
:100BE000431F76219A404942091A9046002085E722
:100BF000FF21032082E71E00FF200025B5E7012327
:100C00001B1A1B2BAFDC9E372900BD40D9406A1E42
:100C100095410D436B0704D00F232B40042B00D0CC
:100C200004356B0144D5012000259EE7FF200025F7
:100C30009BE780250026FF20ED0396E700239846DA
:100C40008020C003054209D04346034206D14546F1
:100C500005436D022600FF206D0A86E78020C00351
:100C600005436D02FF206D0A7FE741466A01480196
:100C7000824219D21B210025013F012614006D007C
:100C80005200002C01DB904201D8121A3543013981
:100C90000029F3D1501E824138007F301E001543D9
:100CA000002800DD4BE7AAE71A210125121AE4E724
:100CB000AD0100206D0A58E708E80008FFFFFFF7C4
:100CC00048E8000870B542004E024C0045026D0A2B
:100CD000120EC30F760A240EC90FFF2A0FD0FF2C65
:100CE00011D00120A24200D070BDB542FCD18B4290
:100CF0000DD0002AF8D12800451EA841F4E70120B4
:100D0000002DF1D1EBE70120002EEDD1E9E7002025
:100D1000EAE7C046F0B5420046024D024C00C30F60
:100D2000760A120E6D0A240EC80FFF2A1FD0FF2C60
:100D300010D0002A1FD171427141002C01D1002D29
:100D40001ED000290ED183421ED00221581E084019
:100D50000138F0BD002D26D1002AF4D17142714135
:100D60000029F0D00028F4D101204042F1E7002E04
:100D700019D1FF2CEED0002CE5D1002DE3D1E4E712
:100D80000020002EE5D0E0E7A24205DCEADBAE421F
:100D900002D8E7D30020DCE741424141484202212A
:100DA00008400138D5E702204042D2E7F0B54200C2
:100DB00046024D024C00C30F760A120E6D0A240E35
:100DC000C80FFF2A0DD0FF2C0FD0002A23D171426B
:100DD0007141002C0FD1002D0DD10020002E14D018
:100DE0000DE0002E10D1FF2C15D1002D0CD1002AC2
:100DF00003D171427141002908D1834210D00221F0
:100E0000581E0840013800E00220F0BD0028FCD147
:100E100001204042F9E7002CEFD1002DEDD1EEE7A3
:100E2000A24205DCF2DBAE4202D8EFD30020ECE7B1
:100E3000414241414842022108400138E5E7C046AD
:100E4000F8B557464E464546DE464402E0B54500F5
:100E50000F1C640A2D0EC60F002D47D0FF2D4DD05C
:100E6000002380209A469B46E400C00404437F3D53
:100E70007802430A99467A00FB0F9846120E4B46B9
:100E800044D0FF2A11D0D8008023DB0403439946C5
:100E900000207F3AAD18474653467740691C0F2B18
:100EA0003FD8724A9B00D3589F46FF35002B00D095
:100EB00079E0524602231A4392460220EBE7474666
:100EC0004C4683465B46022B28D0032B00D1C6E05C
:100ED000012B4FD100200024C005FF0720433843D9
:100EE000F0BCBB46B246A946A046F8BD002C71D165
:100EF00004239A46033B00259B46B9E7002C63D1A7
:100F000008239A46063BFF259B46B1E7002B50D1AC
:100F1000524601331A4392460120BCE7FF200024C9
:100F2000DAE74846260C2404220C0404240C4B4621
:100F300020001B0C504374435A435E431219030CA8
:100F40009B189C4203D980225202944666440004B6
:100F50001A04000C12189401601E84411B0C920E9E
:100F60009B1914439B011C431B0172D5012063088C
:100F700004401C4308007F3000283CDD630704D098
:100F80000F232340042B00D00434230103D58031E8
:100F90000800374B1C40FE28C0DCA401640AC0B224
:100FA0009AE737008EE7524603231A4392460320FE
:100FB00071E7484602F06AF94A46431F9A402D1AE3
:100FC00091460020763D66E70C239A46093BFF25B3
:100FD0009B464DE7200002F059F97625431F9C40BF
:100FE00000236D429A469B462D1A41E78024002734
:100FF000FF20E40370E701231B1A1B2B00DD69E7C8
:101000009E3120008C40D840631E9C4104436307FE
:1010100004D00F232340042B00D0043463011AD5DD
:101020000120002458E78020C003044209D04B4629
:10103000034206D14C46044364024746FF20640A3B
:101040004AE78020C003044364023700FF20640A9B
:1010500042E729008EE7A4010020640A3CE78020D3
:10106000C00304436402FF20640A35E788E80008EF
:10107000FFFFFFF7F0B54646D6464F4643025B0AF0
:10108000DA0094464A02C0B54400560A051CB04630
:10109000240E4E0092091F0020009246ED0F360EDE
:1010A000C90FFF2E00D17FE0012251408D4251D067
:1010B000A21B9146002A00DC7EE0002E00D199E0C0
:1010C000FF2C00D18CE080235246DB041A43924669
:1010D0004A4601231B2A08DC53462021D340891AA3
:1010E00052468A40511E8A4113436246D31A5A011E
:1010F00000D4F3E09B019E09300002F0C7F80538E8
:101100008640844200DDF7E03200041B20200134D9
:10111000E240041BA64033005E1EB341002413438B
:101120005A0704D00F221A40042A00D004335A016F
:1011300000D4D6E0621CFE2C00D1DAE09B015F0AED
:10114000D0B2C0053843ED072843E0BCBA46B146EB
:10115000A846F0BDA21B9146002A63DD002E00D1F7
:1011600099E0FF2C3CD080235246DB041A43924680
:101170004A4601231B2A08DC53462021D340891A02
:1011800052468A40511E8A41134363445A0100D497
:10119000A4E00134FF2C00D1ABE0012297491A40B2
:1011A0005B080B401343BBE7002A32D08D4235D099
:1011B000FF2252429146A1444A46002A51D0301B98
:1011C000002C00D09CE06346002B00D1DFE001380A
:1011D000002800D1F7E0FF2E00D099E00D00434633
:1011E000002B00D185E08027FF031F437F02FF20F3
:1011F0007F0AA6E75246002A74D001225242904646
:10120000C1444A46002A00D1C8E0FF2C00D05FE765
:10121000E6E701225140A94200D049E7FF225242AD
:101220009146A1444A46002A43D0311B002C00D1EC
:101230008CE0FF2E00D192E080236246DB041A434B
:10124000944601231B2909DC202063466246CB40DB
:10125000411A8A401100481E81410B433400534417
:1012600094E7FE22661C324264D1002C00D082E05A
:101270006346002B00D1ABE05346002B00D160E762
:10128000634652469B1A5A0100D4AAE0634652466E
:101290000D00D31A44E75246002A23D001225242BD
:1012A0009046C1444A46002A75D0FF2C00D05FE723
:1012B00096E7FE260134264253D1002872D16346B8
:1012C000002B00D193E05346002B00D139E7634453
:1012D00000245A0102D54A4A013413405A0700D06B
:1012E00020E7DB08FF2C00D17AE75B025F0AE0B25F
:1012F00027E7FF20002724E7414B241A33400FE75C
:10130000FF2E00D16AE780236246DB041A4394462D
:1013100001231B2809DC202463466246C340201AAF
:1013200082401000441EA041034352460D00340089
:10133000D31ADCE6634652469E1A730117D4002E78
:1013400000D0D9E6002500200027FAE66346002BEE
:1013500044D0013900294CD0FF2E00D071E743461C
:101360003EE7FF2CC5D0524662445308B6E76346B9
:101370000D00D61AC0E66246002A16D15346002B4D
:1013800000D02BE780270025FF20FF03D9E60D00C2
:1013900043463400A6E753466344F7E663465246A5
:1013A0009B1AA4E66246002AD9D05246002A00D1F0
:1013B00016E78022D203134200D111E740461042C3
:1013C00000D00DE70AE752460D003400D31A8EE62E
:1013D0005346002B08D00D004746B2E64346340082
:1013E00080E7002B00D079E700250027A9E64746D3
:1013F000A7E6534634006344C8E6C046FFFFFF7DBE
:10140000FFFFFFFB41024200C30F490A0020120EFA
:101410007E2A03D99D2A02D9094A9818704780204C
:1014200000040143952A07DC9620821AD1404842E5
:10143000002BF3D10800F1E7963A9140F7E7C04658
:10144000FFFFFF7F70B5051E0ED001F01FFF9E232A
:1014500004001B1A962B0CDC082801DD083CA54073
:101460006D026D0AD8B201E000200025C0052843B6
:1014700070BD992B09DD020029001B3291404A1EE4
:1014800091410522121AD5400D43052C01DD621F42
:1014900095402900084E31406A0709D00F202840A6
:1014A000042805D004314A0102D59F2331401B1B7B
:1014B00089014D0AD8B2D9E7FFFFFFFBF0B54F46CF
:1014C000D64646460D0001001800C0B517002B0394
:1014D0005A0A4B0F1343CA00914602036E004100A3
:1014E000520AEC0F7D0F1543760D490DC00F824651
:1014F000AC46FF00721A844200D198E0002A00DC5A
:1015000081E0002900D1B6E0C9498E4200D172E1E4
:1015100080212800090408438446382A00DD5EE162
:101520001F2A00DDEEE1202039006546801A874041
:10153000D14085400D4339004F1EB9416746D74021
:101540002943DB1B4A46551AA945894149425B1A82
:10155000984643461B0200D4CCE043465B025B0A3C
:1015600098464346002B00D12CE1404601F08EFE08
:1015700001000839202228004346521A8B40D040EF
:101580008D4003438E4200DD17E18E1B721C1F2A23
:1015900000DDA7E1202118002E00891A8D40884027
:1015A000D640D340691E8D413043984600260543FE
:1015B0006B0709D00F232B40042B05D02B1DAB420A
:1015C000AD416D42A8441D0043461B0200D494E087
:1015D000974B721C9A4200D19DE04146954BED0815
:1015E00019400B00520549075B0229431B0B520DA2
:1015F00012051343E407234308001900E0BCBA4670
:10160000B146A846F0BD002A43D08A1B002E00D068
:101610002AE14C461C4300D1D1E1541E012A00D1DD
:101620001FE2834DAA4200D172E2220023E1002A88
:1016300000DC98E0002942D07D498E4200D1DAE0FA
:1016400080212800090408438446382A00DD29E166
:101650001F2A00DC87E1110065462039CD40202A91
:1016600004D040206146821A91400F4339004F1E3A
:10167000B9410D431BE12900394300D1B5E0511EAA
:10168000012A00D1ABE16A48824200D1B2E10A00EE
:1016900043E76949751C0D4200D0CFE0002E00D011
:1016A00093E14946194300D1D1E16146394300D065
:1016B000E3E149465807C9080143DB0826E0290051
:1016C000394300D191E0511E012A05D05848824289
:1016D00000D18FE10A00B8E73D004D444D458941F6
:1016E0006344984649428844434602261B0200D57B
:1016F000EBE0013E6B0700D05CE74346E9085A0780
:1017000011433200DB084A48824221D01B035205B4
:101710001B0B520D6CE70023002169E72A003A43B6
:1017200069D04A465807D108DA0880231B030843CA
:101730001A4207D02900ED081D4203D12A00FF08F4
:1017400048073843430FC1005B07C908194313001A
:101750000A001A4300D113E28022120313431B0331
:10176000334A1B0B44E7002A4BD08A1B002E00D1C2
:10177000E7E02F48814200D195E180200004034337
:10178000382A00DD43E11F2A00DDDBE120201D00B7
:101790004E46801A8540D64035434E46864030003E
:1017A000D340461EB0419C440543ED19BD429B41C8
:1017B0005B42634498460E007FE01E4A761A13404F
:1017C0009846F5E6280001F061FD010018311F2957
:1017D00000DCCFE62B00083883400025D2E66246C5
:1017E0003A4311004F1EB941ACE649465807C908B3
:1017F0000143DB0887E749465A07C9081143DB085C
:10180000A6E70D49701C084200D0BBE0002E00D0B6
:1018100014E14946194300D175E12900394300D04C
:101820007EE149465807C9080143DB086EE7C04618
:10183000FF070000FFFF7FFFFE0700004946CD1BAA
:101840006146581AA94589414942884601004046E7
:10185000091A8846090200D5A6E04146294300D06E
:101860007FE60023002451E7C74CA14200D1C7E026
:10187000802424042343382A54DC1F2A00DDCCE0D2
:1018800020244846A41A1D004E46A040D640A5403C
:101890000400D34062463543661EB441D31A9C46C9
:1018A000254344E062463A4315006F1EBD414D4456
:1018B0004D45894149428846984443461B0200D41D
:1018C00018E7B14B01369E4249D04246AF4B012149
:1018D0001A4013006A080D401543D9075B08984663
:1018E0000D4365E618001F3EF040202A03D040213A
:1018F0008A1A93401D43691E8D4100230026984695
:101900000543F7E6110065462039CD40202A04D072
:1019100040206146821A91400F4339004F1EB94161
:1019200029430FE64A4613431D006B1E9D417D1B54
:10193000AF429B4162465B42D31A984654460E0022
:1019400007E64846184300D1B3E0501E012A00D1F3
:101950000DE18D4DAA4200D1A5E0020010E7320052
:101960000023002144E620213800891A65468F4073
:101970008D40D040791E8F4105433D436746D74097
:10198000DB1994E7804A904200D1ECE039004944E9
:1019900049459241634452429B18DD0749085B0860
:1019A000984606000D43A5E64A46BD1AAF42894156
:1019B00062464942D31A5B1A98465446D1E56C07F1
:1019C000F9082143EB0804009DE64A461A4375D105
:1019D0006146394314D1802300241B03BCE64A46E8
:1019E000D51BA9458941624649429B1A5B1A984614
:1019F0000126AEE54A46D1085A071143DB08A7E69F
:101A00006346F9085A0754461143DB08A0E64A46E4
:101A100013431D006B1E9D41C7E614001E00203CB1
:101A2000E640202A05D04024A21A93404A461A4391
:101A300091464D466B1E9D41354378E74A461A4311
:101A400000D06BE66B07F9081943EB0880E66146A6
:101A5000394354D06346F9085C072143DB0804008E
:101A600054E64A46BD1AAF42894162464942D31AFA
:101A70005B1A9846040001266BE54A46D51BA9452A
:101A80008941624649429A1A521A9046120232D548
:101A90004A46BD1AAF42894162464942D31A5B1A8F
:101AA0009846040084E56346F9085A071143DB08A9
:101AB0004EE6F90868070143EB0824E662463A431C
:101AC00000D198E64A46D1085A071143DA08802324
:101AD0001B031A4208D06046C5081D4204D1544673
:101AE0002A00F908430719434B0FC9005B07C908CF
:101AF000194313002CE64146294300D0FAE50023A0
:101B00000A00002402E66B07F9081943EB08FDE51B
:101B10006346F9085B07194363460400DB0817E6D0
:101B20003D004D4463444D458941984649428844AF
:101B300043461B0200D4DDE54246144B01261A4001
:101B40009046D7E510001E002038C640202A05D058
:101B50004020821A93404A461A4391464D466B1ED6
:101B60009D41354321E602000023002140E54A461D
:101B7000D519BD4289416344984649428844B3E53A
:101B80000021014A0B0033E5FF070000FFFF7FFF44
:101B9000F0B557464E464546DE46E0B5814605005F
:101BA0000C03480092461F0085B0240B400DCE0F59
:101BB000002859D0874B984200D198E06B0FE40081
:101BC0001C4380231B0423439846834BED009B4614
:101BD00000239946834400933C037B005046240B2A
:101BE0005B0DFF0F002B67D07A4A934218D07A49D9
:101BF000420F8C46E4005946144380226344120489
:101C0000CB1A14439B46C200002033007B409A4607
:101C10004B460F2B00D9EFE070499B00CB589F46F5
:101C20006F4B52469C462243E344002A00D095E085
:101C3000494602231943894600240220E5E7002390
:101C40000024002552461B052343D20713432800D6
:101C5000190005B0F0BCBB46B246A946A046F0BD8F
:101C6000002400255B4BEDE74B462343984600D10B
:101C700089E0002C00D1E0E1200001F007FB010029
:101C800002000B391D235B1A49461000D940083861
:101C900084400B004D4623439846854051483C0301
:101CA000831A9B460023994600937B005046240BE1
:101CB0005B0DFF0F002B97D15246224355D0002CCD
:101CC00000D1CAE1200001F0E1FA02000B3A1D2325
:101CD00001009B1A52460839DA408C4014435246A0
:101CE0008A40414B58449B46834400208DE74B4635
:101CF0002343984640D108239946063B0025834656
:101D0000009369E7B246009B022BA9D0032B00D1B8
:101D100011E2012B93D0354A5A44002A00DC3CE101
:101D20006B0700D0A7E1ED084346DB0106D542462C
:101D30002F4B1A4090468022D2005A442D4B9A4293
:101D40008EDC4346520558075C020543240B530DB5
:101D500078E7BA46A04615000090D4E74A46032328
:101D60001A439146032052464FE74946012319433F
:101D700089460024012048E70C239946093BA046E8
:101D80008346009328E70423994600239B460133AA
:101D90000025009320E7002380249A4600250D4B60
:101DA00024034FE7802341461B03194208D01C42FD
:101DB00006D11C432403BA461500064B240B41E709
:101DC0008024434624031C432403B246014B240BC6
:101DD00038E7C046FF07000001FCFFFFC8E8000825
:101DE00001F8FFFF0DFCFFFFF3030000FF030000FD
:101DF000FFFFFFFEFE070000444500D216E100D1C0
:101E000011E101235B429C462E0040460025E3443D
:101E10002302140E1C431B0C994623041F0C1202B0
:101E2000494600920197FEF711FA02007A430B042B
:101E3000310C804619438A420BD901235B429C46F0
:101E40000919E0448C4204D88A4202D9831E98467C
:101E50000919881A4946FEF7F9F909048C46310434
:101E60006646019A090C4243030031438A4204D971
:101E70000919013B8C4200D811E1891A4246009EA3
:101E800012041A43330C1F00100C904602931304E3
:101E90003204160C32001B0C5A4303967B43464314
:101EA0007843170CBC469B1963449E4203D9802695
:101EB0007602B44660441E0C301816041B04360C1F
:101EC0009E19814200D29CE000D197E0AE1B091A16
:101ED000B54280414042081A844200D111E149468E
:101EE000FEF7B4F9019A0B044243310C0500194383
:101EF0008A4207D90919013D8C4203D88A4201D987
:101F0000851E0919881A4946FEF7A0F909048C466E
:101F100031046646019A090C4243030031438A4268
:101F200007D90919013B8C4203D88A4201D9831E83
:101F30000919039E891A32002D041D43029F2B04A8
:101F40001B0C5A437B439C46280C4643130CB44459
:101F5000634478439E4203D980267602B4466044A7
:101F60001E0C12041B04120C30189B18814206D35D
:101F700002D001231D43CEE6002B00D1CBE6611831
:101F80006E1EA14200D2A4E0814200D2C9E000D17D
:101F9000D9E03500EDE701256D420121891A382984
:101FA00000DD4CE61F2900DC7FE01F235B429A1A0C
:101FB0004346D340202904D04446654A5A449440BD
:101FC00025436A1E954107222B43150000241D401E
:101FD0001A4200D1A1E00F2200241A40042A00D1A5
:101FE00098E01A1D9A429B415B42E41813002202BA
:101FF00000D48FE001230024002523E6B54200D35E
:1020000064E743465A1E009B9C4665441F009D4260
:102010009B415B421B19C9188C423AD2884263D853
:1020200060D0904652E7AA4200D9EAE64346DE076E
:1020300058086B081E43ED07EAE6484601F026F90A
:1020400001000200153120321C2900DC1AE64B4643
:10205000083883400025984620E601F017F9030070
:102060001A00153220301C2A00DC30E65446083BAA
:1020700000229C4035E60F232B40042B00D152E672
:1020800005235B42AB429B4104355B42ED0898441B
:102090004AE68C42C5D1AF42C0D9904616E78A4283
:1020A00000D8EAE6831E0919E7E62A4A28005A44BE
:1020B000434695409340C8406A1E954144460343B9
:1020C0002B43CC405A0792D00F221A40042A88D1C1
:1020D0008DE73500814200D04BE7009A934200D053
:1020E00047E718E6AE429CD902235B429C46009B20
:1020F000E0449C4665449D429B415B421B19C918C4
:10210000E4E6154A5A44002A00DC44E7012300258E
:10211000984409E665076402240BDB081D4300238D
:1021200090E5009E023D7200B242BF417F423C19E1
:1021300009190092CEE78024434624031C4324035C
:10214000064B240B7EE5009A9A42EAD33500C4E799
:102150003E0400001E040000FF030000FF07000013
:10216000F0B54F464646D646944691461A03120BA2
:10217000184DC0B54C000F0392465A000600804629
:102180003F0B0120640DC90F520DDB0FAC420AD08A
:10219000AA4203D0944201D157450DD0E0BCBA46C3
:1021A000B146A846F0BD3D003543F7D1A242F5D176
:1021B000524665462A43F1D10120C845EED19942E5
:1021C00006D0002CEAD13E433000461EB041E5E780
:1021D0000020E3E7FF070000F0B54E4645465746AE
:1021E000DE4604001800E0B516001B031B0B324D41
:1021F0000F034A0099464300A446B0463F0B520DD8
:10220000C90F5B0DC00FAA4229D0AB4218D0002ADB
:102210002AD13C43A34665426541002B02D14C467E
:10222000264327D0002D15D1814228D00220013924
:1022300008400138F0BCBB46B246A946A046F0BDF6
:102240004D462E432FD1002AEED13C4365426541D5
:10225000002DE9D00028EDD101204042EAE73D0001
:10226000254320D19342EBD0002BDDD14C462643B1
:10227000DAD1DBE75B460020002BDBD0D6E79A42C1
:102280000ADCE7DB4F45D1D810D000204F45D1D232
:102290000029E1D00800CDE74342584102234042E3
:1022A00018400138C6E702204042C3E7C445BDD804
:1022B0000020C445BED2EBE7FF070000F0B54E4654
:1022C00045465746DE4604001800E0B516001B03DD
:1022D0001B0B314D0F034A0099464300A446B046FC
:1022E0003F0B520DC90F5B0DC00FAA4211D0AB427C
:1022F00014D0002A2FD13C43A34665426541002BF0
:1023000014D14C46264311D15B460020002B17D038
:1023100010E03D00254312D193421CD14D462E437F
:102320000DD1002A04D13C4365426541002D0DD1F9
:10233000814216D0022001390840013800E0022015
:10234000F0BCBB46B246A946A046F0BD0028F7D176
:1023500001204042F4E7002BEAD14C462643E7D166
:10236000E8E79A4206DD43425841022340421840C2
:102370000138E5E79A42E9DB4F45DBD806D000207B
:102380004F45DDD20029E3D00800D9E7C445D1D8B4
:102390000020C445D4D2F5E7FF070000F0B557464A
:1023A0004E464546DE46E0B598460C034B00060017
:1023B000924687B0240B5B0DCF0F002B6CD0DD4A0B
:1023C000934200D186E0420FE400144380221204BD
:1023D0001443D94AC50094466344009300239946A8
:1023E0009B46434642461E03D20F5B005046904632
:1023F000360B5B0D00D178E0CE4A93421DD0CE491A
:10240000420F8C4600996344F6008C4616438022A6
:102410009C44120463461643C200002000930099B6
:10242000434601318C4649467B4001930F2900D930
:102430007EE0C24B890059588F465246009B32437A
:1024400000D056E1BB4900268C46634449460093C0
:102450000223194389460220E1E7434601933400F1
:10246000150083465B46022B5ED0032B00D1F3E1BF
:10247000012B00D018E1002200240025019B120549
:102480002243DB071A432800110007B0F0BCBB460B
:10249000B246A946A046F0BD2500054300D141E162
:1024A000002C00D1ADE1200000F0F0FE01000200A0
:1024B0000B391D2310005B1A3100350008388440A9
:1024C000D94085400C439E48831A009300239946C7
:1024D0009B4686E70500254300D01CE108220093B7
:1024E0000223002491469B467BE75246324300D1AB
:1024F0000AE1002E00D176E1300000F0C7FE0200B4
:102500000B3A1D2301009B1A52460839DA408E40CF
:10251000164352468A40009B8949181A03008C468C
:102520006344002000937AE700240025814AA5E750
:102530002F0C2D042D0C2B00110C1204120C5343E4
:102540009846130028007B439946484348448346F5
:1025500040460B00000C824658467B435044029391
:10256000814506D99A4680235B029946CA44534660
:102570000293030C9B4643461B0400041B0C984625
:10258000030043440493330C99462B003604360C65
:102590007343984633007B439A464B465D435F4303
:1025A00043465544180C4019824503D980235B02E9
:1025B0009A465744050CEB19059343461D042D0C10
:1025C00000044019250C2404240C270057436A43B7
:1025D00090462A003B0C9A464A4361434144514489
:1025E0008344884503D980235B02984642443F04D4
:1025F0000B0C3F0C0904C919270098464B4677433A
:102600005C436E435D433B0C9946A4194C444244E1
:102610000395A64204D980235B029846454403955E
:10262000029B3F045B441E00834280412304984682
:10263000059B3F0C4744984676188E428941474493
:1026400040423D18A846934649428A46C3449F42A9
:10265000BF4180458041039BDA449846534640423F
:102660007F420743240C934592418A4589413F1993
:10267000DC0D049B75021D43681E85415346524282
:1026800049420A43BF184744F60D7F0235435A02B8
:102690003C431543FB0100D4C1E001216A080D4011
:1026A0001543E2071543640826496144002956DDB5
:1026B0006B0709D00F222A40042A05D02A1DAA42FE
:1026C000AD416D4264191500E30104D580211E4A15
:1026D000C900144061441D4A914200DD24E76207AD
:1026E000ED08640249051543240B4A0DC6E601971F
:1026F000B8E6104A0320944663444A4600930323F5
:102700001A43914652468AE64946012319438946AF
:102710000026012083E60C22009303230500914646
:102720009B465EE604239946002300930133002470
:102730009B4656E6FF07000001FCFFFF08E9000882
:102740000DFCFFFFFF030000FFFFFFFEFE07000080
:10275000002380240025444A019324038EE60120AF
:10276000401A382800DD86E61F285BDD1F22230083
:102770005242511ACB401900202803D03B4A6244F0
:10278000944025436A1E95412A000A4307210D0003
:102790000024154011425BD00F2100241140042970
:1027A00053D0111D914292415242A4180A002302B3
:1027B0004BD501220024002560E680231B031C4228
:1027C00009D01E4207D133431C0343461500240B96
:1027D000254A019352E68022120314432403224A1D
:1027E000240B01974AE600F051FD03001A00153250
:1027F00020301C2A00DC84E65646083B00229E401E
:1028000089E600F043FD01000200153120321C2949
:1028100000DC4EE6340008380025844053E6009B77
:102820009C4641E71249220061442E008D408A40B7
:10283000C640691E8D4132432A43C4405307B6D077
:102840000F2111400429ACD1B1E765076402240BC4
:10285000D2081543002211E68022120314432403F8
:10286000014A240B0AE6C046FF0700003E040000B0
:102870001E040000F8B557464E464546DE460400A5
:10288000E0B51F0010000B03620F4E00CD0F5B0A76
:1028900039031343490AE200440F2143C24C9146D5
:1028A0009246C0007A008046760D520DFF0FA2427C
:1028B00000D1B4E001246740BB46BD4200D188E0AE
:1028C000B41AA446002C00DCB2E0002A00D1C5E016
:1028D000B54A964200D18BE280221204114362462F
:1028E000382A00DDA1E11F2A00DD16E220270C00B6
:1028F000BF1ABC400200A0466446B840E2404446CD
:1029000014430200501E82416046C14022435B1ABC
:1029100049468C1AA145924152429B1A9846434619
:102920001B0200D417E143465B025B0A984643460C
:10293000002B00D16CE1404600F0A8FC0200083AF0
:10294000202120004346891A9340C8409440034305
:10295000964200DD57E1961B711C1F2900DDCBE17B
:10296000202218002600521A94409040CE40CB40BE
:10297000621E94413043984600260443630709D001
:102980000F232340042B05D0231DA342A4416442FE
:10299000A0441C0043461B0200D4DFE0824B0136FA
:1029A0009E4200D1FBE04246804BE4081A401300EF
:1029B000710552075B0222431B0B490D0905ED0708
:1029C000194329431000F0BCBB46B246A946A046B5
:1029D000F8BDB41AA446002C58DD002A00D19EE0B0
:1029E000714A964200D13BE18022120411436246B3
:1029F000382A00DDC1E01F2A00DCBBE10C00203AD0
:102A0000D44022006446202C04D040273F1BB9400C
:102A1000084380464446611E8C411443B1E00C00DB
:102A200004432AD0BB46BD422DD0614CA446B444D9
:102A30006446002C5CD0941BA446002E00D015E107
:102A40004D461D4300D1C3E1651E012C00D10CE2AF
:102A5000554EB44200D1F8E1AC460EE10A00024303
:102A600000D136E12200013A012C00D1C6E14E4CE2
:102A7000A44500D1F4E0944631E701246740BB4609
:102A8000BD4200D01CE74A4CA446B4446446002C26
:102A900000D1CFE0941BA446002E00D15CE1424E51
:102AA000B24200D1ECE18026360433436446382C30
:102AB00000DDB3E11F2C00DD38E22026361B1C00B0
:102AC000B4404F46A0466446E74044463C434F4628
:102AD000B7403E00771EBE4134436646F340C918F6
:102AE000241884429B415B429846160088444EE07D
:102AF000304A741C144200D0D6E04A461A43002ED5
:102B000000D05BE1002A00D1A5E10A00024300D019
:102B1000BBE14A465907D2080A43DB0827E00A000E
:102B2000024300D174E12200013A012C05D01E4C71
:102B3000A44500D194E0944659E748444845924161
:102B40005B189846040052429044434602261B02FA
:102B500000D5C4E0013E630700D011E74346B44608
:102B60005907E2080A43DB080F498C4540D061460B
:102B70001B0349051B0B490D20E701430C00611E97
:102B80008C414C444C4592415242904698444346B5
:102B90001B02E0D5044B01369E4200D09FE031007D
:102BA000002300220AE7C046FF070000FFFF7FFF67
:102BB00001F8FFFFFE070000002A00D160E10A00D3
:102BC00002434DD04A465C07D20822438024DB08EA
:102BD0002403234207D0CE08264204D15D463300A9
:102BE000C20849070A43510FD200D20849070A43D5
:102BF0001100194300D1C8E1802109030B431B03D5
:102C0000D5491B0BDAE6D549B61A0B409846B5E60E
:102C1000200000F03BFB020018321F2A00DC8FE688
:102C2000230008388340002492E608430200501E27
:102C300082416DE6CA4C721C224200D0ADE04A4689
:102C40001A43002EB8D1002A00D158E10A000243ED
:102C500000D059E14A465907D2080A43DB0886E703
:102C60004A465907D2080A43DB08C1E7BA4DAA42CF
:102C700000D11EE180252D042B436446382C5DDCF9
:102C80001F2C00DDD0E0202567462D1B4E461C0082
:102C9000FE40AC4034434E46AE403500FB406E1E15
:102CA000B541C91A2C434EE04A46141AA145924137
:102CB000524290465F1A3A004746D21B9046120293
:102CC00000D58BE04246224300D030E600230025A9
:102CD0004DE74A465907D2080A43DB0844E7424613
:102CE0009E4B61081A401300012214400C43DA077E
:102CF0005B089846144341E61A001F3EF240160056
:102D0000202903D04022511A8B401C43621E94415B
:102D100000233443984600261DE70C00203AD44097
:102D200022006446202C04D040273F1BB9400843B2
:102D300080464446611E8C412243E9E54C462343CC
:102D40001C00631E9C41041BA0429B415B42CB1AAA
:102D500098465D461600E2E54E461E4300D1AEE0C1
:102D6000661E012C00D1FDE07B4FBC4200D107E183
:102D7000B4469BE664462022121B0C0094400700D8
:102D80009040A0466446421E90416246E740444659
:102D9000D1403C4304435B18F3E66F4CA24200D1A0
:102DA000D5E048445B184845894149425B18DC0737
:102DB00040085B08984616000443CCE6002A00D081
:102DC00082E00A00024340D1802300251B0313E761
:102DD0004B07C2081A435D46CB08C5E64A46841A2B
:102DE000A0429241CB1A52429B1A98465D469EE5FC
:102DF0004A465907D2080A43DB08F9E64A46141A3C
:102E0000A14592415B1A52429B1A9846012686E5DB
:102E10004A465907D2080A43DB08A5E64C46234335
:102E20001C00631E9C415BE665461E00203DEE4093
:102E3000202C05D040252D1BAB404C461C43A24600
:102E40005446631E9C4134437DE74B07C2081A4336
:102E50005D46CB08CCE60A00024300D136E74B07BB
:102E6000C2081A435D46CB0881E64A46841AA0424E
:102E70009241CB1A52429B1A98465D4601264EE576
:102E80004B07C2081A43CB08B2E64A46141AA145BA
:102E900092415F1A5242BA1A904612026BD54A46C4
:102EA000841AA0429241CB1A52429B1A98465D4620
:102EB00064E54B07C2081A435D46CB0898E64B070A
:102EC000C2081A43CB084FE60A00024390D04A4694
:102ED0005C07D20814438022DB081203134208D097
:102EE000CE08164205D1C0084907084304005D46D4
:102EF0003300610FE2004907D2080A4378E64B0726
:102F0000C2081A43CB0832E648445B184845924150
:102F1000984652429044434604001B0200D41AE6ED
:102F200042460E4B01261A40904614E666461F00A4
:102F3000203EF740202C05D04026361BB3404C469F
:102F40001C43A2465446631E9C413C43C8E5110005
:102F50000023002232E5C046FF070000FFFF7FFF8D
:102F6000FE0700004A461418844292415B189846B6
:102F700052429044E9E54246224300D1A6E6EAE502
:102F80004B07C2081A43CB0832E60022014913005E
:102F900014E5C046FF07000070B505000C480C039F
:102FA000160049001A035B00240B490D120B5B0D40
:102FB000814208D0064900208B4203D132431000E1
:102FC000421E904170BD01202C43FBD1F2E7C04668
:102FD000FF0700000A0030B5134C53000903050039
:102FE000090B00205B0DD20FA34204DD0F48834282
:102FF00002DD0F4BD01830BD8020400301430D4847
:10300000C01A1F2808DD0C48C31AD9400B005842CB
:10301000002AF0D11800EEE7084CC540A4466344EE
:1030200099400B002B43F2E7FE0300001D04000053
:10303000FFFFFF7F3304000013040000EDFBFFFFE0
:1030400070B5002816D0C317C5185D40C40F2800FE
:1030500000F01CF9114A121A0A2816DC03002E008F
:1030600015339E400B23181AC54053052D032D0B15
:103070005B0D03E000240023002500261B052B43E5
:10308000E40723433000190070BD0B388540530519
:103090002D0300262D0B5B0DF0E7C0461E0400003B
:1030A00010B5041E10D000F0F1F80F4B1B1A0A28BF
:1030B00011DC0B222100121AD14015300A035B05E6
:1030C0008440120B5B0D01E0002300221B0513431B
:1030D0002000190010BD22000B3882405B0512034E
:1030E0000024120B5B0DF1E71E04000070B54300D5
:1030F0004602C40FFE201B0E591C750A08420CD054
:10310000E022920094466D07360B63441B0533435F
:10311000E40723432800190070BD002B14D1002DB3
:103120001BD0280000F0B2F80A281CDC0B232A0070
:103130001B1ADA40030015339D400E4B12031B1A75
:103140005B05160B5B0DE1E7002D09D0320B8026E5
:103150003603094B6D071643D8E700230026D5E751
:103160000026054BD2E703002A000B3B9A400025BE
:10317000E3E7C04689030000FF07000002004B00A0
:10318000F0B508035B0D3D4ECC0F400A510F5F1C9C
:103190000843D50037420AD039495E18FE2E16DDA5
:1031A000FF230021DB050B43E0071843F0BD002B94
:1031B00006D1284327D005218901490ADBB2F1E76E
:1031C0000543EDD08021C903FF230143EAE7002E28
:1031D0001CDD920111004A1E9141C0006D0F014398
:1031E00029434B0748D00F230B40042B00D0043158
:1031F0008023DB040B403FD0721CFE2ED0D089010F
:10320000490AD3B2CEE700230021CBE732001732C0
:1032100022DB80211E2209040843921B1F2A1DDD88
:10322000022149428E1B0100F1400E00202A04D0E9
:10323000144A944663449840054329004D1EA94111
:10324000314300264B07CED180200B00C004012261
:1032500003400142D3D1AFE70023ACE70A498C46D3
:1032600029006344D1409D400A00290098404D1E2A
:10327000A94101431143E4E733009DE7FE07000045
:1032800080FCFFFFA2FCFFFF82FCFFFF1C2101234B
:103290001B04984201D3000C10391B0A984201D339
:1032A000000A08391B09984201D30009043902A217
:1032B000105C40187047C04604030202010101017E
:1032C000000000000000000010B5002903D1FFF746
:1032D000DDFF203002E0081CFFF7D8FF10BDC0461C
:1032E00080B582B000AF0200FB1D1A70FB1D1B7879
:1032F000002B0CD0FB1D1B78013BDBB21800FFF745
:10330000EFFF020013009B009B185B0000E001230D
:103310001800BD4602B080BD80B582B000AF02008B
:10332000FB1D1A70FB1D1B789B0001229A401300A5
:103330001800BD4602B080BD90B585B000AF786082
:103340000A00FB1C1A700023FB600B217B18002273
:103350001A707B1800221A7031E00B217B181B7841
:103360007A68D3181B782F2B1ED97B181B787A68A4
:10337000D3181B78392B17D87B181B787A68D31889
:103380001B78303B1C00FA1C7B1812781B78D31A70
:10339000DBB2013BDBB21800FFF7A2FF030063437F
:1033A000FA68D318FB6004E001F05AFE01235B4287
:1033B0000DE00B217B181A787B1801321A700B2351
:1033C000FA18FB1C12781B789A42C6D3FB681800C7
:1033D000BD4605B090BD000090B587B000AF7860E5
:1033E0000A00FB1C1A7000237B6100233B610F2144
:1033F0007B1800221A707B1800221A7059E00F23E4
:10340000FB181B787A68D3181B78303B362B34D8DE
:103410009A002E4BD3181B689F4600233B6131E076
:1034200001233B612EE002233B612BE003233B6140
:1034300028E004233B6125E005233B6122E00623CD
:103440003B611FE007233B611CE008233B6119E05F
:1034500009233B6116E00A233B6113E00B233B6128
:1034600010E00C233B610DE00D233B610AE00E23CD
:103470003B6107E00F233B6104E001F0F1FD012314
:103480005B421EE0FA1C0F243B1912781B78D31AFA
:10349000DBB2013BDBB21800FFF73EFF02003B69E5
:1034A00053437A69D3187B613B191A783B1901326F
:1034B0001A700F23FA18FB1C12781B789A429ED3BD
:1034C0007B691800BD4607B090BDC04648E90008BA
:1034D00080B584B000AFF860B9607A607B689AB25A
:1034E000FA239B00B968044806F0A4FB7B68180027
:1034F000BD4604B080BDC0464803002080B584B0FE
:1035000000AF7860184B1B7E002B29D0174B1B682F
:10351000FB600A2008F06CFB02F0B0FF0200144BC5
:103520001100180008F04AFBFB681B0C9BB21A0044
:10353000FF231A401100FB681B0A9BB21A00FF23ED
:103540001A40FB689BB21800FF230340094808F0AB
:1035500035FB7B68180008F031FB0A2008F048FBB7
:10356000C046BD4604B080BD3402002000280040A3
:10357000D8E30008E0E3000880B582B000AF7860CF
:10358000074B1B7E002B06D07B68180008F016FB4B
:103590000A2008F02DFBC046BD4602B080BDC046E3
:1035A0003402002080B582B000AF78603960084BEB
:1035B0001B7E002B08D03A687B681100180008F0C9
:1035C000FDFA0A2008F014FBC046BD4602B080BDDB
:1035D0003402002080B582B000AF78603960084BBB
:1035E0001B7E002B08D03A687B681100180008F099
:1035F000E5FA0A2008F0FCFAC046BD4602B080BDDC
:103600003402002090B583B000AF391D154B022263
:10361000180003F0E3F8052002F03AFF391D114BC2
:103620000222180003F0DAF8022002F031FF0E4BFC
:103630001B881800FDF706FF031C0C49181CFDF73A
:10364000FFFB031C1C1C3B1D5B881800FDF7FAFEEA
:10365000031C191C201CFDF729FA031C181CBD466D
:1036600003B090BDF40400207800F81F0000404033
:1036700080B584B000AF0023FB600023BB60002353
:103680007B60A023DB0501220221180004F0C5F9AC
:10369000B91C3E4B0122180003F0A0F8052002F0EF
:1036A000F7FEB91C394B0122180003F097F80220ED
:1036B00002F0EEFEBB1C1B881800FDF7C3FE031CC6
:1036C000181CFFF713FD02000B0000203049FEF725
:1036D0005FFA02000B001000190000222D4BFFF7CB
:1036E000C9F802000B001000190000222A4BFEF757
:1036F00055FE02000B0010001900FFF73FFD031CF0
:10370000FB602649F868FDF7D1F9031C181CFFF788
:10371000EDFC02000B00100019000AF047FCC0226B
:10372000D2051F4BFEF73AFE02000B0010001900F5
:1037300000221C4BFDF7C2FE02000B008020000699
:103740001949FEF725FA02000B0010001900FFF7D7
:1037500015FD031CBB60B868FFF7C8FC134A144B87
:10376000FFF788F802000B0010001900FFF706FDB4
:10377000031C7B60A023DB0500220221180004F05B
:103780004CF97B68181CBD4604B080BDF4040020D1
:103790000000B0400000F03F0088C34000401C46DD
:1037A00066A2724000DCAE405CF831416666666637
:1037B0006612714080B582B000AF7860074B180088
:1037C000FFF79CFE064B00221A70064B1A78012167
:1037D0000A431A70C046BD4602B080BDF4E300083B
:1037E000240200202002002090B583B000AF786052
:1037F000164B1B781C00164B5B685B007821180089
:10380000FCF79EFC03009C420AD9124B1800FFF7FC
:1038100075FE114BDA68104B04210A43DA6011E09F
:103820000E4B1800FFF76AFE084B1B780133DAB223
:10383000064B1A70054B1B781A00094B1100180033
:10384000FFF7B0FEC046BD4603B090BD2402002085
:103850003402002004E4000800ED00E02CE400083D
:103860003CE4000880B500AF154B1A7B154B5A712C
:10387000134B5A7B134B9A71114BDA7A114BDA7155
:103880000F4B9A7B0F4B9A730D4B1B681800FDF77B
:10389000D9FD031C0C49181CFDF708F9031C181C62
:1038A000FCF784FE0200074B1A60054BDA7B054BE0
:1038B0001A71034B1A89034B9A81C046BD4680BDDD
:1038C0003402002078020020D723744280B500AF74
:1038D000154B00229A72144B962292005A60124B9A
:1038E0008022D2055A61104B07225A730E4B0422D4
:1038F000DA720D4B0C221A730B4B01229A730A4B8E
:103900001422DA73084B094A1A60074B05221A8100
:10391000054B01221A74044B00221A76FFF7A2FF0E
:10392000C046BD4680BDC0463402002000D6C83324
:1039300080B582B000AF344B7B607B681B68334A34
:10394000934200D85BE07B681B68314A934256D8AB
:103950007B685B7B092B52D87B68DB7A042B4ED8C3
:103960007B68DB7A002B4AD07B681B7B062B46D911
:103970007B681B7B0C2B42D87B68DB7B092B3ED9F9
:103980007B68DB7B142B3AD87B689B7B342B36D04F
:103990007B685B691F49181CFCF7B6FD031E2ED01F
:1039A0007B685B691C49181CFCF79AFD031E26D036
:1039B0007B685B683B2B22D97B685B68174A934224
:1039C0001DD87B681B89012B19D97B685B69144959
:1039D000181CFCF799FD031E11D07B685B69114927
:1039E000181CFCF77DFD031E09D079680E4B1C22C4
:1039F000180007F057FCFFF735FF002300E0012314
:103A00001800BD4602B080BD0000080880B6390825
:103A1000BF878B3B9A99D93F00004040C0A8000067
:103A20006666E63F666646403402002090B585B083
:103A300000AF78607B68BB6003F0C8FD0F23FB1804
:103A400000221A7014E00F243B191B780E4A94468A
:103A500063449B001900BB681A1DBA601B681A00FA
:103A6000022003F0EFFD3B191A783B1901321A705E
:103A70000F23FB181B78062BE5D903F0D5FDC046B4
:103A8000BD4605B090BDC0460000020280B582B0C0
:103A900000AF0200BB1D1A80094B1B881900094B9F
:103AA0000422180005F0FCFABB1D1A88064B110011
:103AB0001800FFF777FDC046BD4602B080BDC04686
:103AC00014000020FC03002054E4000880B500AF7F
:103AD000C0239B010B480022190003F09EFF0A4BF4
:103AE000180001F075FF02F0F7FC084B1A68074B4D
:103AF00004210A431A600121012004F0B3FAC046F0
:103B0000BD4680BD000400507802002000700040D7
:103B100090B583B000AF78603960524B9A7A524BBF
:103B20001B68111C1F220A40D2B2D0001A7807214C
:103B30000A40111C021C0A431A704B4B1B681A786E
:103B400001210A431A70484B1B687A6812780121D8
:103B50000A4010005A7801218A43111C021C0A43B2
:103B60005A70414B1B681A7806218A431A707B6889
:103B70005B78002B03D17B68DB79002B01D001221D
:103B800000E00022384B1B68111C01220A40D2B20F
:103B900001210A4090185A7802218A43111C021C04
:103BA0000A435A70304B1B687A68127901210A4027
:103BB00090005A7804218A43111C021C0A435A704F
:103BC000FFF756FD031C191C181CFCF7D3FD031C42
:103BD0002649181CFCF7CEFD031C1A1C224B1C683E
:103BE000101CFCF7E3FC0300DBB2A370FFF70AFD37
:103BF000031C1F49181CFDF723F9031C181CFDF7B3
:103C000001FC0300DBB2133BDAB2174B1B68111C3B
:103C10001F220A40D2B2D0005A7807210A40111C54
:103C2000021C0A435A707B685B78002B03D17B68C7
:103C3000DB79002B01D0012300E000231A1C0123B3
:103C40001340DAB27B68DA707B681A797B689A7104
:103C5000084B0321180001F0FDFFC046BD4603B02C
:103C600090BDC04634020020200000200000A04289
:103C7000000020417802002080B586B000AF3B1DD7
:103C8000180014231A00002107F015FB3B1DC02269
:103C90001A603B1D03225A603B1D00229A603B1DA7
:103CA000044A1900100003F025FDC046BD4606B0C9
:103CB00080BDC0460004005090B587B002AF184BDD
:103CC000180001F013FEFFF701FEFFF731FE082197
:103CD0007B1810221A607B18A022D2055A603B0084
:103CE00008221A603B00A022D2055A607B183A00D5
:103CF0000B4C0C4901916946586808601B681168B3
:103D00005268200001F01EFE054B180002F0B8F8C2
:103D1000034B180001F00CFDC046BD4605B090BD38
:103D2000780200203404002080B584B000AF8023E6
:103D30001B06FB6080231B06BB6080231B067B6089
:103D4000FB1C00221A705D4B1800FFF7D7FB5C4B81
:103D5000180001F09FFF5A4B5D229B5C002B2BD07B
:103D6000574B60229B5C01225340DBB2002B1FD0DB
:103D7000534B5B7FFF2B17D1514B9B7FFF2B13D1F5
:103D8000FB1C01221A704E4BDB7F012B03D102F08A
:103D900075FB0300BB604A4BDB7F022B08D102F0AE
:103DA0006DFB03007B6003E002F068FB0300FB6037
:103DB000434B5D2200219954FB1C1B78002B51D0F2
:103DC0003F4B1B7F002B0ED080235B013D4801221F
:103DD000190003F022FE80239B013A4801221900BA
:103DE00003F01BFE0DE080235B0136480022190022
:103DF00003F013FE80239B0132480022190003F0D8
:103E00000CFE02F03BFB0200BB68D21A96235B005B
:103E10009A4207D280239B012A480122190003F00D
:103E2000FCFD06E080239B0126480022190003F0D8
:103E3000F4FD02F023FB02007B68D21A96235B009C
:103E40009A4207D280235B011E480122190003F029
:103E5000E4FD7CE780235B011A480022190003F08F
:103E6000DCFD74E7164B1B7F002B07D080235B0122
:103E700014480122190003F0D0FD06E080235B0105
:103E800010480022190003F0C8FD02F0F7FA020002
:103E9000FB68D21A96235B009A4207D280239B01CB
:103EA00008480122190003F0B8FD50E780239B0168
:103EB00004480022190003F0B0FD48E778E4000848
:103EC000780200200004005080B500AF2C4B180091
:103ED000FFF714FB2B4B180001F0DCFE294B5D2291
:103EE0009B5C002B10D0274B60229B5C012253402F
:103EF000DBB2002B04D002F0C1FA0200224B1A60A0
:103F0000204B5D220021995402F0B8FA02001F4BA9
:103F10001B68D21AFA23DB009A4204D902F0AEFAE7
:103F200002001A4B1A6002F0A9FA0200164B1B6835
:103F3000D21A96235B009A4207D280239B01144831
:103F40000122190003F069FD06E080239B0110485F
:103F50000022190003F061FD0A4B1B7C032B07D1E3
:103F600080235B010A480122190003F056FDB1E7E6
:103F700080235B0106480022190003F04EFDA9E7EB
:103F800094E400087802002060020020640200200F
:103F90000004005080B582B000AF78607B681B7F62
:103FA000002B0BD0274B1B7C002B07D080239B01C1
:103FB00025480122190003F030FD06E080239B0113
:103FC00021480022190003F028FD7B681B7C032B8D
:103FD0000BD11C4B1B7C002B07D080235B011A48A4
:103FE0000122190003F019FD06E080235B01164849
:103FF0000022190003F011FD02F040FA0200134BF9
:104000001B68D31A124A934204D902F037FA02000D
:104010000E4B1A6002F032FA02000C4B1B68D31AE6
:10402000312B0AD8074B1B7C002B06D0C0239B01E9
:1040300005480122190003F0F0FCC046BD4602B05D
:1040400080BDC046340200200004005068020020F9
:104050008813000090B589B000AFF860B9607A604D
:10406000754B1B68FB61744B5B68BB6102F006FA21
:1040700003007B61714B180007F040FE7A69704BBA
:104080001100180007F09AFDFB691B0C9BB21A0087
:10409000FF231A401100FB691B0A9BB21A00FF2381
:1040A0001A40FB699BB21800FF230340654807F0E4
:1040B00085FDBB699BB21A00FF231A401100BB6942
:1040C0001B0A9BB21A001F231A40BB691B0C9BB230
:1040D0001800FF23034080208001844663445A482F
:1040E00007F06CFDFFF78EFA031C181CFDF78AF928
:1040F0000400FFF787FA031C5449181CFCF7A0FEC4
:10410000031C181CFDF77EF9030064211800FCF75E
:1041100087F90B001A004E4B2100180007F04EFDE6
:10412000FFF7A6FA031C181CFDF76CF90400FFF753
:104130009FFA031C4749181CFCF782FE031C181C3D
:10414000FDF760F903000A211800FCF769F90B007C
:104150001A00414B2100180007F030FDFB681B7965
:10416000002B01D03D4B00E03D4B3E4A19001000B2
:1041700007F024FDFB689B79002B01D0374B00E052
:10418000374B394A1900100007F018FDFB681B78FF
:10419000002B01D0314B00E0314B344A19001000A4
:1041A00007F00CFDFB685B78002B01D02B4B00E087
:1041B0002B4B2F4A1900100007F000FDFB68DB783D
:1041C000002B01D0254B00E0254B2A4A1900100096
:1041D00007F0F4FCFB68DB79002B01D01F4B00E0FB
:1041E0001F4B254A1900100007F0E8FC234B1B7CED
:1041F0001A00234B9200D258224B1100180007F0EE
:10420000DDFCBA68204B1100180007F0D7FC7A6873
:104210001E4B1100180007F0D1FC02F02FF902002C
:104220007B69D21A1A4B1100180007F0C7FCC04670
:10423000BD4609B090BDC04600280040A8E4000873
:10424000BCE40008CCE40008ECE400080000C8422C
:1042500008E50008000020411CE5000830E50008E2
:1042600034E5000838E5000848E5000860E5000886
:1042700070E5000884E500089CE50008780200204D
:1042800000000020B8E50008CCE50008E0E50008E3
:10429000FCE5000890B583B000AF02F089F800F0AB
:1042A000D7FB00F0DBFD00F0B3FD00F0F3FC00F005
:1042B00025FD00F05BFD00F04FFC00F0C1FC00F0BC
:1042C00085FDDE4ADE49DF4B180001F0A1FEF02338
:1042D000DA01DD4B1100180003F06EFCDB4ADC4B09
:1042E0001100180007F06AFCDA4B9A68D94BC0211C
:1042F00049010A439A60D84B0021180002F09AFC49
:10430000FFF7DAFCD54B5B689AB2D54B1A80D54BD8
:104310001A7801210A431A7080235A00A023DB0572
:104320001100180003F05CFB03005A1E9341DAB23F
:10433000CD4B5A71A023DB050121180003F050FB7F
:1043400003005A1E9341DAB2C74B9A7002F0C4F8C8
:10435000C64B8021180003F043FB031E08D1C34B5A
:104360004021180003F03CFB031E01D0FFF7DCFCEA
:10437000BE4B8021180003F033FB031E08D0BB4B5B
:104380004021180003F02CFB031E01D1FFF79CFD18
:10439000B64B8021180003F023FB031E09D1B34B59
:1043A0004021180003F01CFB031E02D1B04B012278
:1043B0001A70FFF761FCAB4B1A7801210A431A709F
:1043C000AC4B180006F036FFFFF752F9021CAA4B5F
:1043D0001A60A54B1B791C0080235A00A023DB0523
:1043E0001100180003F0FCFA03009C4212D002F006
:1043F00045F80200A14B1A6080235A00A023DB0578
:104400001100180003F0ECFA03005A1E9341DAB2CF
:10441000954B1A71934B5B7804221340DBB2002B4F
:104420000CD0904B5A7804218A435A70944B1968E7
:10443000944B1A688C4B1800FFF70CFE894B1B78C5
:1044400001221340DBB2002B15D0864B1A780121D4
:104450008A431A70844B1B7801225340DBB2002B35
:1044600006D1814B1B7901225340DBB2002B02D0D5
:10447000854B07221A707B4B1B7810221340DBB24E
:10448000002B10D0774B1A7810218A431A707F4B7B
:104490001800FFF733F8714B1800FFF7E3F96F4B83
:1044A0001800FFF7C3FA704B9A786F4B5B789A420B
:1044B0001AD16D4B5A796C4B1B799A420CD001F092
:1044C000DDFF02006D4B1B68D31A644A927A11001B
:1044D0006F4A4A43934207D86B4B1B78002B03D19A
:1044E000614BDB79002B56D06A4B1B78012253407D
:1044F000DBB2002B4FD05C4B1B7801225340DBB268
:10450000002B48D001F0BAFF02004C4B9B69D21A35
:10451000524B9B7A19000B009B005B189B000A33DF
:104520009A4238D9454B1B7C032B34D04E4B5B78D9
:10453000002B02D04C4B0122DA71534B1B78002B1D
:1045400005D0514B1B78013BDAB24F4B1A70524BDE
:104550001800FEF7D3FF4C4B1B781A004F4B11008D
:104560001800FFF71FF8464B1B685A1C444B1A6093
:1045700001F084FF02004A4B1A60384A3A4B11009E
:104580001800FFF7C5FA434B01221A70344B1B8801
:104590001800FFF77BFA3F4B1B78002B3FD001F050
:1045A0006DFF02003E4B1B68D21A3E4B1B689A42BD
:1045B00035D9344B1B685A1C324B1A60274B5A684A
:1045C00013005B019B1A9B009B18DB000321180062
:1045D000FBF7B6FD03007B60334B1800FEF78EFF40
:1045E0002C4B00221A701D4B9B7A1A0013009B0063
:1045F0009B181A01D21A93001A0013001A00294BB3
:104600001B68D318FA2292009A18264B1A60254B81
:104610001A687B68934200D91300224A1360114B39
:104620001B7808221340DBB2002B41D00D4B1A78C7
:1046300008218A431A70094B180037E078020020DD
:104640000003002048030020CC0300202120112774
:1046500014E6000800580140F40400203402002051
:1046600014000020200200202C0200200004005032
:104670005502002020040020FC0200202802002017
:10468000580200205C0200205402002020E60008AE
:10469000DC050000560200203CE600084CE600085D
:1046A000500200201C0000205CE6000801F0FCFC29
:1046B000CD4B1B7820221340DBB2002B08D0CA4B15
:1046C0001A7820218A431A70C84B180001F0D2FDD5
:1046D000C74B5D229B5C002B00D120E1C54B18002D
:1046E000FEF70CFFC24B60229B5C002B08D0C24B34
:1046F0001800FEF741FFBE4B5D22002199540AE1EC
:10470000BE4B1B681B7801221340DBB2002B00D08C
:10471000CDE0BA4B1B681B781B06DB0EDBB21A0020
:10472000B24B9B7A9A4200D0C1E0B54B1A78B34B9A
:104730001B685B78DB07DB0FDBB29A420FD0AF4B15
:104740001B685B7801221340DBB2002B01D0AD4B1C
:1047500000E0AD4BAD4A19001000FEF73BFFA74B40
:104760001B685B78DB07DB0FDBB25A1E9341DAB2C2
:10477000A34B1A70A14B1B685B7801229343DBB2F9
:10478000002B04D19D4B1B689B78002B31D09B4B99
:104790001B689B789AB2994B1B685B781B065B0E73
:1047A000DBB29BB21B029BB2D3189AB2984B1A8011
:1047B000974B1B881A008D4B5B685B009A420FD9A0
:1047C000934B1B881A00934B11001800FEF7EAFE6A
:1047D000864B5B689BB2DB189AB28D4B1A8016E051
:1047E0008B4B1B881A008C4B11001800FEF7DAFE69
:1047F0000DE07E4B5B689BB21A00884B11001800DD
:10480000FEF7D0FE794B5B689AB2814B1A80804BE1
:104810001B881800FFF73AF9784B1B681B780622B3
:104820001340DBB2022B1CD17D4B1800FEF7A4FE17
:104830007C4B1B685A1C7B4B1A6001F01FFE020068
:10484000794B1A60694A6E4B11001800FFF760F946
:10485000764B01221A706E4B1B881800FFF716F971
:1048600058E0664B1B681B7806221340DBB2002B16
:1048700050D16F4B1800FEF77FFE614BDB78002BA9
:1048800002D05F4B0022DA715D4BDA785C4B9A7094
:104890005B4B9A795A4B5A71644B00221A70654BE4
:1048A000FA22D2001A60644B00221A7032E0534B95
:1048B0001B681B7801221340DBB2002B1DD14F4B2C
:1048C0001B681B781B06DB0EDBB21A005B4B11006A
:1048D0001800FEF767FE494B1B689B781A00474B90
:1048E0001B685B781B065B0EDBB21B02D218544BB5
:1048F00011001800FEF756FE0DE0404B1B681B78B8
:104900001B06DB0EDBB21A004E4B11001800FEF73F
:1049100049FE00E0C046364B5D2200219954344BDD
:10492000180001F0B7F9324B1800FFF733FBA02352
:10493000DB050121180003F053F8031E03D1304BAF
:10494000DB79002B01D0012300E000231A1C012396
:104950001340DAB22A4B5A7080235A00A023DB0599
:104960001100180003F03CF803005A1E9341DAB21C
:10497000234B1A71224B1B7901225340DBB2002BCF
:1049800000D11DE5294B1B7801225340DBB2002BDF
:1049900000D115E5164B5B7C01225340DBB2002BA6
:1049A00000D10DE5164B1A79154B5B799A4200D070
:1049B00006E5134B5A78124B9B789A4200D0FFE4DD
:1049C000214B1B7801225340DBB2002B00D1F7E4CE
:1049D000194B1B78002B00D0F2E41C4B1800FEF79B
:1049E0008DFDFFF773F8EBE4200200203402002075
:1049F0007802002070E6000880E600081800002019
:104A00002C02002030E5000834E500088CE60008A0
:104A100014000020A4E60008E8E6000804E7000807
:104A200020E7000858020020500200205602002013
:104A30003CE700081C0000205402002054E7000856
:104A400060E7000874E700085502002084E70008CA
:104A500090B59BB000AF34243B19180034231A00E2
:104A6000002106F028FC2023FB18180014231A004C
:104A7000002106F020FC3B1D18001C231A00002119
:104A800006F019FC314B1B68314A1A402F4B80212C
:104A900009010A431A6003F0D7FA2E4B1A6D2D4B09
:104AA000C02149010A431A653B1914221A603B19B7
:104AB000802252009A6021007B1801229A617B18A3
:104AC0000022DA617B18A02212021A627B180022EF
:104AD0005A627B18180003F021FB031E01D000F07E
:104AE000BFFA20217B180F221A607B1800225A601F
:104AF0007B1800229A607B180022DA607B18002263
:104B00001A617B180021180003F072FE031E01D009
:104B100000F0A6FA3B1DA1221A603B1D00229A60FC
:104B20003B1D802252025A603B1DC02212039A6133
:104B30003B1D180004F080F8031E01D000F090FA2D
:104B400004F0B0F9C046BD461BB090BD00700040F7
:104B5000FFE7FFFF0010024080B582B000AF3B00CE
:104B6000180008231A00002106F0A5FB304B314A3B
:104B70001A602F4B0022DA632D4BC02212065A60B6
:104B80002B4B00229A602A4B07229A63284B012262
:104B90001A61274B0022DA60254B2022002199540C
:104BA000234B212200219954214B00229A62204B51
:104BB000C222FF325A621E4B2C22002199541C4BF8
:104BC00004225A611A4B00221A63194B00229A617F
:104BD000174B01225A63164B0022DA61144B18005E
:104BE00001F088FC031E01D000F03AFA3B00124AA3
:104BF0001A603B00802252015A603A000C4B1100AF
:104C0000180001F085FE031E01D000F029FA3B00D8
:104C10000A4A1A603A00064B1100180001F078FEAB
:104C2000031E01D000F01CFAC046BD4602B080BD94
:104C3000F4040020002401400400000800000244A5
:104C400080B500AF104B114A1A600F4B00225A601A
:104C50000D4BE02212019A600B4B0D4A5A610A4B30
:104C600000221A62084B00225A62074B00229A6205
:104C7000054B180002F014FF031E01D000F0F0F9FC
:104C8000C046BD4680BDC046CC030020007C00402D
:104C9000FFFF000080B500AF164B174A1A60154B96
:104CA00000225A60134B7F229A60124BFF22DA6077
:104CB000104B00221A610F4B00225A610D4B00224B
:104CC0009A610C4B0022DA610A4B180004F0F8F8E4
:104CD000031E01D000F0C4F9064B04223C21180049
:104CE00004F0DEF9031E01D000F0BAF9C046BD465B
:104CF00080BDC046FC0300200028004080B500AF06
:104D0000184B194A1A60174B822252005A60154BF1
:104D100000229A60134B0022DA60124B00221A61C3
:104D2000104B00225A610F4B802292009A610D4B6A
:104D30000022DA610B4B00221A620A4B00225A62EF
:104D4000084B00229A62074B0722DA62054B1800D3
:104D500004F096FA031E01D000F082F9C046BD4669
:104D600080BDC046340400200030014080B500AF53
:104D7000144B154A1A60134B962292015A60114B3C
:104D800000229A600F4B0022DA600E4B00221A615B
:104D90000C4B0C225A610B4B00229A61094B0022EA
:104DA000DA61084B00221A62064B00225A62054B58
:104DB000180004F0EBFE031E01D000F051F9C046CC
:104DC000BD4680BD480300200038014080B500AFDB
:104DD0000D4B0E4A1A600C4BC02252005A600A4B0F
:104DE0007F229A60084B7F22DA60074B00221A610B
:104DF000054B180006F0F9F9031E01D000F030F958
:104E0000C046BD4680BDC04620040020002C0040A6
:104E100080B582B000AF104B1A6B0F4B01210A43D3
:104E20001A630D4B1B6B012213407B607B680022D1
:104E30000021092002F048F8092002F05AF8002267
:104E400000210A2002F040F80A2002F052F8C04681
:104E5000BD4602B080BDC0460010024090B58BB088
:104E600000AF14243B19180014231A00002106F087
:104E700022FA764BDA6A754B04210A43DA62734BE5
:104E8000DB6A042213403B613B69704BDA6A6F4B6B
:104E900080210A43DA626D4BDB6A80221340FB609B
:104EA000FB686A4BDA6A694B01210A43DA62674B95
:104EB000DB6A01221340BB60BB68644BDA6A634B58
:104EC00002210A43DA62614BDB6A022213407B60F3
:104ED0007B68A023DB0500221A21180002F09DFD4B
:104EE000C0239B015A480022190002F096FD3B198D
:104EF000802292011A603B1903225A603B1900225A
:104F00009A603B19534A1900100002F0F3FB3B1959
:104F100003221A603B1903225A603B1900229A604F
:104F20003B194D4A1900100002F0E4FB3B19022224
:104F3000FF321A603B19C42292035A603B190222C5
:104F40009A603A19A023DB051100180002F0D2FB89
:104F50003B1902221A603B1901225A603B190022B8
:104F60009A603B190022DA603A19A023DB05110090
:104F7000180002F0BFFB3B1918221A603B190122EE
:104F80005A603B1900229A603B190222DA603A19F2
:104F9000A023DB051100180002F0ACFB3B192F4ADF
:104FA0001A603B1903225A603B1900229A603B1990
:104FB000274A1900100002F09DFB21007B18C02237
:104FC00092011A600C003B1901225A603B19002221
:104FD0009A603B190022DA603B191D4A1900100043
:104FE00002F088FB3B19982212021A603B19032237
:104FF0005A603B1900229A603A19A023DB05110080
:10500000180002F077FB3B19C0221A603B190022FE
:105010005A603B1901229A603B190D4A1900100091
:1050200002F068FB00220121052001F04DFF052060
:1050300001F05FFF00220121072001F045FF07205A
:1050400001F057FFC046BD460BB090BD00100240B6
:105050000004005000080050001C00503FCF00002A
:1050600080B500AF034B1800FEF786FAC046BD4678
:1050700080BDC04690E7000880B500AF074B5A6B73
:10508000064B01210A435A63044B9A6B034B802160
:1050900049050A439A63C046BD4680BD00100240E0
:1050A00090B589B000AF78600C243B191800142328
:1050B0001A00002106F0FFF87B681B682A4A934219
:1050C0004DD12A4B5A6B294B802189000A435A63E0
:1050D000264BDA6A254B01210A43DA62234BDB6A4D
:1050E00001221340BB60BB683B1904221A603B19C4
:1050F00003225A603B1900229A603A19A023DB056B
:105100001100180002F0F6FA194B1A4A1A60184BEF
:1051100000225A60164B00229A60154B0022DA607A
:10512000134B80221A61124B802252005A61104B9D
:105130008022D2009A610E4B0022DA610C4B0022D1
:105140001A620B4B180001F0F1FE031E01D0FFF7AD
:1051500087FF7B68064ADA64054B7A689A62C04624
:10516000BD4609B090BDC046002401400010024079
:105170008C0400200800024080B582B000AF786047
:105180007B681B680A4A93420ED10A4B9A6B094B03
:10519000802109060A439A63002201210D2001F0B3
:1051A00093FE0D2001F0A5FEC046BD4602B080BDB5
:1051B000007C00400010024080B582B000AF7860F3
:1051C0007B681B680A4A93420ED10A4B1A6D094B41
:1051D0008021C9020A431A6500220021022001F041
:1051E00073FE022001F085FEC046BD4602B080BDC0
:1051F000002800400010024090B589B000AF7860F0
:105200000C243B19180014231A00002106F053F84F
:105210007B681B68184A934229D1184B5A6B174B6D
:10522000802149010A435A63144BDA6A134B012166
:105230000A43DA62114BDB6A01221340BB60BB6890
:1052400021007B18E0221A607B1802225A607B182A
:1052500000229A607B180322DA607B1800221A6110
:105260007A18A023DB051100180002F043FAC046AB
:10527000BD4609B090BDC04600300140001002405C
:1052800090B589B000AF78600C243B191800142346
:105290001A00002106F00FF87B681B68314A934220
:1052A0005BD1314B5A6B304B8021C9010A435A63A1
:1052B0002D4BDA6A2C4B01210A43DA622A4BDB6A56
:1052C00001221340BB60BB683B19C022D2001A60A8
:1052D00021007B1802225A607B1800229A607B18FA
:1052E0000322DA607B1804221A617A18A023DB05F6
:1052F0001100180002F0FEF91C4B1D4A1A601B4BEE
:1053000003225A60194B00229A60184B0022DA607F
:10531000164B80221A61154B00225A61134B002252
:105320009A61124B2022DA61104B00221A620F4B55
:10533000180001F0FBFD031E01D0FFF791FE7B6812
:105340000A4A1A67094B7A689A62002201211B20D7
:1053500001F0BAFD1B2001F0CCFDC046BD4609B0EE
:1053600090BDC046003801400010024000030020FC
:105370003000024080B582B000AF78607B681B6867
:10538000064A934206D1064B9A6B054B80210901D0
:105390000A439A63C046BD4602B080BD002C00405F
:1053A0000010024080B500AFFEE780B500AFFEE719
:1053B00080B500AFC046BD4680BD80B500AFC046D9
:1053C000BD4680BD80B500AF01F046F8C046BD4681
:1053D00080BD000080B500AF034B180003F026FF2E
:1053E000C046BD4680BDC046FC03002080B500AF6E
:1053F000012002F02FFBC046BD4680BD80B500AF46
:1054000080235B00180002F025FBC046BD4680BD2E
:1054100080B500AF034B180001F0EDFEC046BD465D
:1054200080BDC0468C04002080B500AF034B18003F
:1054300001F0E1FEC046BD4680BDC046000300202D
:1054400080B500AF034B180002F02CFCC046BD46EF
:1054500080BDC046CC03002080B500AF034B1800D0
:1054600004F0F8FCC046BD4680BDC046480300209D
:1054700080B582B000AF78600A00FB1C1A707B68B0
:10548000186F7B68DB6E99B2FB1C1B781A0002F068
:10549000C4FAC046BD4602B080BD000080B582B0EF
:1054A00000AF78607B6801211800FFF7E1FF7B689F
:1054B000986E7B685B6E9BB20022190002F0ADFA19
:1054C000FA239B00180000F0BDFC7B68986E7B6897
:1054D0005B6E9BB20122190002F09FFA034B180089
:1054E00000F0B0FCC046BD4602B080BD70170000A1
:1054F00080B582B000AF78600A00FB1C1A707B6830
:1055000000211800FFF7B4FF7B68586FFA239B0057
:10551000F91C012203F048FFC0467B685B6F18004E
:1055200004F053FA0300012BF7D1C046C046BD4634
:1055300002B080BDB0B586B002AF78600F257B1990
:1055400000221A700E243B1900221A707B68002179
:105550001800FFF78DFF7B68586F3A197919FA2305
:105560009B000093012304F075F83B191B78180089
:10557000BD4604B0B0BDB0B584B000AF78600A00DD
:10558000FB1C1A70FB1C1A787B6811001800FFF7CF
:10559000AFFF0F257C197B681800FFF7CBFF0300D6
:1055A00023707B6801211800FFF762FF7B191B78CD
:1055B0001800BD4604B0B0BD80B582B000AF7860C1
:1055C00008001100FB1C021C1A70BB1C0A1C1A707C
:1055D0007B6800211800FFF74BFFFB1C1B78802223
:1055E00052421343DAB27B6811001800FFF780FFC4
:1055F000BB1C1A787B6811001800FFF779FF7B68E5
:1056000001211800FFF734FFC046BD4602B080BD3F
:10561000B0B586B000AFF86008007A6019000B24BE
:105620003B19021C1A700A203B180A1C1A703B18FE
:105630001B78012B2ED9FB6800211800FFF718FFFB
:105640003B191A78FB6811001800FFF751FF172368
:10565000FB1800221A700FE017257B191B787A6857
:10566000D418FB681800FFF765FF030023707B194F
:105670001A787B1901321A701723FA180A23FB18BB
:1056800012781B789A42E7D3FB6801211800FFF7D4
:10569000EFFE00E0C046BD4606B0B0BD90B587B095
:1056A00000AFF86008007A6019000B243B19021C57
:1056B0001A700A203B180A1C1A703B181B78012B21
:1056C00032D9FB6800211800FFF7D2FE3B191B7886
:1056D000802252421343DAB2FB6811001800FFF730
:1056E00007FF1723FB1800221A700FE017243B193D
:1056F0001B787A68D3181A78FB6811001800FFF736
:10570000F7FE3B191A783B1901321A701723FA1861
:105710000A23FB1812781B789A42E7D3FB68012111
:105720001800FFF7A5FE00E0C046BD4607B090BDDB
:1057300080B582B000AF78607B68180000F048F94F
:105740007B681B681B0CDAB27B6806211800FFF728
:1057500033FF7B681B681B0ADAB27B6807211800DD
:10576000FFF72AFF7B681B68DAB27B680821180004
:10577000FFF722FF7B681B79053BDBB25BB210228F
:10578000524213435BB2DAB27B6809211800FFF77B
:1057900013FF7B6832220B211800FFF70DFF7B6897
:1057A00023220C211800FFF707FF7B689B791B0160
:1057B000DAB27B68DB79DB18DBB2D318DAB27B684C
:1057C0009B7A01210B40DBB2D318DAB27B681D2132
:1057D0001800FFF7F1FE7B685B791B01DAB27B688A
:1057E0005B7A9B00DBB2D318DBB20333DAB27B689F
:1057F0001E211800FFF7E0FE7B68FF221F21180022
:10580000FFF7DAFE7B689B891B0A9BB2DAB27B68E2
:1058100020211800FFF7D0FE7B689B89DAB27B68F5
:1058200021211800FFF7C8FE7B681A7A7B682221C5
:105830001800FFF7C1FE7B689A7B7B68392118004E
:10584000FFF7BAFE7B685D22002199547B684221F4
:105850001800FFF790FE030019007B687822995426
:105860007B689B79092B30D17B6878229B5C122B5B
:105870002BD17B681B68194A934210D97B681B683F
:10588000174A93420BD87B68022236211800FFF793
:1058900093FE7B6864223A211800FFF78DFE7B6837
:1058A0001B68104A934210D97B681B680E4A9342CA
:1058B0000BD87B68032236211800FFF77DFE7B683A
:1058C0007F223A211800FFF777FE7B68180000F06E
:1058D0005FF8C046BD4602B080BDC0462200CD0084
:1058E0002900FF00118066001540830080B582B05A
:1058F00000AF78607B6807229A717B680422DA71B6
:105900007B6801225A727B680D4A1A607B6801220B
:105910009A727B6803221A727B6814221A717B6860
:1059200005229A817B680C225A717B6801229A7346
:105930007B680122DA73C046BD4602B080BDC04616
:105940002440D90082B080B584B000AFF860381D23
:1059500001604260042218218C46BC4462441360FA
:10596000FB683A1D643303CA03C3FB680422182191
:105970008C46BC4462446C3303CA03C3FB687A6A36
:105980005A67C046BD4604B080BC08BC02B0184788
:1059900080B582B000AF78607B681B680B4A934289
:1059A00006D87B68892201211800FFF705FE05E073
:1059B0007B68812201211800FFF7FEFD7B6802222F
:1059C0001A74C046BD4602B080BDC0461540830073
:1059D00080B582B000AF78607B681B680B4A934249
:1059E00006D87B68882201211800FFF7E5FD05E055
:1059F0007B68802201211800FFF7DEFD7B68012211
:105A00001A74C046BD4602B080BDC0461540830032
:105A100080B582B000AF78607B68FF221221180049
:105A2000FFF7CAFDC046BD4602B080BDB0B584B028
:105A300000AF786039607B681800FFF779FE7B68FB
:105A400084224D211800FFF7B7FD7B680022242136
:105A50001800FFF7B1FD7B681800FFF7D9FF7B68DE
:105A60001A7A7B6822211800FFF7A6FD0F257C1902
:105A70007B680F211800FFF77EFD030023707B1960
:105A80001A787B680D211800FFF796FD7B681B686C
:105A90001F4A934206D87B688D2201211800FFF728
:105AA0008BFD05E07B68852201211800FFF784FD4E
:105AB0007B685D22002199540E257C197B68182192
:105AC0001800FFF758FD030023707B191B78042290
:105AD000134004D07B6804221A74012313E03B684E
