:020000040800F2
:1000000000200020FD520008ED490008EF490008DB
:1000100000000000000000000000000000000000E0
:10002000000000000000000000000000F14900088E
:100030000000000000000000F3490008F549000836
:100040004D5300084D530008FD4900084D5300086A
:100050004D5300080D4A00084D530008174A000888
:1000600000000000254A0008354A00084D530008EA
:100070004D530008454A0008000000004D53000899
:10008000000000004D5300080000000000000000C8
:100090004D530008000000004D5300084D53000868
:1000A0004D5300084D5300084D530008554A0008B1
:1000B0004D5300084D5300080000000000000000F0
:1000C00010B5064C2378002B07D1054B002B02D02E
:1000D000044800E000BF0123237010BD040200208B
:1000E0000000000000AF0008044B10B5002B03D047
:1000F0000349044800E000BF10BDC04600000000F6
:100100000802002000AF00080023C25C0133002A6F
:10011000FBD1581E7047000002B4714649084900DF
:10012000095C49008E4402BC7047C04603B4714666
:10013000490840004900095E49008E4403BC7047ED
:10014000002243088B4274D303098B425FD3030A16
:100150008B4244D3030B8B4228D3030C8B420DD329
:10016000FF22090212BA030C8B4202D312120902B7
:1001700065D0030B8B4219D300E0090AC30B8B42F5
:1001800001D3CB03C01A5241830B8B4201D38B03A3
:10019000C01A5241430B8B4201D34B03C01A524148
:1001A000030B8B4201D30B03C01A5241C30A8B428B
:1001B00001D3CB02C01A5241830A8B4201D38B0276
:1001C000C01A5241430A8B4201D34B02C01A52411A
:1001D000030A8B4201D30B02C01A5241CDD2C3098C
:1001E0008B4201D3CB01C01A524183098B4201D308
:1001F0008B01C01A524143098B4201D34B01C01AF3
:10020000524103098B4201D30B01C01A5241C3086A
:100210008B4201D3CB00C01A524183088B4201D3D9
:100220008B00C01A524143088B4201D34B00C01AC5
:100230005241411A00D20146524110467047FFE731
:1002400001B5002000F0F0F802BDC0460029F7D04B
:1002500076E7704703460B437FD4002243088B4266
:1002600074D303098B425FD3030A8B4244D3030B3D
:100270008B4228D3030C8B420DD3FF22090212BA02
:10028000030C8B4202D31212090265D0030B8B427E
:1002900019D300E0090AC30B8B4201D3CB03C01A68
:1002A0005241830B8B4201D38B03C01A5241430B43
:1002B0008B4201D34B03C01A5241030B8B4201D333
:1002C0000B03C01A5241C30A8B4201D3CB02C01A9E
:1002D0005241830A8B4201D38B02C01A5241430A16
:1002E0008B4201D34B02C01A5241030A8B4201D305
:1002F0000B02C01A5241CDD2C3098B4201D3CB01AC
:10030000C01A524183098B4201D38B01C01A52415A
:1003100043098B4201D34B01C01A524103098B425E
:1003200001D30B01C01A5241C3088B4201D3CB0049
:10033000C01A524183088B4201D38B00C01A52412C
:1003400043088B4201D34B00C01A5241411A00D2DC
:1003500001465241104670475DE0CA0F00D0494245
:10036000031000D34042534000229C4603098B42B5
:100370002DD3030A8B4212D3FC22890112BA030A3D
:100380008B420CD3890192118B4208D389019211BF
:100390008B4204D389013AD0921100E08909C30944
:1003A0008B4201D3CB01C01A524183098B4201D346
:1003B0008B01C01A524143098B4201D34B01C01A31
:1003C000524103098B4201D30B01C01A5241C308A9
:1003D0008B4201D3CB00C01A524183088B4201D318
:1003E0008B00C01A5241D9D243088B4201D34B0033
:1003F000C01A5241411A00D20146634652415B1075
:10040000104601D34042002B00D549427047634655
:100410005B1000D3404201B5002000F005F802BD9A
:100420000029F8D016E770477047C0468446101C74
:1004300062468C46191C634600E0C0461FB501F0B9
:100440003DFF002801D40021C8421FBD10B501F0B6
:1004500087FE4042013010BD10B501F02FFF00288B
:1004600001DB002010BD012010BDC04610B501F019
:1004700025FF002801DD002010BD012010BDC04671
:1004800010B501F0A9FE002801DC002010BD0120FC
:1004900010BDC04610B501F09FFE002801DA002013
:1004A00010BD012010BDC0468446081C6146FFE710
:1004B0001FB500F07BFC002801D40021C8421FBDFD
:1004C00010B500F0FFFB4042013010BD10B500F048
:1004D0006DFC002801DB002010BD012010BDC046CE
:1004E00010B500F063FC002801DD002010BD0120E4
:1004F00010BDC04610B500F00DFC002801DC002046
:1005000010BD012010BDC04610B500F003FC00284E
:1005100001DA002010BD012010BDC046002B11D112
:10052000002A0FD1002900D1002802D00021C943A0
:10053000081C07B4024802A14018029003BDC0463F
:10054000E9FEFFFF03B4684601B5029800F046F8E3
:10055000019B9E4602B00CBC7047C046F0B5150426
:100560002D0C0F0001002E00C64684460004140C1A
:10057000000C090C46434D43604361434019340C61
:10058000241800B5A54203D980204002804641448A
:10059000250C6D18614659437A43300449192404E7
:1005A000000C2018891880BCB846F0BD9E2110B5FB
:1005B000C905041CFFF7A8FF002803D1201C00F088
:1005C00021FF10BD9E21201CC90500F053FD00F045
:1005D00019FF80231B069C466044F2E7F0B557469E
:1005E0004E464546DE46E0B504000D00924699466B
:1005F00083B08B4230D82DD04946504602F064FE7D
:1006000029000600200002F05FFE331A9846203BC6
:100610009B4633D45A465346934042461F005346A6
:1006200093401E00AF423AD8AF4200D178E05B461B
:10063000A41BBD41002B00DA75E0002200230092CC
:10064000019301235A46934001930123424693406C
:10065000009328E08242CFD9002200230092019328
:100660000C9B002B01D01C605D600098019903B0C9
:10067000F0BCBB46B246A946A046F0BD4246202388
:100680009B1A5246DA40414613004A468A401700F8
:1006900042461F43534693401E00AF42C4D9002236
:1006A0000023009201934346002BD9D0FB07720828
:1006B0001A4346467B080EE0AB4201D1A2420CD859
:1006C000A41A9D41012024196D410021013E2418E6
:1006D0004D41002E06D0AB42EED9013E24196D41AA
:1006E000002EF8D1009801995B4600196941002B52
:1006F00024DB2B005A464446D3402A00E2401C002B
:100700005B461500002B2ADB26009E4033002600A6
:100710004746BE403200801A9941009001919FE700
:10072000A342BCD883E74246202300219B1A002223
:10073000009101920122DA40019286E7424620238D
:100740009B1A2A0046469A402300F340444613432E
:100750002A00E2401C005B461500002BD4DA42461A
:100760002F002023260097409B1ADE403B00334396
:10077000CDE7C046F0B54646D6464F464D0242024A
:10078000C0B5520A6E0A4700B0463F0E4E00C40F75
:10079000D00094463B008246360EC90FAD098C420C
:1007A0006DD0B81B814600284DDD002E00D188E0B9
:1007B000FF2F5AD08023DB041D434B4601221B2B05
:1007C0000ADC2B004A464946D3402022521A954063
:1007D0002A00551EAA411A4353469A1A530100D4BF
:1007E000B9E092019609300002F050FD05388640CC
:1007F000874200DDD4E03300C71B20200137FB40D7
:10080000C71BBE403200561EB24100271A43530791
:1008100004D00F231340042B00D00432530100D422
:100820009CE07B1CFE2F00D19AE09201520A944674
:10083000DBB2D8056346E40718432043E0BCBA4660
:10084000B146A846F0BD002849D0F31B002F00D0C8
:10085000B6E05246002A60D0013B002B00D1FCE0FC
:10086000FF2E00D0B4E00C004246002A78D0802051
:10087000C00310434202530A9C46FF23D9E7B91B29
:10088000002971DD002E3FD0FF2FEED08023DB0446
:100890001D4301221B2907DC2A002023CA40591AC4
:1008A0008D406B1E9D412A435244530153D501375D
:1008B000FF2F55D001237B49134052080A401A43A9
:1008C000A5E7002D2CD001235B429C46E1444B461A
:1008D000002B00D1ADE0FF2F00D06EE7C5E7FE2072
:1008E0007E1C304260D1002F00D093E05246002A97
:1008F00000D1B6E0002D9CD0521B500100D4C3E0C3
:1009000053460C00EA1A82E7002D09D0013900296C
:1009100000D18BE0FF2FBCD1A7E70C004246370087
:10092000FF2FA2D05202530A9C46FBB281E7FE2160
:100930000137394265D1002B7ED1002800D1AAE0D1
:10094000002D00D175E72A0052440027530102D53B
:10095000554B01371A40530700D05AE7D208DFE75A
:100960000022FF23944664E70029E0D0F31B002F08
:100970003ED0FF2E00D177E780220100D204114340
:100980008A4601221B2B08DC524620215046DA40C1
:10099000CB1A9840431E984102433700521984E70E
:1009A000414A3F1A324032E753465E1B73012DD451
:1009B000002E00D017E7002200240023944638E7D9
:1009C000FF2E00D14FE780225046D20410438246CA
:1009D00001221B2B08DC524620245046DA40E31A41
:1009E0009840431E984102430C003700AA1AF5E6CE
:1009F000002893D0013B002B4FD0FF2EC1D142469F
:100A000033E7FF2FACD055446A08A4E753460C00E7
:100A1000EE1AE8E65346002B28D1002D00D022E73D
:100A20008023DB039C460024FF2302E72A00524474
:100A30003BE753465A1BD1E6002800D114E7002DAE
:100A400000D112E78023DB031A4200D10DE74146B3
:100A5000194200D009E7424607E70C003700AA1AFE
:100A6000BCE6002D13D00C00C446E2E6002D00D1F8
:100A7000FBE68023DB031A4200D1F6E6404618422B
:100A800000D0F2E60C00EFE6002A00D063E7002277
:100A900000249446CDE6C446CBE62A0037005244F3
:100AA00003E7C046FFFFFF7DFFFFFFFBF0B54F46AA
:100AB0004646D6464502C0B547000C1C6D0A3F0E9F
:100AC000C60F002F66D0FF2F6CD00023EA008025D0
:100AD00099469A46ED0415437F3F60026100430A40
:100AE0009846090EE40F002948D0FF2910D0802233
:100AF000D800D2040243904600207F394A46330092
:100B00007F1A02436C4992008A586340DBB29746D1
:100B1000002B6DD10220FF3F33E0002398462600D2
:100B2000454682465346022B00D17FE0032B00D17D
:100B300094E0012B17D038007F3000285FDD6B0771
:100B400004D00F232B40042B00D004352B0103D5F8
:100B500038005A4B80301D40FE2867DCAD016D0A1D
:100B6000C0B202E01E0000200025C0052843F607A1
:100B70003043E0BCBA46B146A846F0BD002B2BD1AD
:100B800001204A4633004E49024392008A5863408E
:100B9000DBB29746002D13D104239946033B00276F
:100BA0009A469AE7002D05D108239946063BFF2770
:100BB0009A4692E70C239946093BFF279A468CE711
:100BC000280002F063FB7627431F9D4000237F42ED
:100BD00099469A463F1A80E7180002F057FB4246B2
:100BE000431F76219A404942091A9046002085E722
:100BF000FF21032082E71E00FF200025B5E7012327
:100C00001B1A1B2BAFDC9E372900BD40D9406A1E42
:100C100095410D436B0704D00F232B40042B00D0CC
:100C200004356B0144D5012000259EE7FF200025F7
:100C30009BE780250026FF20ED0396E700239846DA
:100C40008020C003054209D04346034206D14546F1
:100C500005436D022600FF206D0A86E78020C00351
:100C600005436D02FF206D0A7FE741466A01480196
:100C7000824219D21B210025013F012614006D007C
:100C80005200002C01DB904201D8121A3543013981
:100C90000029F3D1501E824138007F301E001543D9
:100CA000002800DD4BE7AAE71A210125121AE4E724
:100CB000AD0100206D0A58E718AF0008FFFFFFF7ED
:100CC00058AF000870B542004E024C0045026D0A54
:100CD000120EC30F760A240EC90FFF2A0FD0FF2C65
:100CE00011D00120A24200D070BDB542FCD18B4290
:100CF0000DD0002AF8D12800451EA841F4E70120B4
:100D0000002DF1D1EBE70120002EEDD1E9E7002025
:100D1000EAE7C046F0B5420046024D024C00C30F60
:100D2000760A120E6D0A240EC80FFF2A1FD0FF2C60
:100D300010D0002A1FD171427141002C01D1002D29
:100D40001ED000290ED183421ED00221581E084019
:100D50000138F0BD002D26D1002AF4D17142714135
:100D60000029F0D00028F4D101204042F1E7002E04
:100D700019D1FF2CEED0002CE5D1002DE3D1E4E712
:100D80000020002EE5D0E0E7A24205DCEADBAE421F
:100D900002D8E7D30020DCE741424141484202212A
:100DA00008400138D5E702204042D2E7F0B54200C2
:100DB00046024D024C00C30F760A120E6D0A240E35
:100DC000C80FFF2A0DD0FF2C0FD0002A23D171426B
:100DD0007141002C0FD1002D0DD10020002E14D018
:100DE0000DE0002E10D1FF2C15D1002D0CD1002AC2
:100DF00003D171427141002908D1834210D00221F0
:100E0000581E0840013800E00220F0BD0028FCD147
:100E100001204042F9E7002CEFD1002DEDD1EEE7A3
:100E2000A24205DCF2DBAE4202D8EFD30020ECE7B1
:100E3000414241414842022108400138E5E7C046AD
:100E4000F8B557464E464546DE464402E0B54500F5
:100E50000F1C640A2D0EC60F002D47D0FF2D4DD05C
:100E6000002380209A469B46E400C00404437F3D53
:100E70007802430A99467A00FB0F9846120E4B46B9
:100E800044D0FF2A11D0D8008023DB0403439946C5
:100E900000207F3AAD18474653467740691C0F2B18
:100EA0003FD8724A9B00D3589F46FF35002B00D095
:100EB00079E0524602231A4392460220EBE7474666
:100EC0004C4683465B46022B28D0032B00D1C6E05C
:100ED000012B4FD100200024C005FF0720433843D9
:100EE000F0BCBB46B246A946A046F8BD002C71D165
:100EF00004239A46033B00259B46B9E7002C63D1A7
:100F000008239A46063BFF259B46B1E7002B50D1AC
:100F1000524601331A4392460120BCE7FF200024C9
:100F2000DAE74846260C2404220C0404240C4B4621
:100F300020001B0C504374435A435E431219030CA8
:100F40009B189C4203D980225202944666440004B6
:100F50001A04000C12189401601E84411B0C920E9E
:100F60009B1914439B011C431B0172D5012063088C
:100F700004401C4308007F3000283CDD630704D098
:100F80000F232340042B00D00434230103D58031E8
:100F90000800374B1C40FE28C0DCA401640AC0B224
:100FA0009AE737008EE7524603231A4392460320FE
:100FB00071E7484602F06AF94A46431F9A402D1AE3
:100FC00091460020763D66E70C239A46093BFF25B3
:100FD0009B464DE7200002F059F97625431F9C40BF
:100FE00000236D429A469B462D1A41E78024002734
:100FF000FF20E40370E701231B1A1B2B00DD69E7C8
:101000009E3120008C40D840631E9C4104436307FE
:1010100004D00F232340042B00D0043463011AD5DD
:101020000120002458E78020C003044209D04B4629
:10103000034206D14C46044364024746FF20640A3B
:101040004AE78020C003044364023700FF20640A9B
:1010500042E729008EE7A4010020640A3CE78020D3
:10106000C00304436402FF20640A35E798AF000818
:10107000FFFFFFF7F0B54646D6464F4643025B0AF0
:10108000DA0094464A02C0B54400560A051CB04630
:10109000240E4E0092091F0020009246ED0F360EDE
:1010A000C90FFF2E00D17FE0012251408D4251D067
:1010B000A21B9146002A00DC7EE0002E00D199E0C0
:1010C000FF2C00D18CE080235246DB041A43924669
:1010D0004A4601231B2A08DC53462021D340891AA3
:1010E00052468A40511E8A4113436246D31A5A011E
:1010F00000D4F3E09B019E09300002F0C7F80538E8
:101100008640844200DDF7E03200041B20200134D9
:10111000E240041BA64033005E1EB341002413438B
:101120005A0704D00F221A40042A00D004335A016F
:1011300000D4D6E0621CFE2C00D1DAE09B015F0AED
:10114000D0B2C0053843ED072843E0BCBA46B146EB
:10115000A846F0BDA21B9146002A63DD002E00D1F7
:1011600099E0FF2C3CD080235246DB041A43924680
:101170004A4601231B2A08DC53462021D340891A02
:1011800052468A40511E8A41134363445A0100D497
:10119000A4E00134FF2C00D1ABE0012297491A40B2
:1011A0005B080B401343BBE7002A32D08D4235D099
:1011B000FF2252429146A1444A46002A51D0301B98
:1011C000002C00D09CE06346002B00D1DFE001380A
:1011D000002800D1F7E0FF2E00D099E00D00434633
:1011E000002B00D185E08027FF031F437F02FF20F3
:1011F0007F0AA6E75246002A74D001225242904646
:10120000C1444A46002A00D1C8E0FF2C00D05FE765
:10121000E6E701225140A94200D049E7FF225242AD
:101220009146A1444A46002A43D0311B002C00D1EC
:101230008CE0FF2E00D192E080236246DB041A434B
:10124000944601231B2909DC202063466246CB40DB
:10125000411A8A401100481E81410B433400534417
:1012600094E7FE22661C324264D1002C00D082E05A
:101270006346002B00D1ABE05346002B00D160E762
:10128000634652469B1A5A0100D4AAE0634652466E
:101290000D00D31A44E75246002A23D001225242BD
:1012A0009046C1444A46002A75D0FF2C00D05FE723
:1012B00096E7FE260134264253D1002872D16346B8
:1012C000002B00D193E05346002B00D139E7634453
:1012D00000245A0102D54A4A013413405A0700D06B
:1012E00020E7DB08FF2C00D17AE75B025F0AE0B25F
:1012F00027E7FF20002724E7414B241A33400FE75C
:10130000FF2E00D16AE780236246DB041A4394462D
:1013100001231B2809DC202463466246C340201AAF
:1013200082401000441EA041034352460D00340089
:10133000D31ADCE6634652469E1A730117D4002E78
:1013400000D0D9E6002500200027FAE66346002BEE
:1013500044D0013900294CD0FF2E00D071E743461C
:101360003EE7FF2CC5D0524662445308B6E76346B9
:101370000D00D61AC0E66246002A16D15346002B4D
:1013800000D02BE780270025FF20FF03D9E60D00C2
:1013900043463400A6E753466344F7E663465246A5
:1013A0009B1AA4E66246002AD9D05246002A00D1F0
:1013B00016E78022D203134200D111E740461042C3
:1013C00000D00DE70AE752460D003400D31A8EE62E
:1013D0005346002B08D00D004746B2E64346340082
:1013E00080E7002B00D079E700250027A9E64746D3
:1013F000A7E6534634006344C8E6C046FFFFFF7DBE
:10140000FFFFFFFB41024200C30F490A0020120EFA
:101410007E2A03D99D2A02D9094A9818704780204C
:1014200000040143952A07DC9620821AD1404842E5
:10143000002BF3D10800F1E7963A9140F7E7C04658
:10144000FFFFFF7F70B5051E0ED001F01FFF9E232A
:1014500004001B1A962B0CDC082801DD083CA54073
:101460006D026D0AD8B201E000200025C0052843B6
:1014700070BD992B09DD020029001B3291404A1EE4
:1014800091410522121AD5400D43052C01DD621F42
:1014900095402900084E31406A0709D00F202840A6
:1014A000042805D004314A0102D59F2331401B1B7B
:1014B00089014D0AD8B2D9E7FFFFFFFBF0B54F46CF
:1014C000D64646460D0001001800C0B517002B0394
:1014D0005A0A4B0F1343CA00914602036E004100A3
:1014E000520AEC0F7D0F1543760D490DC00F824651
:1014F000AC46FF00721A844200D198E0002A00DC5A
:1015000081E0002900D1B6E0C9498E4200D172E1E4
:1015100080212800090408438446382A00DD5EE162
:101520001F2A00DDEEE1202039006546801A874041
:10153000D14085400D4339004F1EB9416746D74021
:101540002943DB1B4A46551AA945894149425B1A82
:10155000984643461B0200D4CCE043465B025B0A3C
:1015600098464346002B00D12CE1404601F08EFE08
:1015700001000839202228004346521A8B40D040EF
:101580008D4003438E4200DD17E18E1B721C1F2A23
:1015900000DDA7E1202118002E00891A8D40884027
:1015A000D640D340691E8D413043984600260543FE
:1015B0006B0709D00F232B40042B05D02B1DAB420A
:1015C000AD416D42A8441D0043461B0200D494E087
:1015D000974B721C9A4200D19DE04146954BED0815
:1015E00019400B00520549075B0229431B0B520DA2
:1015F00012051343E407234308001900E0BCBA4670
:10160000B146A846F0BD002A43D08A1B002E00D068
:101610002AE14C461C4300D1D1E1541E012A00D1DD
:101620001FE2834DAA4200D172E2220023E1002A88
:1016300000DC98E0002942D07D498E4200D1DAE0FA
:1016400080212800090408438446382A00DD29E166
:101650001F2A00DC87E1110065462039CD40202A91
:1016600004D040206146821A91400F4339004F1E3A
:10167000B9410D431BE12900394300D1B5E0511EAA
:10168000012A00D1ABE16A48824200D1B2E10A00EE
:1016900043E76949751C0D4200D0CFE0002E00D011
:1016A00093E14946194300D1D1E16146394300D065
:1016B000E3E149465807C9080143DB0826E0290051
:1016C000394300D191E0511E012A05D05848824289
:1016D00000D18FE10A00B8E73D004D444D458941F6
:1016E0006344984649428844434602261B0200D57B
:1016F000EBE0013E6B0700D05CE74346E9085A0780
:1017000011433200DB084A48824221D01B035205B4
:101710001B0B520D6CE70023002169E72A003A43B6
:1017200069D04A465807D108DA0880231B030843CA
:101730001A4207D02900ED081D4203D12A00FF08F4
:1017400048073843430FC1005B07C908194313001A
:101750000A001A4300D113E28022120313431B0331
:10176000334A1B0B44E7002A4BD08A1B002E00D1C2
:10177000E7E02F48814200D195E180200004034337
:10178000382A00DD43E11F2A00DDDBE120201D00B7
:101790004E46801A8540D64035434E46864030003E
:1017A000D340461EB0419C440543ED19BD429B41C8
:1017B0005B42634498460E007FE01E4A761A13404F
:1017C0009846F5E6280001F061FD010018311F2957
:1017D00000DCCFE62B00083883400025D2E66246C5
:1017E0003A4311004F1EB941ACE649465807C908B3
:1017F0000143DB0887E749465A07C9081143DB085C
:10180000A6E70D49701C084200D0BBE0002E00D0B6
:1018100014E14946194300D175E12900394300D04C
:101820007EE149465807C9080143DB086EE7C04618
:10183000FF070000FFFF7FFFFE0700004946CD1BAA
:101840006146581AA94589414942884601004046E7
:10185000091A8846090200D5A6E04146294300D06E
:101860007FE60023002451E7C74CA14200D1C7E026
:10187000802424042343382A54DC1F2A00DDCCE0D2
:1018800020244846A41A1D004E46A040D640A5403C
:101890000400D34062463543661EB441D31A9C46C9
:1018A000254344E062463A4315006F1EBD414D4456
:1018B0004D45894149428846984443461B0200D41D
:1018C00018E7B14B01369E4249D04246AF4B012149
:1018D0001A4013006A080D401543D9075B08984663
:1018E0000D4365E618001F3EF040202A03D040213A
:1018F0008A1A93401D43691E8D4100230026984695
:101900000543F7E6110065462039CD40202A04D072
:1019100040206146821A91400F4339004F1EB94161
:1019200029430FE64A4613431D006B1E9D417D1B54
:10193000AF429B4162465B42D31A984654460E0022
:1019400007E64846184300D1B3E0501E012A00D1F3
:101950000DE18D4DAA4200D1A5E0020010E7320052
:101960000023002144E620213800891A65468F4073
:101970008D40D040791E8F4105433D436746D74097
:10198000DB1994E7804A904200D1ECE039004944E9
:1019900049459241634452429B18DD0749085B0860
:1019A000984606000D43A5E64A46BD1AAF42894156
:1019B00062464942D31A5B1A98465446D1E56C07F1
:1019C000F9082143EB0804009DE64A461A4375D105
:1019D0006146394314D1802300241B03BCE64A46E8
:1019E000D51BA9458941624649429B1A5B1A984614
:1019F0000126AEE54A46D1085A071143DB08A7E69F
:101A00006346F9085A0754461143DB08A0E64A46E4
:101A100013431D006B1E9D41C7E614001E00203CB1
:101A2000E640202A05D04024A21A93404A461A4391
:101A300091464D466B1E9D41354378E74A461A4311
:101A400000D06BE66B07F9081943EB0880E66146A6
:101A5000394354D06346F9085C072143DB0804008E
:101A600054E64A46BD1AAF42894162464942D31AFA
:101A70005B1A9846040001266BE54A46D51BA9452A
:101A80008941624649429A1A521A9046120232D548
:101A90004A46BD1AAF42894162464942D31A5B1A8F
:101AA0009846040084E56346F9085A071143DB08A9
:101AB0004EE6F90868070143EB0824E662463A431C
:101AC00000D198E64A46D1085A071143DA08802324
:101AD0001B031A4208D06046C5081D4204D1544673
:101AE0002A00F908430719434B0FC9005B07C908CF
:101AF000194313002CE64146294300D0FAE50023A0
:101B00000A00002402E66B07F9081943EB08FDE51B
:101B10006346F9085B07194363460400DB0817E6D0
:101B20003D004D4463444D458941984649428844AF
:101B300043461B0200D4DDE54246144B01261A4001
:101B40009046D7E510001E002038C640202A05D058
:101B50004020821A93404A461A4391464D466B1ED6
:101B60009D41354321E602000023002140E54A461D
:101B7000D519BD4289416344984649428844B3E53A
:101B80000021014A0B0033E5FF070000FFFF7FFF44
:101B9000F0B557464E464546DE46E0B5814605005F
:101BA0000C03480092461F0085B0240B400DCE0F59
:101BB000002859D0874B984200D198E06B0FE40081
:101BC0001C4380231B0423439846834BED009B4614
:101BD00000239946834400933C037B005046240B2A
:101BE0005B0DFF0F002B67D07A4A934218D07A49D9
:101BF000420F8C46E4005946144380226344120489
:101C0000CB1A14439B46C200002033007B409A4607
:101C10004B460F2B00D9EFE070499B00CB589F46F5
:101C20006F4B52469C462243E344002A00D095E085
:101C3000494602231943894600240220E5E7002390
:101C40000024002552461B052343D20713432800D6
:101C5000190005B0F0BCBB46B246A946A046F0BD8F
:101C6000002400255B4BEDE74B462343984600D10B
:101C700089E0002C00D1E0E1200001F007FB010029
:101C800002000B391D235B1A49461000D940083861
:101C900084400B004D4623439846854051483C0301
:101CA000831A9B460023994600937B005046240BE1
:101CB0005B0DFF0F002B97D15246224355D0002CCD
:101CC00000D1CAE1200001F0E1FA02000B3A1D2325
:101CD00001009B1A52460839DA408C4014435246A0
:101CE0008A40414B58449B46834400208DE74B4635
:101CF0002343984640D108239946063B0025834656
:101D0000009369E7B246009B022BA9D0032B00D1B8
:101D100011E2012B93D0354A5A44002A00DC3CE101
:101D20006B0700D0A7E1ED084346DB0106D542462C
:101D30002F4B1A4090468022D2005A442D4B9A4293
:101D40008EDC4346520558075C020543240B530DB5
:101D500078E7BA46A04615000090D4E74A46032328
:101D60001A439146032052464FE74946012319433F
:101D700089460024012048E70C239946093BA046E8
:101D80008346009328E70423994600239B460133AA
:101D90000025009320E7002380249A4600250D4B60
:101DA00024034FE7802341461B03194208D01C42FD
:101DB00006D11C432403BA461500064B240B41E709
:101DC0008024434624031C432403B246014B240BC6
:101DD00038E7C046FF07000001FCFFFFD8AF00084E
:101DE00001F8FFFF0DFCFFFFF3030000FF030000FD
:101DF000FFFFFFFEFE070000444500D216E100D1C0
:101E000011E101235B429C462E0040460025E3443D
:101E10002302140E1C431B0C994623041F0C1202B0
:101E2000494600920197FEF711FA02007A430B042B
:101E3000310C804619438A420BD901235B429C46F0
:101E40000919E0448C4204D88A4202D9831E98467C
:101E50000919881A4946FEF7F9F909048C46310434
:101E60006646019A090C4243030031438A4204D971
:101E70000919013B8C4200D811E1891A4246009EA3
:101E800012041A43330C1F00100C904602931304E3
:101E90003204160C32001B0C5A4303967B43464314
:101EA0007843170CBC469B1963449E4203D9802695
:101EB0007602B44660441E0C301816041B04360C1F
:101EC0009E19814200D29CE000D197E0AE1B091A16
:101ED000B54280414042081A844200D111E149468E
:101EE000FEF7B4F9019A0B044243310C0500194383
:101EF0008A4207D90919013D8C4203D88A4201D987
:101F0000851E0919881A4946FEF7A0F909048C466E
:101F100031046646019A090C4243030031438A4268
:101F200007D90919013B8C4203D88A4201D9831E83
:101F30000919039E891A32002D041D43029F2B04A8
:101F40001B0C5A437B439C46280C4643130CB44459
:101F5000634478439E4203D980267602B4466044A7
:101F60001E0C12041B04120C30189B18814206D35D
:101F700002D001231D43CEE6002B00D1CBE6611831
:101F80006E1EA14200D2A4E0814200D2C9E000D17D
:101F9000D9E03500EDE701256D420121891A382984
:101FA00000DD4CE61F2900DC7FE01F235B429A1A0C
:101FB0004346D340202904D04446654A5A449440BD
:101FC00025436A1E954107222B43150000241D401E
:101FD0001A4200D1A1E00F2200241A40042A00D1A5
:101FE00098E01A1D9A429B415B42E41813002202BA
:101FF00000D48FE001230024002523E6B54200D35E
:1020000064E743465A1E009B9C4665441F009D4260
:102010009B415B421B19C9188C423AD2884263D853
:1020200060D0904652E7AA4200D9EAE64346DE076E
:1020300058086B081E43ED07EAE6484601F026F90A
:1020400001000200153120321C2900DC1AE64B4643
:10205000083883400025984620E601F017F9030070
:102060001A00153220301C2A00DC30E65446083BAA
:1020700000229C4035E60F232B40042B00D152E672
:1020800005235B42AB429B4104355B42ED0898441B
:102090004AE68C42C5D1AF42C0D9904616E78A4283
:1020A00000D8EAE6831E0919E7E62A4A28005A44BE
:1020B000434695409340C8406A1E954144460343B9
:1020C0002B43CC405A0792D00F221A40042A88D1C1
:1020D0008DE73500814200D04BE7009A934200D053
:1020E00047E718E6AE429CD902235B429C46009B20
:1020F000E0449C4665449D429B415B421B19C918C4
:10210000E4E6154A5A44002A00DC44E7012300258E
:10211000984409E665076402240BDB081D4300238D
:1021200090E5009E023D7200B242BF417F423C19E1
:1021300009190092CEE78024434624031C4324035C
:10214000064B240B7EE5009A9A42EAD33500C4E799
:102150003E0400001E040000FF030000FF07000013
:10216000F0B54F464646D646944691461A03120BA2
:10217000184DC0B54C000F0392465A000600804629
:102180003F0B0120640DC90F520DDB0FAC420AD08A
:10219000AA4203D0944201D157450DD0E0BCBA46C3
:1021A000B146A846F0BD3D003543F7D1A242F5D176
:1021B000524665462A43F1D10120C845EED19942E5
:1021C00006D0002CEAD13E433000461EB041E5E780
:1021D0000020E3E7FF070000F0B54E4645465746AE
:1021E000DE4604001800E0B516001B031B0B324D41
:1021F0000F034A0099464300A446B0463F0B520DD8
:10220000C90F5B0DC00FAA4229D0AB4218D0002ADB
:102210002AD13C43A34665426541002B02D14C467E
:10222000264327D0002D15D1814228D00220013924
:1022300008400138F0BCBB46B246A946A046F0BDF6
:102240004D462E432FD1002AEED13C4365426541D5
:10225000002DE9D00028EDD101204042EAE73D0001
:10226000254320D19342EBD0002BDDD14C462643B1
:10227000DAD1DBE75B460020002BDBD0D6E79A42C1
:102280000ADCE7DB4F45D1D810D000204F45D1D232
:102290000029E1D00800CDE74342584102234042E3
:1022A00018400138C6E702204042C3E7C445BDD804
:1022B0000020C445BED2EBE7FF070000F0B54E4654
:1022C00045465746DE4604001800E0B516001B03DD
:1022D0001B0B314D0F034A0099464300A446B046FC
:1022E0003F0B520DC90F5B0DC00FAA4211D0AB427C
:1022F00014D0002A2FD13C43A34665426541002BF0
:1023000014D14C46264311D15B460020002B17D038
:1023100010E03D00254312D193421CD14D462E437F
:102320000DD1002A04D13C4365426541002D0DD1F9
:10233000814216D0022001390840013800E0022015
:10234000F0BCBB46B246A946A046F0BD0028F7D176
:1023500001204042F4E7002BEAD14C462643E7D166
:10236000E8E79A4206DD43425841022340421840C2
:102370000138E5E79A42E9DB4F45DBD806D000207B
:102380004F45DDD20029E3D00800D9E7C445D1D8B4
:102390000020C445D4D2F5E7FF070000F0B557464A
:1023A0004E464546DE46E0B598460C034B00060017
:1023B000924687B0240B5B0DCF0F002B6CD0DD4A0B
:1023C000934200D186E0420FE400144380221204BD
:1023D0001443D94AC50094466344009300239946A8
:1023E0009B46434642461E03D20F5B005046904632
:1023F000360B5B0D00D178E0CE4A93421DD0CE491A
:10240000420F8C4600996344F6008C4616438022A6
:102410009C44120463461643C200002000930099B6
:10242000434601318C4649467B4001930F2900D930
:102430007EE0C24B890059588F465246009B32437A
:1024400000D056E1BB4900268C46634449460093C0
:102450000223194389460220E1E7434601933400F1
:10246000150083465B46022B5ED0032B00D1F3E1BF
:10247000012B00D018E1002200240025019B120549
:102480002243DB071A432800110007B0F0BCBB460B
:10249000B246A946A046F0BD2500054300D141E162
:1024A000002C00D1ADE1200000F0F0FE01000200A0
:1024B0000B391D2310005B1A3100350008388440A9
:1024C000D94085400C439E48831A009300239946C7
:1024D0009B4686E70500254300D01CE108220093B7
:1024E0000223002491469B467BE75246324300D1AB
:1024F0000AE1002E00D176E1300000F0C7FE0200B4
:102500000B3A1D2301009B1A52460839DA408E40CF
:10251000164352468A40009B8949181A03008C468C
:102520006344002000937AE700240025814AA5E750
:102530002F0C2D042D0C2B00110C1204120C5343E4
:102540009846130028007B439946484348448346F5
:1025500040460B00000C824658467B435044029391
:10256000814506D99A4680235B029946CA44534660
:102570000293030C9B4643461B0400041B0C984625
:10258000030043440493330C99462B003604360C65
:102590007343984633007B439A464B465D435F4303
:1025A00043465544180C4019824503D980235B02E9
:1025B0009A465744050CEB19059343461D042D0C10
:1025C00000044019250C2404240C270057436A43B7
:1025D00090462A003B0C9A464A4361434144514489
:1025E0008344884503D980235B02984642443F04D4
:1025F0000B0C3F0C0904C919270098464B4677433A
:102600005C436E435D433B0C9946A4194C444244E1
:102610000395A64204D980235B029846454403955E
:10262000029B3F045B441E00834280412304984682
:10263000059B3F0C4744984676188E428941474493
:1026400040423D18A846934649428A46C3449F42A9
:10265000BF4180458041039BDA449846534640423F
:102660007F420743240C934592418A4589413F1993
:10267000DC0D049B75021D43681E85415346524282
:1026800049420A43BF184744F60D7F0235435A02B8
:102690003C431543FB0100D4C1E001216A080D4011
:1026A0001543E2071543640826496144002956DDB5
:1026B0006B0709D00F222A40042A05D02A1DAA42FE
:1026C000AD416D4264191500E30104D580211E4A15
:1026D000C900144061441D4A914200DD24E76207AD
:1026E000ED08640249051543240B4A0DC6E601971F
:1026F000B8E6104A0320944663444A4600930323F5
:102700001A43914652468AE64946012319438946AF
:102710000026012083E60C22009303230500914646
:102720009B465EE604239946002300930133002470
:102730009B4656E6FF07000001FCFFFF18B00008AB
:102740000DFCFFFFFF030000FFFFFFFEFE07000080
:10275000002380240025444A019324038EE60120AF
:10276000401A382800DD86E61F285BDD1F22230083
:102770005242511ACB401900202803D03B4A6244F0
:10278000944025436A1E95412A000A4307210D0003
:102790000024154011425BD00F2100241140042970
:1027A00053D0111D914292415242A4180A002302B3
:1027B0004BD501220024002560E680231B031C4228
:1027C00009D01E4207D133431C0343461500240B96
:1027D000254A019352E68022120314432403224A1D
:1027E000240B01974AE600F051FD03001A00153250
:1027F00020301C2A00DC84E65646083B00229E401E
:1028000089E600F043FD01000200153120321C2949
:1028100000DC4EE6340008380025844053E6009B77
:102820009C4641E71249220061442E008D408A40B7
:10283000C640691E8D4132432A43C4405307B6D077
:102840000F2111400429ACD1B1E765076402240BC4
:10285000D2081543002211E68022120314432403F8
:10286000014A240B0AE6C046FF0700003E040000B0
:102870001E040000F8B557464E464546DE460400A5
:10288000E0B51F0010000B03620F4E00CD0F5B0A76
:1028900039031343490AE200440F2143C24C9146D5
:1028A0009246C0007A008046760D520DFF0FA2427C
:1028B00000D1B4E001246740BB46BD4200D188E0AE
:1028C000B41AA446002C00DCB2E0002A00D1C5E016
:1028D000B54A964200D18BE280221204114362462F
:1028E000382A00DDA1E11F2A00DD16E220270C00B6
:1028F000BF1ABC400200A0466446B840E2404446CD
:1029000014430200501E82416046C14022435B1ABC
:1029100049468C1AA145924152429B1A9846434619
:102920001B0200D417E143465B025B0A984643460C
:10293000002B00D16CE1404600F0A8FC0200083AF0
:10294000202120004346891A9340C8409440034305
:10295000964200DD57E1961B711C1F2900DDCBE17B
:10296000202218002600521A94409040CE40CB40BE
:10297000621E94413043984600260443630709D001
:102980000F232340042B05D0231DA342A4416442FE
:10299000A0441C0043461B0200D4DFE0824B0136FA
:1029A0009E4200D1FBE04246804BE4081A401300EF
:1029B000710552075B0222431B0B490D0905ED0708
:1029C000194329431000F0BCBB46B246A946A046B5
:1029D000F8BDB41AA446002C58DD002A00D19EE0B0
:1029E000714A964200D13BE18022120411436246B3
:1029F000382A00DDC1E01F2A00DCBBE10C00203AD0
:102A0000D44022006446202C04D040273F1BB9400C
:102A1000084380464446611E8C411443B1E00C00DB
:102A200004432AD0BB46BD422DD0614CA446B444D9
:102A30006446002C5CD0941BA446002E00D015E107
:102A40004D461D4300D1C3E1651E012C00D10CE2AF
:102A5000554EB44200D1F8E1AC460EE10A00024303
:102A600000D136E12200013A012C00D1C6E14E4CE2
:102A7000A44500D1F4E0944631E701246740BB4609
:102A8000BD4200D01CE74A4CA446B4446446002C26
:102A900000D1CFE0941BA446002E00D15CE1424E51
:102AA000B24200D1ECE18026360433436446382C30
:102AB00000DDB3E11F2C00DD38E22026361B1C00B0
:102AC000B4404F46A0466446E74044463C434F4628
:102AD000B7403E00771EBE4134436646F340C918F6
:102AE000241884429B415B429846160088444EE07D
:102AF000304A741C144200D0D6E04A461A43002ED5
:102B000000D05BE1002A00D1A5E10A00024300D019
:102B1000BBE14A465907D2080A43DB0827E00A000E
:102B2000024300D174E12200013A012C05D01E4C71
:102B3000A44500D194E0944659E748444845924161
:102B40005B189846040052429044434602261B02FA
:102B500000D5C4E0013E630700D011E74346B44608
:102B60005907E2080A43DB080F498C4540D061460B
:102B70001B0349051B0B490D20E701430C00611E97
:102B80008C414C444C4592415242904698444346B5
:102B90001B02E0D5044B01369E4200D09FE031007D
:102BA000002300220AE7C046FF070000FFFF7FFF67
:102BB00001F8FFFFFE070000002A00D160E10A00D3
:102BC00002434DD04A465C07D20822438024DB08EA
:102BD0002403234207D0CE08264204D15D463300A9
:102BE000C20849070A43510FD200D20849070A43D5
:102BF0001100194300D1C8E1802109030B431B03D5
:102C0000D5491B0BDAE6D549B61A0B409846B5E60E
:102C1000200000F03BFB020018321F2A00DC8FE688
:102C2000230008388340002492E608430200501E27
:102C300082416DE6CA4C721C224200D0ADE04A4689
:102C40001A43002EB8D1002A00D158E10A000243ED
:102C500000D059E14A465907D2080A43DB0886E703
:102C60004A465907D2080A43DB08C1E7BA4DAA42CF
:102C700000D11EE180252D042B436446382C5DDCF9
:102C80001F2C00DDD0E0202567462D1B4E461C0082
:102C9000FE40AC4034434E46AE403500FB406E1E15
:102CA000B541C91A2C434EE04A46141AA145924137
:102CB000524290465F1A3A004746D21B9046120293
:102CC00000D58BE04246224300D030E600230025A9
:102CD0004DE74A465907D2080A43DB0844E7424613
:102CE0009E4B61081A401300012214400C43DA077E
:102CF0005B089846144341E61A001F3EF240160056
:102D0000202903D04022511A8B401C43621E94415B
:102D100000233443984600261DE70C00203AD44097
:102D200022006446202C04D040273F1BB9400843B2
:102D300080464446611E8C412243E9E54C462343CC
:102D40001C00631E9C41041BA0429B415B42CB1AAA
:102D500098465D461600E2E54E461E4300D1AEE0C1
:102D6000661E012C00D1FDE07B4FBC4200D107E183
:102D7000B4469BE664462022121B0C0094400700D8
:102D80009040A0466446421E90416246E740444659
:102D9000D1403C4304435B18F3E66F4CA24200D1A0
:102DA000D5E048445B184845894149425B18DC0737
:102DB00040085B08984616000443CCE6002A00D081
:102DC00082E00A00024340D1802300251B0313E761
:102DD0004B07C2081A435D46CB08C5E64A46841A2B
:102DE000A0429241CB1A52429B1A98465D469EE5FC
:102DF0004A465907D2080A43DB08F9E64A46141A3C
:102E0000A14592415B1A52429B1A9846012686E5DB
:102E10004A465907D2080A43DB08A5E64C46234335
:102E20001C00631E9C415BE665461E00203DEE4093
:102E3000202C05D040252D1BAB404C461C43A24600
:102E40005446631E9C4134437DE74B07C2081A4336
:102E50005D46CB08CCE60A00024300D136E74B07BB
:102E6000C2081A435D46CB0881E64A46841AA0424E
:102E70009241CB1A52429B1A98465D4601264EE576
:102E80004B07C2081A43CB08B2E64A46141AA145BA
:102E900092415F1A5242BA1A904612026BD54A46C4
:102EA000841AA0429241CB1A52429B1A98465D4620
:102EB00064E54B07C2081A435D46CB0898E64B070A
:102EC000C2081A43CB084FE60A00024390D04A4694
:102ED0005C07D20814438022DB081203134208D097
:102EE000CE08164205D1C0084907084304005D46D4
:102EF0003300610FE2004907D2080A4378E64B0726
:102F0000C2081A43CB0832E648445B184845924150
:102F1000984652429044434604001B0200D41AE6ED
:102F200042460E4B01261A40904614E666461F00A4
:102F3000203EF740202C05D04026361BB3404C469F
:102F40001C43A2465446631E9C413C43C8E5110005
:102F50000023002232E5C046FF070000FFFF7FFF8D
:102F6000FE0700004A461418844292415B189846B6
:102F700052429044E9E54246224300D1A6E6EAE502
:102F80004B07C2081A43CB0832E60022014913005E
:102F900014E5C046FF07000070B505000C480C039F
:102FA000160049001A035B00240B490D120B5B0D40
:102FB000814208D0064900208B4203D132431000E1
:102FC000421E904170BD01202C43FBD1F2E7C04668
:102FD000FF0700000A0030B5134C53000903050039
:102FE000090B00205B0DD20FA34204DD0F48834282
:102FF00002DD0F4BD01830BD8020400301430D4847
:10300000C01A1F2808DD0C48C31AD9400B005842CB
:10301000002AF0D11800EEE7084CC540A4466344EE
:1030200099400B002B43F2E7FE0300001D04000053
:10303000FFFFFF7F3304000013040000EDFBFFFFE0
:1030400070B5002816D0C317C5185D40C40F2800FE
:1030500000F01CF9114A121A0A2816DC03002E008F
:1030600015339E400B23181AC54053052D032D0B15
:103070005B0D03E000240023002500261B052B43E5
:10308000E40723433000190070BD0B388540530519
:103090002D0300262D0B5B0DF0E7C0461E0400003B
:1030A00010B5041E10D000F0F1F80F4B1B1A0A28BF
:1030B00011DC0B222100121AD14015300A035B05E6
:1030C0008440120B5B0D01E0002300221B0513431B
:1030D0002000190010BD22000B3882405B0512034E
:1030E0000024120B5B0DF1E71E04000070B54300D5
:1030F0004602C40FFE201B0E591C750A08420CD054
:10310000E022920094466D07360B63441B0533435F
:10311000E40723432800190070BD002B14D1002DB3
:103120001BD0280000F0B2F80A281CDC0B232A0070
:103130001B1ADA40030015339D400E4B12031B1A75
:103140005B05160B5B0DE1E7002D09D0320B8026E5
:103150003603094B6D071643D8E700230026D5E751
:103160000026054BD2E703002A000B3B9A400025BE
:10317000E3E7C04689030000FF07000002004B00A0
:10318000F0B508035B0D3D4ECC0F400A510F5F1C9C
:103190000843D50037420AD039495E18FE2E16DDA5
:1031A000FF230021DB050B43E0071843F0BD002B94
:1031B00006D1284327D005218901490ADBB2F1E76E
:1031C0000543EDD08021C903FF230143EAE7002E28
:1031D0001CDD920111004A1E9141C0006D0F014398
:1031E00029434B0748D00F230B40042B00D0043158
:1031F0008023DB040B403FD0721CFE2ED0D089010F
:10320000490AD3B2CEE700230021CBE732001732C0
:1032100022DB80211E2209040843921B1F2A1DDD88
:10322000022149428E1B0100F1400E00202A04D0E9
:10323000144A944663449840054329004D1EA94111
:10324000314300264B07CED180200B00C004012261
:1032500003400142D3D1AFE70023ACE70A498C46D3
:1032600029006344D1409D400A00290098404D1E2A
:10327000A94101431143E4E733009DE7FE07000045
:1032800080FCFFFFA2FCFFFF82FCFFFF1C2101234B
:103290001B04984201D3000C10391B0A984201D339
:1032A000000A08391B09984201D30009043902A217
:1032B000105C40187047C04604030202010101017E
:1032C000000000000000000010B5002903D1FFF746
:1032D000DDFF203002E0081CFFF7D8FF10BDC0461C
:1032E00003000A220120002B03D0013B5043DBB234
:1032F000F9E77047F7B500240E0025000190B442AD
:1033000011D0019B1F5D0134303FFBB2092B06D861
:10331000301BC0B2FFF7E4FF4743ED19EFE701258B
:1033200000F074FD6D422800FEBDF8B500220300D8
:103330000F250E260D270139C9B2FF2947D018786D
:10334000303836283FD8FCF7E7FE441C46242628B0
:103350002A2C2E303E3E3E3E3E3E3E323436383AF9
:103360003C3E3E3E3E3E3E3E3E3E3E3E3E3E3E3E7F
:103370003E3E3E3E3E3E3E3E3E3E3E323436383A95
:103380003C0001208C00A04001391218C9B2013361
:10339000D3E70320F6E70420F4E70520F2E7062050
:1033A000F0E70720EEE70820ECE70920EAE70A202B
:1033B000E8E70B20E6E70C20E4E73800E2E730001E
:1033C000E0E72800DEE700F021FD01225242100074
:1033D000F8BD0020D6E70220D4E70000FA2310B59C
:1033E00014009B0092B2024804F06AFB200010BD5A
:1033F0004C03002070B5104B05001B7E002B1AD02B
:103400000E4B0A201C6805F0A1F901F0E5FF010050
:103410000B4805F081F9FF212300220A240C0B4000
:103420000A400848214005F077F9280005F074F9B2
:103430000A2005F08BF970BDC8020020002800406A
:1034400058B000085EB0000810B5054B1B7E002B7D
:1034500004D005F061F90A2005F078F910BDC046E6
:10346000C802002010B5054B1B7E002B04D005F0D0
:1034700053F90A2005F06AF910BDC046C8020020C1
:1034800010B5054B1B7E002B04D005F045F90A2032
:1034900005F05CF910BDC046C802002010B5064812
:1034A000FFF7A8FF0022054B1A700123044A117888
:1034B0000B43137010BDC0466FB0000838020020E7
:1034C0002802002070B50F4B0F4C5868782140003F
:1034D0002578FCF735FE854208D90C48FFF78AFFAE
:1034E00004230B4AD1680B43D36070BD0948FFF732
:1034F00081FF217808480131C9B22170FFF7B2FF7E
:10350000F3E7C046C8020020380200207DB0000862
:1035100000ED00E0A2B00008AFB0000870B50C4D9F
:103520000C4C2B7B286863716B7BA371EB7AE37186
:10353000AB7BA373FDF786FF0749FDF7B7FAFDF7ED
:1035400035F82060EB7B23712B89A38170BDC046C9
:10355000C80200203C020020D723744280220A4B7C
:10356000D20510B55A61094A1A60962292005A6033
:10357000074A9A60074ADA6001221A7400221A7612
:10358000FFF7CCFF10BDC046C802002000D6C833EC
:10359000050000040C070114254B26491A6870B574
:1035A000521825491C0001258A423DD85A7B092A18
:1035B0003AD8DA7A013A032A36D81A7B073A052A2A
:1035C00032D8DA7B0A3A0A2A2ED89A7B342A2BD0B0
:1035D0005E691A49301CFCF797FF002824D018496F
:1035E000301CFCF77DFF00281ED06368154A3C3B69
:1035F000934219D82389AB4216D91349301CFCF7E2
:1036000083FF002812D01149301CFCF769FF002805
:103610000CD00F4A0025130007CC07C307CC07C303
:1036200022681A60FFF77AFF280070BD0125FBE7CA
:10363000000008087F49C6F73ED151339A99D93F17
:103640000000404084A800006666E63F666646408B
:10365000C802002070B50500002402F02BFB064BC9
:103660002A59E1180220043402F046FB1C2CF6D142
:1036700002F038FB70BDC0460000080810B5040019
:10368000054B04221988054803F0E0FA210004489C
:10369000FFF7E8FE10BDC046040000200004002033
:1036A000C5B00008C02110B500228901084802F009
:1036B0000FFC084801F0B4FA01F094FE0423064A16
:1036C00011680B4301211360080002F0A5FD10BD35
:1036D000000400503C020020007000407FB508222A
:1036E000002104A804F096FBC0230193BD3B029384
:1036F0000023034801A9039302F028FB07B000BD93
:103700000004005010B50D4C86B0200001F04EFAB8
:10371000FFF724FFFFF740FFA022094BD205082145
:10372000009220000193102301F054FA200001F0D0
:1037300078FC200001F086FA06B010BD3C020020A3
:1037400038040020F7B580260027012436063C48BF
:10375000FFF750FE019600963A4D280001F0EEFB6F
:103760002B005D331B78002B1AD02B0060331B78A5
:10377000002B11D1344AEB69134093423DD1EB7FCA
:10378000012B02D101F028FE0190EB7F2700022BD4
:1037900002D101F021FE06002B0000225D331A70D9
:1037A0002D7F002F35D0002D2BD0802122002748DF
:1037B000490102F08DFB220080212448890102F09A
:1037C00087FB962501F008FE019B2200C01A6D00C0
:1037D000A84200D3002280211C48890102F078FB16
:1037E00001F0FAFD2200801BA84200D300228021B4
:1037F0004901164802F06CFBAEE701F0EDFD0090C8
:10380000CAE780212A001148490102F061FB2A0021
:10381000D2E72200002D00D13A0080210B48490157
:1038200002F056FB01F0D8FD009B2200C01A96233F
:103830005B00984200D3002280218901D9E7C0466D
:10384000E8B000083C02002000FFFF000004005028
:10385000F8B51F48FA25FFF7CDFDED001D4C2000FF
:1038600001F06CFB23005D331B781B4E002B0BD04B
:10387000230060331B78002B02D101F0ADFD3060D6
:10388000230000225D331A7001F0A6FD134F3B6840
:10389000C01AA84202D901F09FFD386001F09CFDDA
:1038A00033680122C01A96235B00984200D300229D
:1038B00080210B48890102F00BFB237C0122032BA2
:1038C00000D0002280210648490102F001FBC5E733
:1038D00001B100083C020020C40200203002002098
:1038E0000004005010B5037F0400002B04D01A4BD5
:1038F00001221B7C002B00D1002280211748890166
:1039000002F0E6FA237C032B04D1134B01221B7C2B
:10391000002B00D1002280211048490102F0D8FA82
:1039200001F05AFD0E4C2368C01A0E4B984202D982
:1039300001F052FD206001F04FFD2368C01A3128CC
:1039400009D8054B1B7C002B05D0C0210122034860
:10395000890102F0BDFA10BDC80200200004005029
:103960002C0200208813000070B5040001F034FD23
:103970000500631C02D0064B1B78E41801F02CFDF7
:10398000401BA04200D370BD024804F013FAF5E7D3
:10399000280000202404002037B5114C01AD290077
:1039A0000222200001F052FE0520FFF7DDFF022277
:1039B0002900200001F04AFE0220FFF7D5FF094B45
:1039C0001888FDF73FFD0849FDF73AFA041C68889E
:1039D000FDF738FD011C201CFDF768F83EBDC04610
:1039E000F80400207800F81F0000404073B5A026BE
:1039F000F60530000122022102F06AFA6B46294DD9
:103A00009C1D21000122280001F020FE0520FFF767
:103A1000ABFF01222100280001F018FE0220FFF771
:103A2000A3FF2088FDF70EFDFFF760FB02000B00EF
:103A300000201D49FEF7ACF800221C4BFEF71AFFD0
:103A40001B4B0022FEF7AAFCFFF798FB1949FDF774
:103A50002DF8FFF74BFB07F05FF800220D00040084
:103A60000221300002F034FAC02229002000124B5B
:103A7000D205FEF793FC0022104BFDF71FFD02005C
:103A800080200B0000060E49FEF782F8FFF776FB58
:103A9000FFF72CFB0B4A0C4BFEF7ECFEFFF76EFB1F
:103AA00076BDC046F80400200000B0400000F03FA2
:103AB0000088C34000401C4666A2724000DCAE4055
:103AC0005CF83141666666666612714070B5244BDB
:103AD00001780400987A0123224DC0002A68184317
:103AE0001940107008005178994301435170607873
:103AF0001900002800D1E1790620237949009B00B4
:103B00000B435178034081430B435370FFF76EFF23
:103B1000011CFCF72FFE1449FCF72CFEFCF746FDB8
:103B20002E68B070FFF738FF1049FDF789F9FDF7EF
:103B300069FC07222D681338C300687810401843C9
:103B400068706178063A1300002900D1E3791340C8
:103B5000E37023790321A371054801F0C1F970BD19
:103B6000C8020020200000200000A04200002041E8
:103B70003C020020F0B54E4B85B01D6803925E6894
:103B80000291040001F028FC01904A4804F064FE10
:103B90000199494804F0C0FDFF272B002A0A290C8F
:103BA0003B403A403940454804F0B6FD80223100A0
:103BB000330C92013B409B18F204D20E394040482E
:103BC00004F0AAFDFFF7E8FE061CFFF7E5FE3D49FD
:103BD000FDF736F9FDF716FC6421FCF721FC301CDB
:103BE0000D00FDF70FFC2A000100374804F094FD9A
:103BF000FFF7FCFE061CFFF7F9FE3449FDF720F93C
:103C0000FDF700FC0A21FCF70BFC301C0D00FDF752
:103C1000F9FB2A0001002E4804F07EFD23792D498E
:103C2000002B00D12C492D4804F076FDA3792949B9
:103C3000002B00D128492A4804F06EFD237825493D
:103C4000002B00D12449274804F066FD6378214900
:103C5000002B00D12049244804F05EFDE3781D4983
:103C6000002B00D11C49214804F056FDE379194985
:103C7000002B00D118491E4804F04EFD1D4B1E4A72
:103C80001B7C1E489B00995804F046FD02991C4875
:103C900004F042FD03991B4804F03EFD01F09CFB3B
:103CA000019BC11A184804F037FD05B0F0BDC046AD
:103CB000002800401CB100082DB100083DB10008EB
:103CC0005AB100080000C84273B10008000020414A
:103CD00087B1000815B1000819B1000898B10008B3
:103CE000A5B10008BDB10008CBB10008DCB10008E7
:103CF000F3B100083C0200200C0000200CB20008C8
:103D00001EB2000832B200084CB2000870B5C026DE
:103D100004000025B601A54200DB70BD0122310080
:103D2000084802F0D5F8FA208000FFF71DFE0022B7
:103D30003100044802F0CCF8FA208000FFF714FEAE
:103D40000135E8E70004005070B5C0250324AD013B
:103D5000012229000A4802F0BBF8C820FFF704FE40
:103D600000222900064802F0B3F8013CC820FFF702
:103D7000FBFD002CECD1FA204000FFF7F5FD70BDF3
:103D80000004005070B580260024B6011D4D0A21A4
:103D9000A87AFCF7D5F9C0B2A0420ADC802600243C
:103DA00076010A21A87AFCF751FAC9B2A14214DCC3
:103DB00070BD01223100144802F08AF8FA20800018
:103DC000FFF7D2FD002231000F4802F081F8FA20FF
:103DD0008000FFF7C9FD0134D8E7012231000A480D
:103DE00002F076F8C8208000FFF7BEFD0022310007
:103DF000054802F06DF8C8208000FFF7B5FD0134DA
:103E0000CFE7C046C80200200004005010B50248A9
:103E1000FFF71AFB10BDC04663B2000810B51424AA
:103E20009AB0342200210DA803F0F4FF22000021F3
:103E300001A803F0EFFF1C22002106A803F0EAFF0F
:103E40002249234A0B681A4080231B0113430B604D
:103E500002F0D8F9C0231F4A5B01116D0DA80B4376
:103E6000136580235B00A0220F93FF3B1393002375
:103E700012020D9414931592169302F051FA002831
:103E800001D0FFF7C3FF00210F2301A80193029186
:103E900003910491059102F08BFC002801D0FFF7FB
:103EA000B5FFA12306930023089380235B020793A9
:103EB000C02306A81B030C9302F068FD002801D064
:103EC000FFF7A4FF02F026FE1AB010BD00700040FC
:103ED000FFE7FFFF00100240F0B58DB001F05CFA83
:103EE000FFF79CFF1422002107A803F093FF042191
:103EF00001260227EA4DA020EA6AC0050A43EA62C9
:103F0000EB6A00240B400393039BEA6A7C310A436B
:103F1000EA62EB6A00220B400493049BEB6A663969
:103F20003343EB62EB6A33400593059BEB6A3B43FB
:103F3000EB62EB6A3B400693069B01F0C9FFC02190
:103F40000022D848890101F0C3FF80239B01079319
:103F50000323D54807A90893099401F0F7FE03232A
:103F6000D24807A907930893099401F0EFFE0223B2
:103F7000FF330793A020C42307A99B03C005089320
:103F8000099701F0E3FEA02007A9C005079708964E
:103F900009940A9401F0DAFEA020182307A9C005AD
:103FA000079308960A97099401F0D0FEC04BBF19F9
:103FB000BC4807A907930897099401F0C7FEC023DE
:103FC000B8489B0107A90793089609940A9401F041
:103FD000BDFE9823A0201B0207A9C00507930897E0
:103FE000099401F0B3FEC023AE4807A907930996D0
:103FF000089401F0ABFE31002200052001F064FCC2
:10400000052001F08BFC31002200072001F05CFC50
:10401000072001F083FC2B6B220033432B632B6BB7
:1040200021001E4002960920029B01F04DFC092050
:1040300001F074FC220021000A2001F045FC0A2056
:1040400001F06CFC9B4E9C4B300033607F23B360CF
:1040500080337460F36034617461B461F46102F0C0
:1040600099FDA04201D0FFF7D1FE04223C2130008F
:1040700002F0ECFD002801D0FFF7C8FE8F48904BFE
:104080008022036082235B004360002392008360F0
:10409000C36003614361C3610362436283620733A8
:1040A0008261C36202F0F8FE002801D0FFF7AEFE85
:1040B000844E854B0C22336096239B017360002352
:1040C0003000B360F36033617261B361F3613362F6
:1040D000736203F099FD002801D0FFF797FE0822D4
:1040E000002107A803F096FE0722784C0023A26364
:1040F000C222FF326262220075492C3213702160A5
:104100000122C02162630906226120000332238458
:10411000E363A36223636160A360E3606261A36100
:10412000E36101F0B9F9002801D0FFF76FFE694B98
:1041300020000793802307A95B01089301F01CFB73
:10414000002801D0FFF762FE634B200007A9079308
:1041500001F012FB002801D0FFF758FEE0225F4F6C
:104160005F4B12013B600023BA605E4A38007B60FF
:104170007A613B627B62BB6201F0DCFE002801D009
:10418000FFF744FE584A594B10001360C0235B00F0
:104190005360023BFF3B9360D3600023136103F045
:1041A000F4FD002801D0FFF731FE514A300051499B
:1041B00000F0C6FFF0213800C90101F0DFFF4E49D1
:1041C0004E4804F0A9FAC0234D4A5B0191682000D3
:1041D0000B439360002101F023FB0126FFF792FAC5
:1041E0008021A020474F484A7B68484C13802378A1
:1041F00049003343C005237001F064FE431E98411B
:10420000434B31005871A020C00501F05BFE431EF6
:1042100098413F4B987001F0E5F88021214801F06A
:1042200051FE00280AD140211E4801F04BFE002813
:1042300004D03848FFF708F9FFF784FA80211948BD
:1042400001F040FE00280AD04021164801F03AFE55
:10425000002804D13048FFF7F7F8FFF7F9FA80217A
:10426000104801F02FFE00280BD140210D4801F02D
:1042700029FE002805D12948FFF7E6F80122284B3E
:104280001A702848FFF7E0F8194B7833197800299D
:104290004CD12548FFF7D8F80220FFF737FDFEE79D
:1042A000001002400004005000080050001C0050A4
:1042B0003FCF000000040020002800403804002008
:1042C000003001404C03002000380140F804002079
:1042D000002401400400000800000244D003002034
:1042E000007C0040FFFF000024040020002C004060
:1042F0003C02002004030020212011276AB200089C
:1043000000580140C80200200400002028020020BC
:10431000E4020020E8B0000801B1000874B200080F
:10432000240200208BB20008A3B20008C948FFF79E
:1043300099F82B6D9B0506D4C748FFF785F8032035
:10434000FFF7E4FCFEE70126C448FFF77DF8FFF71E
:10435000FBFCFFF717FDFFF7C1F92378C048334393
:104360002370B97AFFF77EF83968BE48FFF77AF80C
:10437000397BBD48FFF776F8797BBC48FFF772F8C8
:10438000BB4803F017FDFFF731FBBA4B80211860E3
:10439000A020B94C4900C005257901F093FD854264
:1043A0000CD001F019F8B54B80211860A02049000D
:1043B000C00501F087FD431E984120710422B04DD5
:1043C0006B78134208D093436B70AE4B20001A6891
:1043D000AD4B1968FFF7CEFB2B7833420AD0B343BD
:1043E0002B702378002B02D02379002B02D10722D7
:1043F000A64B1A701021A24A13780B420AD08B43A5
:10440000A3481370FEF7F6FF3800FFF787F838006F
:10441000FFF720F9A27863789A423AD09D4B1B7837
:10442000002B46D12378002B6BD100F0D5FF9A4B9F
:104430009B690193C01A1423BA7A53430A339842F2
:1044400033D9954B1B7C032B2FD06378002B00D0E6
:10445000E6718E4D2B78002B01D0013B2B708F48DD
:10446000FEF7C8FF29788E48FEF7FCFF864A1368DE
:104470000133136000F0B0FF8A4B39001860200050
:10448000FFF724FB834B1E70874B1888FFF7F6F865
:104490000BE0627923799A4200D09AE07B4B1B783B
:1044A000002BBBD1E379002BB8D17A4B1B78002BC2
:1044B00027D000F091FF7B4B7C4D1B68C01A2B6806
:1044C00098421ED9FA206F4A8000136803210133F5
:1044D00013607B685843FBF733FE04007448FEF713
:1044E00089FF00226B4BFA211A709623BA7A5B007F
:1044F00053432A68890052189B18A34200D923000D
:104500002B6008225E4C2378134204D0934338007A
:10451000237000F023FE20222378134204D093431B
:104520003800237000F0A4FE5B4B5D331B78002B3A
:104530000ED06048FEF75EFF574B60331B78002BB0
:1045400054D05D48FEF780FF0022534B5D331A7054
:10455000514800F0F3FC5048FFF7C4F9A0203100A7
:10456000C00501F0AFFC3300434C002800D1E379D3
:104570008021A02033404900C005637001F0A2FCF7
:1045800003005A1E93412371424B1B78002B00D02D
:10459000F6E6414B5B7C002B00D0F1E66379002B03
:1045A00000D0EDE66278A3789A4200D0E8E6434B6B
:1045B0001B78002B00D0E3E6344B1B781843C0B2C5
:1045C000002800D0DCE63E48FEF714FFFFF76AF84B
:1045D000D6E600F001FF294BBA7A1B68C01A962371
:1045E000DB005343984200D918E757E7354C23685E
:1045F0001A78D108324200D0C1E0BA7A8A4200D09B
:10460000B0E01D4D5A782978D307DB0F994206D0C8
:104610002D49324200D12D492D48FEF731FF216846
:104620004B78DA07D20F2A7088781900B1437A687C
:10463000014378D0590809021B4B09181980520010
:10464000914249D92348FEF70DFF7B685B00164A6B
:10465000138044E0B6B20008CFB20008DEB2000812
:10466000EAB20008FBB200080AB300081FB3000852
:104670002404002000030020E4020020C0020020E7
:104680002802002020020020EC020020F00200207E
:104690002DB30008F10200203C02002047B30008BF
:1046A00056B300083402002004000020000000205F
:1046B00064B3000878B3000887B300082402002020
:1046C0007CB400080800002015B1000819B10008EA
:1046D00090B30008A7B300082A48FEF7C3FE2A4B90
:1046E0001888FEF7CBFF294B1B681C7806231C405B
:1046F0000194019B264C022B1BD12648FEF7A4FEF9
:10470000254A13680133136000F066FE234B39001D
:1047100018602000FFF7DAF9214B1E701A4B188839
:10472000FEF7ACFF10E71F4891B2FEF79BFE7B68D7
:104730008DE7019B002B00D006E71B48FEF784FEA7
:10474000E378002B01D0019AE271AB70AB79FA21CA
:104750006B710023124AC9001370144A1160144A85
:104760001370F1E61348FEF77DFE2368124859786E
:104770009B7849080902C918FEF774FEE4E60F4861
:10478000FAE7C046EBB30008040000200800002050
:10479000E402002022B40008EC02002034020020D1
:1047A000F102002007B400083DB40008000000201A
:1047B000F002002052B400085EB400086FB4000894
:1047C0000122054B596B0A435A638022996B5205AB
:1047D0000A439A637047C0460010024070B5060055
:1047E00086B01422002101A803F014FB1B4B326891
:1047F0009A4230D180221A4B9200596BA0200A4372
:1048000001215A63DA6A00250A43DA62DB6AC005CD
:104810000B400093009B042301A90193013B0293E9
:10482000039501F093FA0F4C0F4B20002360802377
:104830002361DB1863618023DB006560A560E560B0
:10484000A361E561256201F08FF8A84201D0FFF76E
:10485000DDFAF464A66206B070BDC04600240140D3
:10486000001002409004002008000240094B02683A
:1048700010B59A420DD18023074A1B06916B0D207B
:104880000B4393630121002201F01EF80D2001F07B
:1048900045F810BD007C004000100240094B026842
:1048A00010B59A420DD18023074ADB02116D022018
:1048B0000B4313650022110001F006F8022001F0FD
:1048C0002DF810BD002800400010024010B5040073
:1048D00086B01422002101A803F09CFA104B226834
:1048E0009A421BD180220F4B5201596BA0200A43E0
:1048F00001215A63DA6AC0050A43DA62DB6A0322DD
:104900000B400093009BE0230193DE3B02930023C6
:1049100001A903930492059301F018FA06B010BDA3
:104920000030014000100240F0B5060087B01422AC
:10493000002101A803F06EFA204B32689A423BD165
:1049400080221F4BD201596BA0200A4301215A63D8
:10495000DA6A00250A43DA62DB6A03270B40009318
:10496000009BC023DB0001930223C005029301A931
:10497000DB1805930395049701F0E8F9114C124BED
:104980002000236080232361603B6760A560E560B1
:104990006561A561E361256200F0E6FFA84201D0F0
:1049A000FFF734FA1B20002201213467A66200F0D1
:1049B0008BFF1B2000F0B2FF07B0F0BD00380140B4
:1049C000001002400403002030000240054B026842
:1049D0009A4205D18023044A1B01916B0B439363D8
:1049E0007047C046002C004000100240FEE7FEE782
:1049F0007047704710B500F0E3FC10BD10B50248D9
:104A000002F0A2F910BDC0460004002010B501203C
:104A100001F066FA10BD802010B5400001F060FA88
:104A200010BD000010B5024801F067F810BDC04687
:104A30009004002010B5024801F05FF810BDC04698
:104A40000403002010B5024801F0D0FA10BDC046A2
:104A5000D003002010B5024802F0A4FC10BDC046EF
:104A60004C03002010B5C36E0A00006F99B201F02C
:104A70002FFA10BD10B504000121FFF7F3FF636E9C
:104A8000A06E99B2002201F023FA636E0122A06E9B
:104A900099B201F01DFA10BD37B56B46D9710021EE
:104AA000DD1D0400FFF7DEFFFA2301222900606FFD
:104AB0009B0002F053FA606F02F000FC0128FAD16B
:104AC00037BD30B50E2585B000216B466D4404001E
:104AD0002970D973FFF7C6FFFA230F229B000093BA
:104AE00029000123606F6A4402F0F3FA6B46D87B19
:104AF00005B030BD70B50400FFF7CEFF2000FFF712
:104B0000E0FF050001212000FFF7ACFF280070BD89
:104B100070B50D00002116000400FFF7A3FF8021EF
:104B200020002943FFF7B8FF31002000FFF7B4FF52
:104B300001212000FFF796FF70BDF8B504000E00BC
:104B400017001D00012B13D90021FFF78BFF310047
:104B50002000FFF7A1FF00262000FFF7B2FFB855A5
:104B60000136F3B29D42F7D801212000FFF77AFF0A
:104B7000F8BDF8B504000D0017001E00012B14D974
:104B80000021FFF76FFF802120002943FFF784FFFA
:104B90000025795D20000135FFF77EFFEBB29E42D4
:104BA000F7D801212000FFF75DFFF8BD064B036039
:104BB000064B43600423FF330381033BFF3B8372B7
:104BC000034BC3607047C0462440D900140C07044F
:104BD0000500010182B037B507936C46030062609F
:104BE0000091643322CC22C307AA12CA12C3099BC4
:104BF000436737BC08BC02B018470000074B026887
:104C000010B504009A4207D8892201212000FFF73D
:104C10007FFF0223237410BD8122F6E71540830035
:104C2000074B026810B504009A4207D88822012178
:104C30002000FFF76DFF0123237410BD8022F6E7EB
:104C40001540830010B50400FFF7EAFF2368062132
:104C50001A0C2000D2B2FFF75BFF236807211A0A63
:104C60002000D2B2FFF754FF23680821DAB22000F7
:104C7000FFF74EFF102223795242053B1A430921C8
:104C80002000D2B2FFF744FF32220B212000FFF7B1
:104C90003FFF23220C212000FFF73AFF0121A279D8
:104CA000E37912015B00D218A37A20000B40D218DE
:104CB000D2B21C31FFF72CFF6279637A12019B009C
:104CC000D21803321E212000D2B2FFF721FFFF22AB
:104CD0001F212000FFF71CFFA28920212000120ABB
:104CE000FFF716FF21212000227BFFF711FF222171
:104CF0002000227AFFF70CFF39212000A27BFFF76A
:104D000007FF230000225D331A7042212000FFF7C5
:104D1000F1FE230078331870A379092B21D11228D2
:104D20001FD1124A23689B18114A934209D80222C4
:104D300036212000FFF7ECFE64223A212000FFF725
:104D4000E7FE0C4A23689B180B4A934209D80322BA
:104D500036212000FFF7DCFE7F223A212000FFF7FA
:104D6000D7FE2000FFF74AFF10BDC046DDFF32FF2F
:104D700006003200EE7F99FF03C01C0010B5FF2231
:104D80001221FFF7C5FE10BD70B504000D00FFF73E
:104D900059FF84224D212000FFF7BAFE0022242172
:104DA0002000FFF7B5FE2000FFF7E8FF227A22215E
:104DB0002000FFF7ADFE0F212000FFF79BFE0D2125
:104DC00002002000FFF7A4FE134B22689A4212D87B
:104DD0008D2201212000FFF79BFE230000220426E4
:104DE0005D331A7018212000FFF784FE304204D092
:104DF0000120267470BD8522EBE7013D002D07D10F
:104E00002000FFF737FE2000FFF71CFF2800F1E726
:104E10000120FEF7A9FDE5E71540830070B5060007
:104E200004001D3620220021300002F0F3FF102183
:104E30002000FFF75FFE0D2102002000FFF768FE53
:104E40006379062B0AD1257A2B003200200000213D
:104E50005D34FFF772FE2800257070BD132120001D
:104E6000FFF748FE0500EFE710B50400FFF7EAFE84
:104E70000323872223744D212000FFF749FE0022DF
:104E800024212000FFF744FE2000FFF777FF227A5D
:104E900022212000FFF73CFE0E212000FFF72AFE12
:104EA0000D2102002000FFF733FE2200237A3D325D
:104EB00000212000FFF75DFE00F08EFA074B22680C
:104EC00060619A4207D88B2201212000FFF720FE63
:104ED0000023637410BD8322F6E7C04615408300AB
:104EE000012230B5447C03001000002C05D11D7C4C
:104EF000032D02D0200019725A7430BD10B5040081
:104F00001821FFF7F7FD23005F330200187001231B
:104F10001A40184207D0237700F05EFAA06100F033
:104F20005BFAE06710BD2277FCE710B512210400A0
:104F3000FFF7E0FD5E34207010BD000070B5040086
:104F4000FFF7DCFF2000FFF7F0FF237C002B05D1EB
:104F50002000FFF78FFD2000FFF774FE237C013B4C
:104F6000012B07D8E37B002B04D0FA212000890015
:104F7000FFF70AFF637C002B07D023005F331B7809
:104F8000DB0702D42000FFF76FFF250020005E350D
:104F9000FFF7CBFF2B781B0706D52000FFF7EEFEAF
:104FA00064212000FFF7F0FE2B785A060AD5220074
:104FB0009B06DB0F603220001370FFF72FFF2000ED
:104FC000FFF7DCFE1D212000FFF794FDA379E279B5
:104FD0001B0152001343A27A134398420AD02200C5
:104FE000803213880133138000F0F6F90023E06764
:104FF000237470BD00F0F0F9E36FC01A014B9842C2
:10500000EDD8F6E7C0D4010070B506000D0001240C
:10501000E1B23000FFF76EFD28550134202CF7D1A6
:1050200070BD30B5040089B0FFF724FD2500422192
:105030002000FFF75FFD7835422128702000FFF740
:1050400059FD694628702000FFF7DEFF6B465B784C
:10505000092B06D16B469B781A2B02D16134193B80
:10506000237009B030BD0120704710B502F0A8FED2
:10507000162303600120404210BD10B502F0A0FECF
:1050800016230360FEE770B50E0014000025A5424C
:1050900001DB200070BD00E000BF70550135F6E770
:1050A00001204042704780239B0100204B607047E5
:1050B00001207047002070470B4A0C490300891AF1
:1050C0000B4A10B51068002801D10A48106010681A
:1050D000C3188B4206D902F073FE0C230360012033
:1050E000404210BD1360FCE70004000000200020D7
:1050F000F4020020A8050020704700000B4B0C496B
:105100001A783C2A02D100230B7070470B783E2A94
:1051100007D1084A13700823074A11780B4313700C
:10512000F3E7581C08700549CA54EEE755050020FE
:105130005405002076050020280200205605002096
:1051400010B50C000122034902F0E4FD024BE362BA
:1051500010BDC04655050020FD50000810B53D4B60
:10516000040019783C4B01391878C9B2532818D873
:1051700030281CD93138222819D8FAF7CDFF1E2340
:10518000282D3C1818323718181818185F181818D6
:105190005A18181818181818184B181818181856DC
:1051A0005000692831D06E282AD064284CD02B4872
:1051B00003F0B2FAFEF72AFE03E02948FEF79AF858
:1051C000206010BD2648FEF795F82073F9E72448C3
:1051D000FEF790F86073F4E72148FEF7A6F8A07395
:1051E000EFE71F48FEF786F82081EAE71C48FEF744
:1051F00081F8E072E5E71A48FEF77CF8E073E0E733
:105200001748FEF777F8A072DBE71548FEF772F84B
:105210006060D6E71248FEF76DF82074D1E71023DE
:10522000104A11780B431370CBE70E4A20231178F4
:10523000F8E70D490D4803F06FFAC2E70423094A65
:1052400051780B435370BCE70548FEF753F82076BE
:10525000B7E7C0467605002056050020C8B4000810
:105260005705002028020020212011276AB20008DB
:1052700010B504000168164803F04EFA217B15486A
:1052800003F04AFA617B144803F046FAA17B134805
:1052900003F042FAE17B124803F03EFA21891148FB
:1052A00003F03AFAE17A104803F036FAA17A0F488F
:1052B00003F032FA61680E4803F02EFA217C0D48A3
:1052C00003F02AFA217E0C4803F026FA10BDC046EE
:1052D000D4B40008DCB40008E3B40008EAB4000861
:1052E000F1B40008F8B40008FFB4000806B50008DF
:1052F0000DB5000815B500081CB500080D48854619
:105300000D480E490E4A002302E0D458C45004331D
:10531000C4188C42F9D30B4A0B4C002301E01360F4
:105320000432A242FBD3FFF7E7FE02F04FFDFEF787
:10533000D3FDFEE700200020000000200402002032
:1053400024B9000804020020A4050020FEE70000A4
:1053500070B50500FA200D4B80001978FAF7F0FEC1
:105360000B4B01001868FAF7EBFE00F0E3FA0400BB
:105370000120002C09D1032D07D802382200290072
:1053800000F0A2FA2000034B1D6070BD2800002031
:10539000240000202C0000204023084A10B511688A
:1053A00000200B431360FFF7D3FF041E03D1FFF768
:1053B00007FA200010BD0124FBE7C0460020024090
:1053C000034A044B11681B785B1813607047C04692
:1053D0007805002028000020014B18687047C0465F
:1053E000780500200221024A53688B4353607047BE
:1053F00000580140084B13B5040008491868FAF733
:105400009FFE44430194019B002B00D113BD019BDF
:10541000013B0193F7E7C0462400002040420F0003
:105420000321036870B59A6804000A40012A04D178
:105430001968114201D0002070BD9968154A1142C7
:1054400008D010230120626D13436365A36D0343ED
:10545000A365F1E701259A6828002A439A60FFF7BF
:10546000C9FFFFF7B9FF060023681B682B42E2D192
:10547000FFF7B2FF801B0A28F6D923681B682B426E
:10548000F2D11023626D012013436365A36D1D43A8
:10549000A565D1E71700008070B504000120002C3D
:1054A0001BD0636D002B06D122005032A365200073
:1054B0001370FFF793F9636DDB0606D423680422AB
:1054C000996808001040114208D01023626D012035
:1054D0001343636500235034237070BD626D5549DA
:1054E000114002220A436265032299681140524A20
:1054F000012902D11D680D4219D180266168F60587
:105500004D006D08B54203D080252D06A94276D105
:105510001D69AD00AD081D611D692943196118257C
:10552000D968A943D960D968A5682943D9601168A9
:10553000424D29401160616B15684906294311608D
:10554000802299685205114202D199680A439A60F3
:10555000DA683B490A402169DA60DD68E2680229BD
:1055600000D10420266B611C32432A43A569C97F00
:10557000AD032A43E569ED032A434D032A43250081
:105580002C352D786D002A430243C220DA60626A0E
:10559000FF30824204D0A56AD8682A430243DA6009
:1055A000A21CD27F012A06D1002934D18022D968D9
:1055B00052020A43DA60E16B1A69012933D12148AA
:1055C000656C02401A61226C18692A43A56C2A4353
:1055D00002431A611A691143196107215A690020AF
:1055E0008A435A615A69A16B0A435A610322A06532
:1055F000636D93431A000123134363656DE71D69CF
:10560000114EAD00AD081D61156835401560156877
:105610002943116083E72021606D01436165A16D1D
:105620000A43A265C7E701210A42D6D01A698A4314
:105630001A61D2E7FDFEFFFF08270140FFFFFFFDD3
:105640001902FEFF03FCFFFFFFFFC3FFF7B5019246
:105650000268040093680E0002205B072FD4270025
:1056600050373B78012B2AD001233B70D1680B4384
:10567000D360E369012B23D1636D144A00251A40DE
:1056800080235B0013436365A5653D70E06C104BA0
:105690002168C3620F4B03630F4B43631C230B60F2
:1056A0004A680C3B13434B603200019B403100F0D1
:1056B0009FF904232800226891680B439360FEBD84
:1056C0002000FFF7ADFE0028D6D0F8E7FEF0FFFF80
:1056D000E1560008535700085F5700087047000064
:1056E0005022836A10B5596D11422BD1596DB132D8
:1056F000FF320A43C0215A651A680901D06808427E
:1057000013D1591CC97F00290FD1116809070CD585
:10571000916849070DD40C205168814351605A6D3E
:105720000A49114001220A435A651800FFF7D6FFC3
:1057300010BD2022596D0A435A650122996D0A4312
:105740009A65F2E7DB6C5B6B9847F1E7FEFEFFFFC3
:10575000704710B5806AFFF7FBFF10BD704740230C
:10576000806A10B5426D134343650423826D134371
:105770008365FFF7F3FF10BDF8B5040050342278BD
:1057800003000D000220012A0BD0013820701A6896
:105790009168490706D52022596D0A435A650023AE
:1057A0002370F8BD80232868194E6F684103DB021F
:1057B000490B0340B74219D0906A01439162002B14
:1057C00008D08023134A1B0411680A200B4313607E
:1057D000FFF710FE2B689B0305D580230D4ADB03E2
:1057E00011680B43136000202070DAE7956A8D433F
:1057F0009562002B04D0074A074913680B401360D9
:105800008303F0D5034A054913680B40EAE7C04615
:105810000110000008270140FFFF7FFFFFFFBFFFCF
:10582000F8B5050050352B7804000220012B48D034
:10583000012303222B70236898681040012809D1A6
:105840001A68024206D02023626D13436365002369
:105850002B7036E0626D1B49114002220A4303217E
:105860006265DE68DA688A43DA6080229968120627
:105870000A439A60FFF7B0FD070023689A68002A80
:105880000CDB0322D96816400E43DE60636D0020F6
:1058900093431A00012313436365D8E7FFF79CFD88
:1058A000C01B0A28E9D923689B68002BE5DA12227D
:1058B000636D012093431A00102313436365002393
:1058C0002B70F8BDFDFEFFFF30B5FF2503242A0035
:1058D0000440E400A24089012940D243A140C3B260
:1058E00000280ADBC0240B4B80088000C018A400ED
:1058F00003591A401143015130BD0F200340083BAA
:1059000005489B089B001B18D86902401143D961C8
:10591000F2E7C04600E100E000ED00E0002805DB12
:105920001F2318401E3B8340014A13607047C04646
:1059300000E100E08022431E5204012093420DD278
:10594000C021074A07485360036A09061B021B0A65
:105950000B43036200200723906013607047C0462A
:1059600010E000E000ED00E0F8B504000120002C9C
:1059700035D025681A4B1421E818FAF7E1FB194BCA
:10598000800023640223A21D6064D3772E68164B27
:10599000A1681E40E36827690B433B4367693B43AB
:1059A000A7693B43E7693B43276A3B4333432B608B
:1059B0008023DB0199420CD01C2528400D3D8540F9
:1059C0000A490B68AB430B6063680D6883402B4347
:1059D0000B6000200123E0630534D377E077F8BD46
:1059E000F8FFFDBF000002400F80FFFFA80002404B
:1059F000F7B5451D0193EB7F04000220012B29D050
:105A00000123A71DEB77FB7F00269C466046DBB297
:105A100001282AD10130F8772068E663676C0568B1
:105A20001C363E409D43B3400560256C6B60019B76
:105A30004360A368102B0ED18260C160236B002BE2
:105A40000CD00E2302681343036001230268134342
:105A500003600020FEBD8160C260EFE7042203689E
:105A60009343036002680A23EDE70220EE77F1E733
:105A700030B5851DEB7F441D022B05D00423C36385
:105A800000230120E37730BD0E2103681A688A43A2
:105A90001A600122196891431960436C016C1C2043
:105AA00003401000984048600020EA77E077EAE77A
:105AB00070B5841DE37F022B04D00423C363033B32
:105AC000180070BD0E210368456C1A688A431A607D
:105AD00001221968914319601C232B4015009D4039
