:020000040800F2
:10000000002000207967000855560008695600084E
:1000100000000000000000000000000000000000E0
:100020000000000000000000000000007D560008F5
:1000300000000000000000008756000891560008EC
:10004000C9670008C9670008A1560008C967000809
:10005000C9670008B9560008C9670008C9560008F2
:1000600000000000DD560008F5560008C9670008CA
:10007000C96700080D57000800000000C9670008A4
:1000800000000000C9670008000000000000000038
:10009000C967000800000000C9670008C9670008B8
:1000A000C9670008C9670008C9670008C967000870
:1000B000C9670008C96700080000000000000000D0
:1000C00010B5064C2378002B07D1054B002B02D02E
:1000D000044800E000BF0123237010BD3802002057
:1000E00000000000E0E10008044B10B5002B03D035
:1000F0000349044800E000BF10BDC04600000000F6
:100100003C020020E0E100080023C25C0133002A29
:10011000FBD1581E7047000002B4714649084900DF
:10012000095C49008E4402BC7047C04603B4714666
:10013000490840004900095E49008E4403BC7047ED
:10014000002243088B4274D303098B425FD3030A16
:100150008B4244D3030B8B4228D3030C8B420DD329
:10016000FF22090212BA030C8B4202D312120902B7
:1001700065D0030B8B4219D300E0090AC30B8B42F5
:1001800001D3CB03C01A5241830B8B4201D38B03A3
:10019000C01A5241430B8B4201D34B03C01A524148
:1001A000030B8B4201D30B03C01A5241C30A8B428B
:1001B00001D3CB02C01A5241830A8B4201D38B0276
:1001C000C01A5241430A8B4201D34B02C01A52411A
:1001D000030A8B4201D30B02C01A5241CDD2C3098C
:1001E0008B4201D3CB01C01A524183098B4201D308
:1001F0008B01C01A524143098B4201D34B01C01AF3
:10020000524103098B4201D30B01C01A5241C3086A
:100210008B4201D3CB00C01A524183088B4201D3D9
:100220008B00C01A524143088B4201D34B00C01AC5
:100230005241411A00D20146524110467047FFE731
:1002400001B5002000F0F0F802BDC0460029F7D04B
:1002500076E7704703460B437FD4002243088B4266
:1002600074D303098B425FD3030A8B4244D3030B3D
:100270008B4228D3030C8B420DD3FF22090212BA02
:10028000030C8B4202D31212090265D0030B8B427E
:1002900019D300E0090AC30B8B4201D3CB03C01A68
:1002A0005241830B8B4201D38B03C01A5241430B43
:1002B0008B4201D34B03C01A5241030B8B4201D333
:1002C0000B03C01A5241C30A8B4201D3CB02C01A9E
:1002D0005241830A8B4201D38B02C01A5241430A16
:1002E0008B4201D34B02C01A5241030A8B4201D305
:1002F0000B02C01A5241CDD2C3098B4201D3CB01AC
:10030000C01A524183098B4201D38B01C01A52415A
:1003100043098B4201D34B01C01A524103098B425E
:1003200001D30B01C01A5241C3088B4201D3CB0049
:10033000C01A524183088B4201D38B00C01A52412C
:1003400043088B4201D34B00C01A5241411A00D2DC
:1003500001465241104670475DE0CA0F00D0494245
:10036000031000D34042534000229C4603098B42B5
:100370002DD3030A8B4212D3FC22890112BA030A3D
:100380008B420CD3890192118B4208D389019211BF
:100390008B4204D389013AD0921100E08909C30944
:1003A0008B4201D3CB01C01A524183098B4201D346
:1003B0008B01C01A524143098B4201D34B01C01A31
:1003C000524103098B4201D30B01C01A5241C308A9
:1003D0008B4201D3CB00C01A524183088B4201D318
:1003E0008B00C01A5241D9D243088B4201D34B0033
:1003F000C01A5241411A00D20146634652415B1075
:10040000104601D34042002B00D549427047634655
:100410005B1000D3404201B5002000F005F802BD9A
:100420000029F8D016E770477047C0468446100090
:1004300062468C461900634600E0C0461FB501F0D5
:1004400015FF002801D40021C8421FBD10B501F0DE
:1004500065FE4042013010BD10B501F007FF0028D5
:1004600001DB002010BD012010BDC04610B501F019
:10047000FDFE002801DD002010BD012010BDC0469A
:1004800010B501F08DFE002801DC002010BD012018
:1004900010BDC04610B501F083FE002801DA00202F
:1004A00010BD012010BDC046844608006146FFE72C
:1004B0001FB500F087FC002801D40021C8421FBDF1
:1004C00010B500F013FC4042013010BD10B500F033
:1004D00079FC002801DB002010BD012010BDC046C2
:1004E00010B500F06FFC002801DD002010BD0120D8
:1004F00010BDC04610B500F01FFC002801DC002034
:1005000010BD012010BDC04610B500F015FC00283C
:1005100001DA002010BD012010BDC046002B11D112
:10052000002A0FD1002900D1002802D00021C943A0
:10053000080007B4024802A14018029003BDC0465B
:10054000E9FEFFFF03B4684601B5029800F04CF8DD
:10055000019B9E4602B00CBC7047C046F0B5CE462B
:10056000474680B5070099463B0C9C4613041B0C7C
:100570001D000E0061460004140C000C45434B4363
:1005800060436143C0182C0C20188C46834203D969
:1005900080235B029846C444494679437243030C66
:1005A00063442D042D0CC918000440198918C0BCDF
:1005B000B946B046F0BDC0469E2110B5C905041C21
:1005C000FFF7A2FF002803D1201C00F013FF10BD8D
:1005D0009E21201CC90500F05FFD00F00BFF802369
:1005E0001B069C466044F2E7F0B557464E4645462A
:1005F000DE46E0B504000D009246994683B08B427A
:1006000030D82DD04946504602F02AFE2900060077
:10061000200002F025FE331A9846203B9B4633D437
:100620005A465346934042461F00534693401E008D
:10063000AF423AD8AF4200D178E05B46A41BBD413F
:10064000002B00DA75E000220023009201930123C1
:100650005A4693400193012342469340009328E079
:100660008242CFD900220023009201930C9B002BE1
:1006700001D01C605D600098019903B0F0BCBB46DE
:10068000B246A946A046F0BD424620239B1A5246D8
:10069000DA40414613004A468A40170042461F434B
:1006A000534693401E00AF42C4D90022002300925B
:1006B00001934346002BD9D0FB0772081A434646E4
:1006C0007B080EE0AB4201D1A2420CD8A41A9D4196
:1006D000012024196D410021013E24184D41002EB6
:1006E00006D0AB42EED9013E24196D41002EF8D15F
:1006F000009801995B4600196941002B24DB2B000F
:100700005A464446D3402A00E2401C005B4615008E
:10071000002B2ADB26009E40330026004746BE40C1
:100720003200801A9941009001919FE7A342BCD802
:1007300083E74246202300219B1A00220091019268
:100740000122DA40019286E7424620239B1A2A00C2
:1007500046469A402300F340444613432A00E240B1
:100760001C005B461500002BD4DA42462F002023E4
:10077000260097409B1ADE403B003343CDE7C0463E
:10078000F0B5C64643025B0A4E0245004F00DA0050
:10079000C40F9C46700A904600B52D0E3F0EC90F3F
:1007A000B6098C424BD0EA1B002A36DD002F61D0FF
:1007B000FF2D00D1ADE08023DB041E431B2A00DCAB
:1007C000D3E001204346181A430100D48CE0800195
:1007D0008709380002F026FD05388740854200DC95
:1007E000B6E02D1AB3483840430704D00F23034026
:1007F000042B00D00430430100D478E06A1CFE2DA5
:1008000065D08001430A9C46D2B26346D0051843A6
:10081000E407204380BCB846F0BD002A35D07A1BDF
:10082000002D00D0AFE04346002B00D1A7E0531EBF
:10083000012A00D12FE1FF2A69D01A00AAE0E91BA2
:10084000002970DD002F37D0FF2D62D08023DB041C
:100850001E431B2900DCB0E001204044430143D586
:100860000135FF2D33D00123934A03404008104047
:100870001843B9E7002E00D183E0511E012A00D1B0
:10088000D8E0FF2A45D00A0098E7FE276A1C1742E5
:1008900000D086E0002D00D0B7E04346002B00D109
:1008A000F3E00022002EB0D0981B430100D4FAE000
:1008B00043460C00F01A97E7002E00D1C8E04A1E0C
:1008C000012900D1AEE0FF2923D01100C1E70023A8
:1008D000FF229C4699E7FE216A1C114277D0FF2A2D
:1008E000F5D0150046447008430700D07EE7C308E2
:1008F000FF2D0ED05B025B0A9C46EAB285E7002E14
:1009000007D08022D203134203D0104201D10C0041
:100910000300002BDBD08020C00318434002430AB1
:100920009C46FF2271E70029D5D07A1B002D60D1AB
:100930004346002B24D0531E012A73D0FF2AE7D050
:100940001A001B2A00DC85E001203D00801985E7A4
:1009500020233A00451B38000135EA405D1BA840C2
:10096000431E9841002510433EE7202330009B1A88
:1009700031009840D140431E9841084322E70C00C3
:1009800003001500B4E7FF2FC1D080234046DB04ED
:10099000184380461B2A51DD01200C003D00301A0F
:1009A00012E743469F1B7B012BD4002F00D010E79A
:1009B0000023002400229C4627E720233200300039
:1009C000CA40591A8840431E9841104345E7002DFC
:1009D0004AD14346002B63D00022002E00D114E7F9
:1009E00030004044430100D47EE7324B01351840CB
:1009F0007AE7FF2F8CD080234146DB0419438846D9
:100A00009FE743460C00F71AE3E64246002A00D06F
:100A100075E7002E00D07AE78023DB0300249C4694
:100A2000FF22F2E6300040440125430100D45BE799
:100A3000022518E743460125981BC5E620234446B6
:100A40004046D4409A1A9040431E98412043A4E760
:100A50000D004DE7202341464046D1409A1A904070
:100A6000431E9841084370E74246002A00D14FE7F1
:100A7000002E00D14DE78022D203134200D148E777
:100A8000104200D045E7030043E7002E90D00C0051
:100A900084460022B9E643460C00F01A013593E67D
:100AA00084460022B1E6002800D01DE70023002480
:100AB0009C46AAE6FFFFFFFBFFFFFF7DF0B54F4618
:100AC0004646D6464502C0B547000C1C6D0A3F0E8F
:100AD000C60F002F00D170E0FF2F00D175E0EB00B2
:100AE0008025ED041D43002399469A467F3F60020E
:100AF000430A984663001B0EE40F002B4ED0FF2BD9
:100B000046D04246D0008022D204024390460022C2
:100B10007F3B3100FF1A4B466140C9B213430F2B94
:100B200000D9B5E06E489B00C3589F460023984605
:100B30002600454692465346022B00D189E0032BFE
:100B400000D19EE0012B18D03B007F33002B69DDE4
:100B50006A0704D00F222A40042A00D004352A0153
:100B600003D5604B1D403B008033FE2B00DD70E061
:100B7000AD016D0AD8B202E00E0000200025C005CC
:100B80002843F6073043E0BCBA46B146A846F0BD5C
:100B90004346002B3FD10222FF3F03E04346002B98
:100BA0002DD1012231004B466140C9B213430F2BB6
:100BB00034D84D489B00C3589F46002D13D10423C1
:100BC0009946033B00279A4691E7002D05D108235B
:100BD0009946063BFF279A4689E70C239946093B2D
:100BE000FF279A4683E7280002F01CFB7627431F65
:100BF0009D4000237F4299469A463F1A77E7404638
:100C000002F010FB4246431F9A4076235B42904617
:100C10001B1A00227DE7FF2303227AE70E00FF2044
:100C20000025ACE70120C01A1B28A6DC9E372A004D
:100C3000BD40C2406B1E9D4115436B0704D00F237E
:100C40002B40042B00D004356B0144D50120002536
:100C500095E7FF20002592E780250026FF20ED0381
:100C60008DE7002398468020C003054209D0434603
:100C7000034206D1454605436D022600FF206D0A5A
:100C80007DE78020C00305436D02FF206D0A76E7F3
:100C900042466B015001834219D21B220025013FBD
:100CA00001261C006D005B00002C01DB984201D87E
:100CB0001B1A3543013A002AF3D15A1E93411D43B2
:100CC0003B007F330E00002B00DD41E7AAE71A222C
:100CD00001251B1AE4E7AD0100206D0A4FE7C0466D
:100CE000B0E70008FFFFFFF7F0E7000870B542002B
:100CF00045024E024C00C30F6D0A0120120E760A07
:100D0000240EC90FFF2A06D0FF2C03D0A24201D126
:100D1000B54206D070BD002DFCD1FF2CFAD1002EBB
:100D2000F8D18B4206D00120002AF3D12800431EBF
:100D30009841EFE70020EDE770B5420045024E0212
:100D40004C00C30F6D0A120E760A240EC80FFF2A3C
:100D50001BD0FF2C0ED0002A1BD1002C01D1002E5D
:100D60001CD0002D0CD083421CD00221581E0840FC
:100D7000013870BD002E22D1002AF4D1002DF2D10D
:100D80000028F6D101204042F3E7002D17D1FF2CB7
:100D9000F0D0002CE7D1002EE5D1E6E70020002DB1
:100DA000E7D0E2E7A24205DCEADBB54202D8E7D3AE
:100DB0000020DEE74342584140000138D9E70220D5
:100DC0004042D6E770B5420045024E024C00C30FC8
:100DD0006D0A120E760A240EC80FFF2A0BD0FF2CC4
:100DE0000DD0002A1FD1002C16D1002E14D10020C6
:100DF000002D10D009E0002D0CD1FF2C13D1002EB6
:100E000008D1002A08D0834212D00221581E08407F
:100E1000013800E0022070BD002DF4D10028FAD185
:100E200001204042F7E7002CEDD1002EEBD1ECE79A
:100E3000A24205DCF2DBB54202D8EFD30020EAE79C
:100E40004342584140000138E5E7C046F0B54F46FF
:100E50004646D64644024500C0B5640A0F1C2D0E16
:100E6000C60F002D00D18DE0FF2D00D192E00023B0
:100E7000802099469A46E400C00404437F3D7802EE
:100E8000430A98467B001B0EFF0F002B00D170E039
:100E9000FF2B00D186E04246D00080227F3BED1838
:100EA0000023D204024390469C4631004B467940D1
:100EB000681C0F2B1CD8764A9B00D3589F463900DC
:100EC0004446E2465346022B0FD0032B00D1D7E015
:100ED000012B37D100200024C0052043C907084357
:100EE000E0BCBA46B146A846F0BDFF200024F3E7B7
:100EF000260C2404220C44462404240C43462700D8
:100F00001B0C574374435A435E4312193B0C9B1806
:100F10009C4203D980225202944666443F041A043C
:100F20003F0CD2199401671EBC411B0C920E9B19F9
:100F300014439B011C431B0100D49BE00123620866
:100F40001C40144302007F32002A64DD630704D092
:100F50000F232340042B00D00434230103D50200C7
:100F60004C4B80321C40FE2ABFDCA401640AD0B284
:100F7000B2E74346002B3DD14A4601331A4391461E
:100F80009C4692E7002C29D104239946033B002577
:100F90009A4674E7002C1BD108239946063BFF258F
:100FA0009A466CE74346FF35002B0BD102234A4695
:100FB0001A4391469C4678E753463100022B00D0F5
:100FC00083E792E703234A461A4391469C466CE71F
:100FD0000C239946093BFF259A4650E7200002F072
:100FE00021F97625431F9C4000236D4299469A467D
:100FF0002D1A44E7404602F015F94246431F9A4035
:1010000000232D1A90469C46763D4EE78024002111
:10101000FF20E40360E701239B1A1B2B00DD59E747
:1010200022009E30DA4084401300621E94411C432B
:10103000630704D00F232340042B00D00434630142
:101040001AD50120002447E78020C003044209D0BC
:101050004346034206D14446044364023900FF205C
:10106000640A39E78020C003044364023100FF2092
:10107000640A31E7280065E7A4010020640A2BE731
:101080008020C00304436402FF20640A24E7C046B2
:1010900030E80008FFFFFFF7F8B5CE4647464302A9
:1010A0005B0A4E02DA009446720A914645004A00F5
:1010B00080B52D0E1F00C40F120EC90FB609FF2AEE
:1010C0005BD0012041408C4239D0A81A00285ADD5B
:1010D000002A6AD0FF2D00D1D9E08022D204164325
:1010E0001B2800DCE9E001206346181A430100D404
:1010F000B4E080018709380002F094F80538874091
:10110000854200DCCCE02D1AB5483840430704D0B6
:101110000F230340042B00D00430430100D4A0E08F
:101120006A1CFE2D00D18DE08001470AD2B2D005A5
:101130003843E4072043C0BCB946B046F8BDA81AFE
:101140008046002845DD002A70D0FF2D00D19EE0AA
:101150008023DB041E4343461B2B00DCD2E001202E
:10116000604443017AD50135FF2D6BD001239D4AA0
:101170000340400810401843C8E7002E20D08C429E
:1011800023D02800FF38002839D0571B002D00D06D
:101190009DE06346002B00D1DBE07B1E012F00D1D8
:1011A0000DE1FF2F71D01F0098E0002E00D1A7E0C5
:1011B000421E012800D1E6E0FF2868D010008FE72A
:1011C00001204140A14200D07FE7FF2040428046FD
:1011D000A8444046002838D0511B002D00D1AEE075
:1011E000FF2A00D1DFE080236046DB0418438446F9
:1011F0001B2900DCD9E0012015008019B1E7FE2091
:101200006A1C104271D1002D00D0A6E06346002B6D
:1012100000D1D9E00022002E00D188E7981B4301BD
:1012200000D4E1E063460C00F01A6FE7002E00D115
:10123000B7E00200013A012800D19CE0FF2826D047
:10124000904688E7FF22002771E7FE206A1C1042C3
:1012500064D0FF2AF6D0150066447008430700D01A
:1012600056E7C308FF2D12D05B025F0AEAB25EE7C1
:101270006246002A00D196E0002E08D08022D203D8
:10128000134204D04846104201D10C004B46002BBB
:10129000D8D08027FF031F437F02FF227F0A46E743
:1012A00020233A00451B38000135EA405D1BA84069
:1012B000431E98410025104328E720231B1A3200C3
:1012C0009E40C2403000431E984110430CE7FF2A65
:1012D000DBD080236046DB04184384461B2F56DD99
:1012E00001200C001500301A00E763469F1B7B01AC
:1012F0003DD4002F00D0FEE600240022002716E790
:101300000500AFE7320043464146DA4020235B1A2E
:101310009E403000431E9841104321E7002DA7D185
:101320006346002B59D00022002E00D1FFE630008A
:101330006044430192D52A4B013518408EE763463D
:10134000002B47D04B1E012915D0FF292BD01900A7
:101350004EE70C004B463D0084E76246002A8BD1E5
:10136000002E92D180270024FF22FF03DFE6634690
:101370000C00F71ABFE6300060440125430100D499
:101380006CE70225F2E663460125981BAEE62023B2
:1013900064466046FC40DF1BB840431E9841204332
:1013A0009FE705005EE74B4671E7202365466046F0
:1013B000CD40591A8840431E984128431CE7634694
:1013C0000C000125F01A91E6002E95D00C004F4636
:1013D0000022ACE64B460D0044E74F460022A6E64D
:1013E000FFFFFFFBFFFFFF7D002800D036E7002452
:1013F00000279CE641024200C30F490A0020120E5A
:101400007E2A03DD9D2A02DD094A98187047802054
:1014100000040143952A07DC9620821AD1404842F5
:10142000002BF3D10800F1E7963A9140F7E7C04668
:10143000FFFFFF7F70B5051E0ED001F0F3FE9E2367
:1014400004001B1A962B0CDC082801DD083CA54083
:101450006D026D0AD8B201E000200025C0052843C6
:1014600070BD992B09DD020029001B3291404A1EF4
:1014700091410522121AD5400D43052C12DC29009A
:101480000C4E31406A0709D00F202840042805D0AF
:1014900004314A0102D59F2331401B1B89014D0AAB
:1014A000D8B2DBE7621F95402900024E31406A073F
:1014B000F4D0E9E7FFFFFFFBF0B54F464646D646BE
:1014C0000D000400C0B51F0011002803620F400A80
:1014D00010437A00520DE3003C039146640AFA0F70
:1014E0004F0F6E0027439246B846760DED0FC900A8
:1014F000954200D199E04C46341BA446002C00DCF8
:101500007CE04A46002A00D1B8E0C54A964200D1A4
:101510001CE180223C0012041443A0466246382A93
:1015200000DD61E11F2A00DDCCE164462022121BB0
:10153000444694400F00A14664469140E7404C4623
:101540004A1E91413C43424621436446E240801A90
:101550005C1AA3429B415F42C71B3B0200D4D0E010
:101560007F027F0A002F00D1FFE0380001F05AFE11
:1015700001000839202322005B1A8F40DA408C409A
:101580001743B14200DAFFE0891B4B1C1F2B00DD23
:10159000A8E020223900D21A200094409140D8407F
:1015A000621E9441DF40002601430C43630709D0CB
:1015B0000F232340042B05D0231DA342A4416442E2
:1015C0003F191C003B0200D49EE0954B01369E4221
:1015D00000D1B7E0934AE40817407B0771057F020A
:1015E00023433F0B4A0D12053A43ED072A431800E7
:1015F0001100E0BCBA46B146A846F0BD002C4BD065
:101600004C46A41BA446002E00D023E104001C433A
:1016100000D1AFE16246541E012A00D115E2804D8F
:10162000AC4500D1C8E1A4461BE14A46B21A944633
:10163000002A00DCACE04A46002A43D0784A9642B1
:1016400000D1AFE180223C0012041443A046624660
:10165000382A67DC1F2A00DC5FE14746203AD74082
:101660006246202A05D064464022121B444694401C
:1016700021434A1E91410C003C4357E03A000A4383
:1016800000D105E12200013A012C00D182E1644C35
:10169000A4455BD0944641E7634C771C274200D0B9
:1016A000C4E004001C43002E00D069E1002C00D1EE
:1016B000BFE144460C4300D0D0E14207DB081343AE
:1016C000C00829E03A000A4300D170E1624664464E
:1016D000013A012C00D1E0E0514CA44500D161E178
:1016E0009446B4E73A001F39CA401100202B03D0BA
:1016F0004022D31A9F403C43631E9C410027002692
:101700000C43630700D053E7B446E4087B07234348
:10171000F808434A94451DD06246070352053F0B23
:10172000520D60E744460C43621E9441E4189C420B
:101730009B415F423F183B02E3D5394B01369E4245
:1017400000D0B5E03200002700234CE74207DB0859
:101750001343C0081A00024300D1E1E180273F0390
:1017600007433F032E4A3F0B3DE7200001F05AFD9F
:10177000010018311F2900DCFCE6083884402700EE
:101780000024B14200DBFFE6264A761A17400DE737
:10179000002A2FD04A46921B9446002E00D1ADE07D
:1017A0001F4A914500D10FE1802212041043624686
:1017B000382A00DD0FE11F2A00DD80E16446202287
:1017C0001E00121B6746040093409440FE405A1EC0
:1017D0009341F84034431C43804464188C42BF4119
:1017E0007F424E464744A6E742460A4311004A1E3E
:1017F0009141ADE60C4C721C224200D0A1E00200E7
:101800001A43002E00D0FAE0002A00D145E13A0048
:101810000A4300D046E14207DB081343C0087BE7D8
:10182000FF070000FFFF7FFFFE07000047465C1A2E
:10183000C21BA342BF417F42B94617004A46BF1AA6
:101840003A0200D58DE023003B4300D08AE6002019
:10185000002561E7B44CA14500D1ADE0802424040B
:1018600020436446382C3DDC62461F2C00DDB7E087
:1018700020251E002D1B0400AB40AC40D640D040BC
:1018800042465D1EAB413443121A904623432CE07E
:101890004207DB081343C0083BE75C189C429B41AE
:1018A00040445B42C71801263B0200D429E70226C8
:1018B0009E4A63081740012214401C43FB071C4347
:1018C0007F0873E64446203AD4406246202A05D079
:1018D00067464022D21B4746974039434A1E9141F2
:1018E000214335E60343581E8341CC1AA142BF4130
:1018F00043467F4255464E46DF1B2EE602001A4302
:1019000000D1BDE062466446013A012C00D1E5E019
:10191000854CA44558D0944649E764462022121BC2
:10192000444694400F00A14664469140E7404C462F
:101930004A1E91413C4342460C436146CA408018CE
:10194000F4E6794CA24200D1FDE6591899429B4138
:1019500040445F42C719FC07490816000C437F0842
:10196000CFE6CC1AA142BF4143467F42181A5546E2
:10197000C71BF7E5C9087B0755460B43F808C8E6BF
:10198000002C00D081E043460B4315D18020002578
:101990000003E3E65C1AA3429B41C71B5B4201269E
:1019A000FF1ADAE54207DB081343C008D2E6420714
:1019B000DB081343C008ACE643464246C9085B0750
:1019C00055460B43D008C5E6434642465B07C90867
:1019D0000B43D008BEE603431C00631E9C41FCE69B
:1019E0000200203CE24014006246202A03D0402539
:1019F000AD1AA8400343581E8341234375E7002ACC
:101A0000E2D03A000A43CDD04207DB0813438022DC
:101A1000C0081203104206D0FC08144203D1200073
:101A2000CB087A0713435A0FDB005207DB08134336
:101A300090E643460B4300D109E743464246C908B6
:101A40005B0755460B43D00866E6CC1AA142894194
:101A50003F1A4942554601267F1A7EE542465C1AE6
:101A6000871AA34292415242BF1A3A023DD5CC1A7C
:101A7000A1428941434649421F1A55467F1A95E5BE
:101A80007B07C9080B43F80843E64446DB080C43D0
:101A900030D142071343C0085CE67B07C9080B43FB
:101AA000F80839E65C189C429B4140445B42C718E9
:101AB0003B0200D425E61D4B01261F4021E6040011
:101AC000203AD4406246202A04D040226646921B27
:101AD000904003435A1E93411C437EE65C188C429F
:101AE0008941404449424718DDE623003B4300D189
:101AF000ADE606E6440723438024C00824032042C1
:101B000008D04246D608264204D155463000CB08BC
:101B100051070B435A0FDB00DB085207134319E64A
:101B20000023014A1F005EE5FF070000FFFF7FFF63
:101B3000F0B557464E464546DE46E0B581460500BF
:101B40000C03480092461F0085B0240B400DCE0FB9
:101B5000002800D156E1D44B984200D172E16B0FBE
:101B6000E4001C4380231B0423439846CF4BED0025
:101B70009B4600239946834400933C037B005046D8
:101B8000240B5B0DFF0F002B00D11FE1C64A9342CF
:101B900000D162E1C549420F8C46E4005946144326
:101BA000802263441204CB1A14439B46C2000020D7
:101BB00033007B409A464B460F2B27D8BC499B00ED
:101BC000CB589F46B246009B022B16D0032B00D168
:101BD0008EE2012B00D0D9E00023002400255246DC
:101BE0001B052343D20713432800190005B0F0BC9E
:101BF000BB46B246A946A046F0BD00240025AA4B2C
:101C0000EDE7BA46A04615000090DCE7444500D257
:101C1000C7E100D1C2E101235B429C462E00404651
:101C20000025E3442302140E1C431B0C9946230495
:101C30001F0C1202494600920197FEF707FB0200B3
:101C40007A430B04310C804619438A4207D9012399
:101C50005B429C460919E0448C4200D807E2881A8E
:101C60004946FEF7F3FA09048C4631046646019AA8
:101C7000090C4243030031438A4204D90919013B4C
:101C80008C4200D8EDE1881A424612041A4390466D
:101C90004146009B0E041B0C1F000293009B360C58
:101CA0001B04190C0B007343120C7E430391514328
:101CB0007A431F0CBC4676186644B14203D9802192
:101CC00049028C466244310C8A1831041E04360CD9
:101CD0008E19904202D312D1B54210D24346591EFA
:101CE000009B9C4665441F009D429B415B421B1923
:101CF000C018844200D2A0E100D19BE18846AE1B0F
:101D0000B542AD41801A6D42401B844200D1D5E1FD
:101D10004946FEF79BFA019A0B044243310C050039
:101D200019438A4200D96CE1881A4946FEF78EFAB7
:101D3000019A360442430904360C03000E43B242B2
:101D400000D953E10398B61A02002D041D43029FE7
:101D50002B041B0C5A437B439C46290C4843130C11
:101D6000844463447943984203D9802040028446E6
:101D70006144180C12041B04120C41189B188E426B
:101D800000D2FFE000D1FAE001231D43494A5A4442
:101D9000002A00DCAAE06B0700D03DE1ED084346D5
:101DA000DB0106D54246444B1A4090468022D200C1
:101DB0005A44424B9A4200DD1FE743465B071D43EE
:101DC000434652055C02240B530D08E7524622435A
:101DD00000D17BE0002C00D1FAE0200001F022FAD3
:101DE00002000B3A1D2301009B1A52460839DA40C3
:101DF0008C40144352468A40314B58449B4683449E
:101E00000020D5E64B462343984644D0002C00D111
:101E1000CEE0200001F006FA010002000B391D237C
:101E20005B1A49461000D940083884400B004D46E3
:101E30002343984685402348831A9B4600239946AE
:101E400000939AE64B46234398461DD108239946B2
:101E5000063B0025834600938FE65246224309D174
:101E6000022349461943184B89469C460024022008
:101E7000E3449DE603234A461A43134B91469C468E
:101E800052460320E34493E60C239946093BA046BF
:101E90008346009371E60423994600239B46013351
:101EA0000025009369E6C046FF07000001FCFFFF24
:101EB00070E80008FF030000FFFFFFFEFE070000C0
:101EC000F30300000DFCFFFF01F8FFFF494601236B
:101ED00019438946002401206AE6002380249A469B
:101EE00000258A4B24037AE601256D4201239B1AC3
:101EF000382B00DD70E61F2B00DCBFE01F214942BC
:101F00008A1A4146D1400A00202B04D04146804B1A
:101F10005B4499400D436B1E9D4107232A431D00DE
:101F200000241540134200D1D4E00F2100231140BA
:101F3000042900D1CBE0111D9142924152429B18DD
:101F40000A00190200D4C2E001230024002546E65D
:101F5000802341461B03194208D01C4206D11C4372
:101F60002403BA461500694B240B38E68024434607
:101F700024031C432403B246644B240B2FE6002B9E
:101F800000D103E7A619681EA64200D28DE08E425A
:101F900000D2A3E000D1B3E00500F5E6AA4200D9E3
:101FA00039E64346DE0758086B081E43ED0739E65D
:101FB000484601F037F901000200153120321C2992
:101FC00000DC2CE74B46083883400025984632E772
:101FD00001F028F903001A00153220301C2A00DC19
:101FE00000E75446083B00229C4005E73619013BB8
:101FF000B44200D9A6E6B24200D8A3E6831E361941
:10200000A0E60919013D8C4200D98DE68A4200D82C
:102010008AE6851E091987E60F232B40042B00D181
:10202000BCE605235B42AB429B4104355B42ED08B5
:102030009844B4E6AF4200D960E6824204D800D0AA
:102040005CE6AE4200D859E602235B429C46009B08
:10205000E0449C4665449D429B415B421B19C0186D
:102060004DE68A4200D80EE6831E09190BE68A4225
:1020700000D8F4E5831E98460919F0E525492800A3
:1020800059448D4042468A40691E8D414146D840A0
:10209000D94002432A430B00510700D151E70F21D9
:1020A0001140042900D046E74BE705008E4200D0DE
:1020B0006AE6009A934200D066E667E6164A5A44FA
:1020C000002A00DC10E701230025984467E65D073D
:1020D0005B021C0BD2080023154380E50098023DEB
:1020E00042008242BF417F423C1936190092DDE72F
:1020F0008024434624031C432403044B240B6EE535
:10210000009A9A42EAD30500D3E7C046FF070000D1
:102110003E0400001E040000FF030000F0B54E4620
:102120004546DE4657469046E0B517001A03120BA7
:102130000500844619480E034C0091465A00DB0FF7
:102140009B46360B640DC90F520D844219D0824252
:1021500010D0012094420ED14E450CD10120C4452F
:1021600009D1594517D0002C05D130002843431E12
:10217000984100E00120F0BCBB46B246A946A0460B
:10218000F0BD330001202B43F5D1A242F3D14B46E1
:102190003B43F0D1E2E70020EDE7C046FF07000037
:1021A000F0B54746CE460400180016001B031B0B73
:1021B0002D4D4A00994680B543000F03A446B04612
:1021C0003F0B520DC90F5B0DC00FAA4221D0AB428D
:1021D00013D0002A22D13C43002B02D14D462E437E
:1021E00022D0002C10D0814222D002200139084098
:1021F0000138C0BCB946B046F0BD4D462E4329D18A
:10220000002AF0D13C43EED10028F2D10120404217
:10221000EFE73D0025431DD19342EED0002BE2D1E4
:102220004C462643DFD1E0E70020002CE1D0DCE77C
:102230009A420ADCE8DB4F45D7D80ED000204F4544
:10224000D7D20029E2D00800D3E7434258414000EA
:102250000138CEE702204042CBE7C445C5D8002074
:10226000C445C6D2EDE7C046FF070000F0B54746BB
:10227000CE460400180016001B031B0B2C4D4A0011
:10228000994680B543000F03A446B0463F0B520D5C
:10229000C90F5B0DC00FAA420DD0AB4210D0002A6F
:1022A00027D13C43002B11D14D462E430ED10020A7
:1022B000002C15D00EE03D00254310D1934218D1DB
:1022C0004D462E430BD1002A02D13C43002C0BD0AB
:1022D000814214D0022001390840013800E0022078
:1022E000C0BCB946B046F0BD0028F9D1012040423B
:1022F000F6E7002BECD14C462643E9D1EAE79A42B7
:1023000004DD4342584140000138E9E79A42EBDBE3
:102310004F45DFD806D000204F45E1D20029E5D057
:102320000800DDE7C445D5D80020C445D8D2F5E77C
:10233000FF070000F0B557464E464546DE46E0B57D
:1023400098460C034B000600924687B0240B5B0DA9
:10235000CF0F002B00D15CE1D94A934200D175E147
:10236000420FE4001443802212041443D54AC500EE
:10237000944663440093002399469B464346424655
:102380001E03D20F5B0050469046360B5B0D00D10A
:1023900020E1CB4A934200D162E1CA49420F8C4608
:1023A00000996344F6008C46164380229C44120434
:1023B00063461643C2000020009300994346013152
:1023C0008C4649467B4001930F2926D8BE4B890095
:1023D00059588F46434601933400150083465B46A7
:1023E000022B16D0032B00D103E2012B00D0CDE04D
:1023F000002200240025019B12052243DB071A431B
:102400002800110007B0F0BCBB46B246A946A04662
:10241000F0BD00240025AA4AEDE7280C2D042D0C60
:102420002B00110C1204120C5343984613002F007A
:10243000434399464F434F44BB4647460B003F0C2E
:10244000BA464343DA440293D14504D980277F0238
:10245000B9464B44029353461B0C9B4653461F04FC
:1024600043461B041B0C98463B0043440493330C27
:102470003604360C9846330043439946434643435B
:102480002F009A46434677435D43380C4D44451927
:10249000A94503D980235B029946CA443F04280C0E
:1024A0003F0C2D04ED19270C2404240C03002000FC
:1024B00050437A4391463A0053440593030C9A469D
:1024C0004A43614349445144AB44894503D980237D
:1024D0005B0299464A4400040B0C000C09040918DD
:1024E00020009946434670435C437E435F43030CA0
:1024F0009846A41944444A440397A64204D9802329
:102500005B029846474403972304029E9A46059B24
:102510005E449846AE42AD4176188E428941000431
:10252000000C504440446D424719B8469346494216
:102530008946C344D94498428041A845AD4193455A
:102540009241894589416D4240422843240C5242C0
:1025500049420A43039B00198018C7184B46DC0DFB
:10256000049B75021D436A1E95414B46F60D7F0282
:1025700035435A023C431543FB0100D41CE10121C1
:102580006A080D401543E207154364084F4961444A
:10259000002900DCB0E06B0709D00F222A40042A92
:1025A00005D02A1DAA42AD416D4264191500E30110
:1025B00004D58021464AC90014406144454A9142ED
:1025C00000DD26E76207ED08640249051543240B88
:1025D0004A0D10E75246324300D17FE0002E00D171
:1025E000DCE0300000F01EFE02000B3A1D2301006B
:1025F0009B1A52460839DA408E40164352468A40AA
:10260000009B3549181A03008C4663440020009350
:10261000D3E6250005434AD0002C00D1B0E02000CD
:1026200000F000FE010002000B391D2310005B1AB0
:102630003100350008388440D94085400C43264895
:10264000831A0093002399469B4697E6050025438D
:1026500026D1082200930223002491469B468DE652
:102660005246009B324310D1154900268C466344E4
:102670004946009302231943894602209DE65B46A2
:102680000197022B00D0ADE6C3E60D4A0320944625
:1026900063444A46009303231A43914652468CE60C
:1026A0000C2200930323050091469B4666E6042313
:1026B000994600230093013300249B465EE6C04602
:1026C000FF07000001FCFFFFB0E80008FF03000067
:1026D000FFFFFFFEFE0700000DFCFFFF4946012340
:1026E000194389460026012067E60023802400253F
:1026F000434A019324037EE60120401A382800DD76
:1027000076E61F285BDD1F2223005242511ACB4080
:102710001900202803D03B4A6244944025436A1E96
:1027200095412A000A4307210D000024154011425B
:102730005BD00F2100241140042953D0111D914278
:1027400092415242A4180A0023024BD501220024D0
:10275000002550E680231B031C4209D01E4207D1EE
:1027600033431C0343461500240B254A019342E6DC
:102770008022120314432403214A240B01973AE6D2
:1027800000F050FD01000200153120321C2900DC50
:102790004BE7340008380025844050E700F042FD44
:1027A00003001A00153220301C2A00DC1EE75646B2
:1027B000083B00229E4023E7009B9C46E6E6124928
:1027C000220061442E008D408A40C640691E8D4122
:1027D00032432A43C4405307B6D00F211140042985
:1027E000ACD1B1E765076402240BD208154300227F
:1027F00001E68022120314432403014A240BFAE564
:10280000FF0700003E0400001E040000F8B5574614
:102810004E464546DE46E0B51E0017004A000B0353
:10282000520D5B0A9046420F1A43CD0FCD4C310337
:10283000C300944670007A0F490AFF009A46B946D1
:10284000400DF60F1143A04200D1B1E001225640E5
:10285000B346B54200D188E04246121A002A00DC95
:10286000AEE0002800D1C1E0BE48804500D151E172
:10287000802000040143382A00DD7BE11F2A00DDAF
:10288000EEE120203E00801A0C00D640D140874067
:1028900062468440521A781E874194463443274347
:1028A000DC1BA3429B4162465B42D31A99464B46CE
:1028B0001B0200D418E14B465802430A99464B4686
:1028C000002B00D137E1484600F0ACFC010008398C
:1028D0002023220048465B1ADA4088408C40434659
:1028E0001043884500DD36E1C91A4B1C1F2B00DD63
:1028F000EAE020222600D21A01009440DE40D840AF
:1029000000239140621E94418146984631430C4316
:10291000630709D00F232340042B05D0231DA342B6
:10292000A4416442A1441C004B461B0200D4DEE0DB
:1029300041468C4B0131994200D1E7E04B468A4831
:10294000E4080340180049055B07400223434A0D91
:10295000040B1205ED0722432A4318001100F0BCB6
:10296000BB46B246A946A046F8BD4246121A002A06
:1029700052DD002800D19CE0A04500D1CAE08020B3
:1029800000040143382A00DD49E11F2A00DC97E1F9
:1029900010000E002038C640202A04D04020821AA1
:1029A00091400F43B9464C46621E944134433AE18C
:1029B0000A003A4328D0B346B5422BD06B4A424472
:1029C000002A5DD042464446821A002C00D0F5E031
:1029D00065461D4300D19CE1551E012A00D1FBE153
:1029E000604CA24200D1BDE12A00F0E0080038436B
:1029F00000D1C3E0501E012A00D1A8E1594CA242E7
:102A000000D187E0020036E701225640B346B542C6
:102A100000D021E7554A4244002A00D1B5E04246A1
:102A20004446821A002C00D138E14E4EB04200D10B
:102A3000DEE18026644636043443A446382A00DDAD
:102A400096E11F2A00DD24E22026B41AA24664463D
:102A50005646B440A1461C004E46D440264334009E
:102A60005646B3405E1EB3411C436346D340C9186B
:102A7000E419BC42BF417F42B94680468944D8E050
:102A800040463B4C0130204200D0B4E04046002894
:102A900000D044E16046184300D190E1080038437B
:102AA00000D0AAE16146DB0849070B436146CC0828
:102AB00027E00800384361D0501E012A00D139E1D7
:102AC000A24227D002005DE702001F39CA40110070
:102AD000202B03D04022D31A98400443631E9C410C
:102AE0000023994698460C43630700D012E74B46F3
:102AF0004A46E4085B072343D408424619498A4200
:102B00000ED024035205240B520D22E70A000024A4
:102B100000231EE7DB086246520713436246D408CF
:102B20001A00224300D1FCE1802212031443240343
:102B30000C4A240B0DE7200000F074FB0100183153
:102B40001F2900DCC4E608388440434620000024E6
:102B5000884500DCC8E6044A5B1A10409846814666
:102B6000D6E6C046FF070000FFFF7FFF01F8FFFF2A
:102B7000FE0700000F437A1E974191E66146DB088D
:102B800049070B436146CC08B8E74046D34C0130B7
:102B9000204200D0A2E04046002800D001E160467B
:102BA000184300D15EE10800384300D05FE1614680
:102BB000DB0849070B436146CC08A2E7C84DA84291
:102BC00000D1CFE0802564462D042C43A446382A4A
:102BD00056DC1F2A00DDD1E020251E00AD1A644618
:102BE000AB40AC40D6405D1EAB413443234364460A
:102BF000D440091B49E06046DC1B461AA3428041D1
:102C00004042814630004E46801B8146000276D409
:102C10004B46234300D052E60024002571E7394398
:102C20000C00621E9441E4189C429B415B42634449
:102C300099464B461B0200D456E701239C46A84BFD
:102C4000E044984538D04B46A6480122034018007E
:102C5000630814401C43C3071C434308994657E6C6
:102C600010000E002038C640202A04D04020821ACE
:102C700091400F43B9464F467A1E974137430FE6BE
:102C800062461A4313005A1E9341FC1AA742BF41E1
:102C90007F42CB1B99465D46804608E666461E434A
:102CA00000D1BEE0561E012A00D109E18C4CA2429F
:102CB00000D119E13200C1E642460024002348E673
:102CC00020200C00801A3E0087408440D640781EA9
:102CD0008741D14034433C438C44A4E7804A90422E
:102CE00000D1E9E0DF199F429B4161445B42C91872
:102CF000CC077F084B08994680463C43F4E6FC1A13
:102D0000A742BF4163467F42C91ACB1B99465D4625
:102D1000D5E5FF084B075D463B43CC08EEE662462F
:102D20001A4300D082E00B003B431BD180240025D6
:102D30002403F9E6DC199C429B41614489465B42CD
:102D400099444B461B0244D401239846CCE6DC1B35
:102D50006246A3429B41511A5B42CB1A994601231A
:102D60009846A4E5FF084B075D463B43CC08D7E6F1
:102D700062461A431400631E9C4179E615006446BE
:102D8000203DEC40A046202A05D040256446AA1AE2
:102D9000944023439A465446631E9C414346234332
:102DA00073E762461A4323D00A003A4300D0A0E0FA
:102DB0006246DB08520713436246D408B0E60B00B4
:102DC0003B4300D128E7FF084B075D463B43CC0857
:102DD00097E60223984636E7FC1AA742BF416346AE
:102DE0007F42C91ACB1B994601235D4698465EE592
:102DF0004B07FF083B43CC0892E6DC1B6046A3422E
:102E0000B641401A7642801B8146000260D5FC1A0A
:102E1000A742BF4163467F42C91ACB1B99465D4614
:102E200076E5FF084B073B43CC0867E60A00DB0862
:102E30003A4300D16FE66246520713436246D40814
:102E400080221203144207D0C808104204D15D4604
:102E50000400FB0849070B435A0FDB00DB0852074D
:102E600013435DE64B07FF083B43CC0849E6DC19FA
:102E70009C429B41614489465B4299444B461B02FC
:102E800000D431E64A46174B1A4001239146984632
:102E90002AE616006446203EF440A046202A05D0CB
:102EA00040266446B21A944023439A465446631E11
:102EB0009C4143461C43DBE502000024002348E517
:102EC000DC19BC42BF41614489467F42B94438E7BE
:102ED0004B46234300D19FE606E6C046FE070000AE
:102EE000FF070000FFFF7FFFFF084B073B43CC08B5
:102EF00016E66246DB08520713436246D408802276
:102F00001203144207D0C808104204D15D460400E1
:102F1000FB0849070B435A0FDB005207DB0813433A
:102F2000FEE50023014A1C0013E5C046FF07000030
:102F300070B505000C481C0316005B000A0349002D
:102F4000120B490D240B5B0D814208D0064A00206C
:102F5000934203D120003043431E984170BD0120AD
:102F60002A43FBD1F2E7C046FF0700000A0030B554
:102F7000134C530009030500090B00205B0DD20F11
:102F8000A34204DD0F48834202DD0F4BD01830BD51
:102F90008020400301430D48C01A1F2808DD0C485B
:102FA000C31AD9400B005842002AF0D11800EEE7AE
:102FB000084CC540A446634499400B002B43F2E7FC
:102FC000FE0300001D040000FFFFFF7F330400002C
:102FD00013040000EDFBFFFF70B5002816D0C317E7
:102FE000C5185D40C40F280000F01CF9114A121AE0
:102FF0000A2816DC03002E0015339E400B23181AF6
:10300000C54052052D032D0B530D03E00024002372
:10301000002500261B052B43E4072343300019003D
:1030200070BD0B38854052052D0300262D0B530D26
:10303000F0E7C0461E04000010B5041E10D000F0DA
:10304000F1F80F4B1B1A0A2811DC0B222100121A6F
:10305000D14015300A035B058440120B5B0D01E083
:10306000002300221B0513432000190010BD22007D
:103070000B3882405B0512030024120B5B0DF1E755
:103080001E04000070B543004602C40FFE201B0E54
:10309000591C750A08420CD0E022920094466D0734
:1030A000360B63441B053343E40723432800190010
:1030B00070BD002B14D1002D1BD0280000F0B2F8F9
:1030C0000A281CDC0B232E001B1ADE4003001533DC
:1030D0009D400E4A3603121A5205360B530DE1E796
:1030E000002D09D08022360B1203094B6D071643C1
:1030F000D8E700230026D5E70026054BD2E70300DA
:103100000B3B9D402E000025E3E7C04689030000ED
:10311000FF07000002004B00F0B55B0D0C033D4EB5
:10312000640A400F5F1CC90F0443D50037420AD020
:1031300039481E18FE2E16DDFF200024C00520434E
:10314000C9070843F0BD002B06D12C4326D0052229
:103150009201540AD8B2F1E72543EDD08020C00394
:103160000443FF20EAE7002E1BDD9201531E9A4123
:10317000E4006D0F22432A43530748D00F23134026
:10318000042B00D004328023DB0413403FD0701C9A
:10319000FE2ED1D09201540AC0B2CFE70020002405
:1031A000CCE73200173222DB8020000420431E24AB
:1031B000A41B1F2C1DDD02225242961B0200F2406E
:1031C0001600202C04D0154A9446634498400543C9
:1031D0002A00531E9A41324300265307CED1802441
:1031E0001300E404012023402242D3D1B0E700239E
:1031F000ADE70B4A94462A00E24014002A006344DB
:103200009A409840551EAA4102432243E4E7330006
:103210009EE7C046FE07000080FCFFFFA2FCFFFF08
:1032200082FCFFFF1C2101231B04984201D3000CE8
:1032300010391B0A984201D3000A08391B09984229
:1032400001D30009043902A2105C40187047C0463F
:10325000040302020101010100000000000000005F
:1032600010B5002903D1FFF7DDFF203002E0080090
:10327000FFF7D8FF10BDC04680B584B000AF8023F3
:103280001B06FB6080231B06BB6080231B067B6044
:10329000FB1C00221A705D4B180000F03FFA5C4BDB
:1032A000180002F055FE5A4B5D229B5C002B2BD080
:1032B000574B60229B5C01225340DBB2002B1FD096
:1032C000534B5B7FFF2B17D1514B9B7FFF2B13D1B0
:1032D000FB1C01221A704E4BDB7F012B03D103F044
:1032E000DBFA0300BB604A4BDB7F022B08D103F003
:1032F000D3FA03007B6003E003F0CEFA0300FB6027
:10330000434B5D2200219954FB1C1B78002B51D0AC
:103310003F4B1B7F002B0ED080235B013D480122D9
:10332000190004F026FD80239B013A480122190070
:1033300004F01FFD0DE080235B01364800221900D8
:1033400004F017FD80239B0132480022190004F08D
:1033500010FD03F0A1FA0200BB68D21A96235B00AD
:103360009A4207D280239B012A480122190004F0C7
:1033700000FD06E080239B0126480022190004F08E
:10338000F8FC03F089FA02007B68D21A96235B00EE
:103390009A4207D280235B011E480122190004F0E3
:1033A000E8FC7CE780235B011A480022190004F046
:1033B000E0FC74E7164B1B7F002B07D080235B01DA
:1033C00014480122190004F0D4FC06E080235B01BC
:1033D00010480022190004F0CCFC03F05DFA020052
:1033E000FB68D21A96235B009A4207D280239B0186
:1033F00008480122190004F0BCFC50E780239B011F
:1034000004480022190004F0B4FC48E7F8E1000881
:10341000940400200004005080B500AF2C4B18002D
:1034200000F07CF92B4B180002F092FD294B5D2235
:103430009B5C002B10D0274B60229B5C01225340E9
:10344000DBB2002B04D003F027FA0200224B1A60F3
:10345000204B5D220021995403F01EFA02001F4BFD
:103460001B68D21AFA23DB009A4204D903F014FA3B
:1034700002001A4B1A6003F00FFA0200164B1B6889
:10348000D21A96235B009A4207D280239B011448EC
:103490000122190004F06DFC06E080239B01104816
:1034A0000022190004F065FC0A4B1B7C032B07D19A
:1034B00080235B010A480122190004F05AFCB1E79D
:1034C00080235B0106480022190004F052FCA9E7A2
:1034D00014E2000894040020540200205802002046
:1034E0000004005080B582B000AF0200FB1D1A70CE
:1034F000FB1D1B78002B0CD0FB1D1B78013BDBB2A6
:103500001800FFF7EFFF020013009B009B185B0001
:1035100000E001231800BD4602B080BD80B582B036
:1035200000AF0200FB1D1A70FB1D1B789B000122DF
:103530009A4013001800BD4602B080BD90B585B01A
:1035400000AF78600A00FB1C1A700023FB600B219F
:103550007B1800221A707B1800221A7031E00B21B0
:103560007B181B787A68D3181B782F2B1ED97B18F1
:103570001B787A68D3181B78392B17D87B181B78DF
:103580007A68D3181B78303B1C00FA1C7B18127821
:103590001B78D31ADBB2013BDBB21800FFF7A2FFA6
:1035A00003006343FA68D318FB6004E001F0B8FE3F
:1035B00001235B420DE00B217B181A787B18013246
:1035C0001A700B23FA18FB1C12781B789A42C6D388
:1035D000FB681800BD4605B090BD000090B587B0EF
:1035E00000AF78600A00FB1C1A7000237B61002387
:1035F0003B610F217B1800221A707B1800221A7081
:1036000059E00F23FB181B787A68D3181B78303BDE
:10361000362B34D89A002E4BD3181B689F460023B4
:103620003B6131E001233B612EE002233B612BE053
:1036300003233B6128E004233B6125E005233B6134
:1036400022E006233B611FE007233B611CE00823C7
:103650003B6119E009233B6116E00A233B6113E05B
:103660000B233B6110E00C233B610DE00D233B611C
:103670000AE00E233B6107E00F233B6104E001F009
:103680004FFE01235B421EE0FA1C0F243B19127807
:103690001B78D31ADBB2013BDBB21800FFF73EFF09
:1036A00002003B6953437A69D3187B613B191A784E
:1036B0003B1901321A700F23FA18FB1C12781B7881
:1036C0009A429ED37B691800BD4607B090BDC046A4
:1036D000F0E8000880B582B000AF786039603A68E1
:1036E0007B68934200D913001800BD4602B080BD2C
:1036F00080B584B000AFF860B9607A607B689AB238
:10370000FA239B00B968044806F036FC7B68180071
:10371000BD4604B080BDC046AC03002080B584B077
:1037200000AF7860184B1B7E002B29D0174B1B680D
:10373000FB600A2008F038F903F0AEF80200144BE1
:103740001100180008F016F9FB681B0C9BB21A0058
:10375000FF231A401100FB681B0A9BB21A00FF23CB
:103760001A40FB689BB21800FF230340094808F089
:1037700001F97B68180008F0FDF80A2008F014F938
:10378000C046BD4604B080BD34050020002800407E
:10379000A8E20008B0E2000880B582B000AF78600F
:1037A000074B1B7E002B06D07B68180008F0E2F860
:1037B0000A2008F0F9F8C046BD4602B080BDC046F8
:1037C0003405002080B582B000AF78603960084BC6
:1037D0001B7E002B08D03A687B681100180008F0A7
:1037E000C9F80A2008F0E0F8C046BD4602B080BD26
:1037F0003405002080B582B000AF78603960084B96
:103800001B7E002B08D03A687B681100180008F076
:10381000B1F80A2008F0C8F8C046BD4602B080BD25
:103820003405002090B583B000AF391D154B02223E
:10383000180003F0BDF9052000F058FD391D114BAB
:103840000222180003F0B4F9022000F04FFD0E4BE5
:103850001B881800FDF7EEFD031C0C49181CFDF732
:10386000F5FA031C1C1C3B1D5B881800FDF7E2FDEC
:10387000031C191C201CFDF721F9031C181CBD4654
:1038800003B090BD5C0200207800F81F00004040AB
:1038900080B584B000AF0023FB600023BB60002331
:1038A0007B60A023DB0501220221180004F061FAED
:1038B000B91C3E4B0122180003F07AF9052000F0F4
:1038C00015FDB91C394B0122180003F071F90220D3
:1038D00000F00CFDBB1C1B881800FDF7ABFD031CA2
:1038E000181CFFF7CFFB02000B0000203049FEF749
:1038F0001FF902000B001000190000222D4BFEF7EB
:1039000085FF02000B001000190000222A4BFEF771
:1039100011FD02000B0010001900FFF7FBFB031C58
:10392000FB602649F868FDF7C9F8031C181CFFF76F
:10393000A9FB02000B00100019000AF065FAC02272
:10394000D2051F4BFEF7F6FC02000B001000190019
:1039500000221C4BFDF7B0FD02000B00802000068A
:103960001949FEF7E5F802000B0010001900FFF7F7
:10397000D1FB031CBB60B868FFF784FB134A144BF0
:10398000FEF744FF02000B0010001900FFF7C2FB16
:10399000031C7B60A023DB0500220221180004F039
:1039A000E8F97B68181CBD4604B080BD5C020020AD
:1039B0000000B0400000F03F0088C34000401C46BB
:1039C00066A2724000DCAE405CF831416666666615
:1039D0006612714080B582B000AF7860044B1A78EF
:1039E00001210A431A70C046BD4602B080BDC046E0
:1039F0008C04002090B583B000AF78600D4B1B782D
:103A00001C000D4B5B6878333C211800FCF798FBD9
:103A100003009C4204D9094B1800FFF77FFEFEE724
:103A2000074B5A7808210A435A70C046BD4603B076
:103A300090BDC0469004002034050020C4E2000878
:103A40008C04002080B582B000AF0200BB1D1A803C
:103A5000034B01221A72C046BD4602B080BDC0466B
:103A60001C05002080B500AF154B1A7B154B5A7111
:103A7000134B5A7B134B9A71114BDA7A114BDA7153
:103A80000F4B9A7B0F4B9A730D4B1B681800FDF779
:103A9000D1FC031C0C49181CFDF710F8031C181C62
:103AA000FCF78AFD0200074B1A60054BDA7B054BD9
:103AB0001A71034B1A89034B9A81C046BD4680BDDB
:103AC0003405002094040020D723744280B500AF51
:103AD000154B00229A72144B962292005A60124B98
:103AE0008022D2055A61104B07225A730E4B0422D2
:103AF000DA720D4B0C221A730B4B01229A730A4B8C
:103B00001422DA73084B094A1A60074B05221A81FE
:103B1000054B01221A74044B00221A76FFF7A2FF0C
:103B2000C046BD4680BDC0463405002000D6C8331F
:103B300080B582B000AF344B7B607B681B68334A32
:103B4000934200D85BE07B681B68314A934256D8A9
:103B50007B685B7B092B52D87B68DB7A042B4ED8C1
:103B60007B68DB7A002B4AD07B681B7B062B46D90F
:103B70007B681B7B0C2B42D87B68DB7B092B3ED9F7
:103B80007B68DB7B142B3AD87B689B7B342B36D04D
:103B90007B685B691F49181CFCF7B6FC031E2ED01E
:103BA0007B685B691C49181CFCF79AFC031E26D035
:103BB0007B685B683B2B22D97B685B68174A934222
:103BC0001DD87B681B89012B19D97B685B69144957
:103BD000181CFCF799FC031E11D07B685B69114926
:103BE000181CFCF77DFC031E09D079680E4B1C22C3
:103BF000180007F03FFAFFF735FF002300E001232C
:103C00001800BD4602B080BD0000080880B6390823
:103C1000BF878B3B9A99D93F00004040C0A8000065
:103C20006666E63F666646403405002090B585B07E
:103C300000AF78607B68BB6003F074FE0F23FB1855
:103C400000221A7014E00F243B191B780E4A944688
:103C500063449B001900BB681A1DBA601B681A00F8
:103C6000022003F09BFE3B191A783B1901321A70AF
:103C70000F23FB181B78062BE5D903F081FEC04605
:103C8000BD4605B090BDC0460000020280B582B0BE
:103C900000AF0200BB1D1A80BB1D1988074B042210
:103CA000180005F09FFBBB1D1A88054B110018007A
:103CB000FFF788FDC046BD4602B080BD300300203E
:103CC000ECE2000880B500AF134B1B7A002B20D12B
:103CD000124B5A7820210A435A70114B1800FFF7F3
:103CE0005BFDC0239B010F480022190004F041F83E
:103CF0000D4B180001F0CAFF02F0D8FD0B4B1A68FB
:103D00000A4B04210A431A600121012004F04CFBF4
:103D100000E0C046BD4680BD1C0500208C0400208C
:103D200004E30008000400509404002000700040E8
:103D3000B0B500AF554B00221A70554B9A7A554BCF
:103D40001B68111C1F220A40D2B2D0001A7807212A
:103D50000A40111C021C0A431A704E4B1B681A7849
:103D600001210A431A704B4B1B684B4A1278012100
:103D70000A4010005A7801218A43111C021C0A4390
:103D80005A70444B1B681A7806218A431A70424BBA
:103D90005B78002B03D1404BDB79002B01D0012253
:103DA00000E000223B4B1B68111C01220A40D2B2EA
:103DB00001210A4090185A7802218A43111C021CE2
:103DC0000A435A70334B1B68334A127901210A4067
:103DD00090005A7804218A43111C021C0A435A702D
:103DE000FFF756FD031C191C181CFCF7C9FC031C2B
:103DF0002A49181CFCF7C4FC031C1A1C254B1C6820
:103E0000101CFCF7D9FB0300DBB2A370FFF70AFD1F
:103E1000031C2349181CFDF719F8031C181CFDF797
:103E2000E9FA0300DBB2133BDAB21A4B1B68111C30
:103E30001F220A40D2B2D0005A7807210A40111C32
:103E4000021C0A435A70144B5B78002B03D1124BAF
:103E5000DB79002B01D0012300E000231A1C012391
:103E60001340DAB20C4BDA700B4B1A790A4B9A7189
:103E70000C4B0321180002F04BF802F00DFD02007C
:103E8000094B1A60C046BD46B0BDC0469004002034
:103E900034050020580000201C0500200000A0422E
:103EA00000002041940400205005002080B586B019
:103EB00000AF3B1D180014231A00002107F0E3F89F
:103EC0003B1DC0221A603B1D03225A603B1D00228D
:103ED0009A603B1D044A1900100003F0B7FDC0466C
:103EE000BD4606B080BDC0460004005090B587B006
:103EF00002AF184B180001F053FEFFF7E7FDFFF784
:103F000017FE08217B1810221A607B18A022D20508
:103F10005A603B0008221A603B00A022D2055A607A
:103F20007B183A000B4C0C490191694658680860AF
:103F30001B6811685268200001F05EFE054B1800F6
:103F400002F0FCF8034B180001F04CFDC046BD46E2
:103F500005B090BD940400205403002080B582B0C9
:103F600000AF78607B681B7F002B0BD0274B1B7C3E
:103F7000002B07D080239B0125480122190003F064
:103F8000F8FE06E080239B0121480022190003F07F
:103F9000F0FE7B681B7C032B0BD11C4B1B7C002B86
:103FA00007D080235B011A480122190003F0E1FECB
:103FB00006E080235B0116480022190003F0D9FEB9
:103FC00002F06AFC0200134B1B68D31A124A934298
:103FD00004D902F061FC02000E4B1A6002F05CFC96
:103FE00002000C4B1B68D31A312B0AD8074B1B7CE1
:103FF000002B06D0C0239B0105480122190003F0C5
:10400000B8FEC046BD4602B080BDC04634050020A3
:1040100000040050580600208813000090B585B0B9
:1040200000AF6F4B1B68FB606D4B5B68BB6002F0C1
:1040300033FC03007B606B4B180007F03BFD7A6894
:10404000694B1100180007F095FCFB681B0C9BB234
:104050001A00FF231A401100FB681B0A9BB21A00CA
:10406000FF231A40FB689BB21800FF2303405F4800
:1040700007F080FCBB689BB21A00FF231A401100B6
:10408000BB681B0A9BB21A001F231A40BB681B0C9B
:104090009BB21800FF2303408020800184466344C4
:1040A000534807F067FCFFF7BDFB031C181CFDF726
:1040B000A1F90400FFF7B6FB031C4E49181CFCF7DE
:1040C000C5FE031C181CFDF795F9030064211800B8
:1040D000FCF7A6F90B001A00474B2100180007F067
:1040E00049FCFFF7D5FB031C181CFDF783F90400FE
:1040F000FFF7CEFB031C4149181CFCF7A7FE031C6D
:10410000181CFDF777F903000A211800FCF788F95D
:104110000B001A003A4B2100180007F02BFC394B1A
:104120001B79002B01D0384B00E0384B384A19007E
:10413000100007F01FFC334B9B79002B01D0324B52
:1041400000E0324B334A1900100007F013FC2D4BEE
:104150001B78002B01D02C4B00E02C4B2E4A190071
:10416000100007F007FC274B5B78002B01D0264B93
:1041700000E0264B294A1900100007F0FBFB214BF9
:10418000DB78002B01D0204B00E0204B244A1900A3
:10419000100007F0EFFB1B4BDB79002B01D01A4B13
:1041A00000E01A4B1F4A1900100007F0E3FB1E4BFA
:1041B0001B7C1A001D4B9200D2581D4B1100180099
:1041C00007F0D8FB02F068FB02007B68D21A194B9B
:1041D0001100180007F0CEFBC046BD4605B090BDEB
:1041E000002800400CE3000820E3000830E300084A
:1041F00050E300080000C8426CE3000800002041C2
:1042000080E300081C05002094E3000898E3000800
:104210009CE30008ACE30008C4E30008D4E3000812
:10422000E8E3000800E400089404002000000020F7
:104230001CE4000830E4000880B584B000AF78606A
:104240000023FB601AE0C0239B01114801221900E2
:1042500003F08FFDFA239B00180000F047F8C023FD
:104260009B010B480022190003F083FDFA239B00F9
:10427000180000F03BF8FB680133FB60FA687B68CC
:104280009A42E0DBC046C046BD4604B080BDC04691
:104290000004005080B582B000AF00237B6016E0C0
:1042A000C0239B0110480122190003F062FD642025
:1042B00000F01CF8C0239B010B480022190003F0FA
:1042C00058FD642000F012F87B6801337B607B6846
:1042D000022BE5DDFA235B00180000F007F8C0466A
:1042E000BD4602B080BDC0460004005080B584B019
:1042F00000AF786002F0D0FA0300BB607B68FB601F
:10430000FB6801330AD00C4B1B781A00FB689B1822
:10431000FB6003E0094B180006F074FE02F0BCFAE3
:104320000200BB68D31AFA689A42F3D8C046C04666
:10433000BD4604B080BDC046640000207804002063
:1043400080B582B000AF0200FB1D1A700D4BFA1D44
:1043500012781A750B4B1B7D1A000B4B9200D2582A
:104360000A4B11001800FFF745FA02F095FA020017
:10437000044BDA60034B00221A61C046BD4602B00E
:1043800080BDC0461C0500201400002048E4000841
:1043900080B500AF094B1B689A1C084B1A60074B8D
:1043A0001A68074B5B6819001000FFF793F90200C9
:1043B000024B1A60C046BD4680BDC0465400002076
:1043C0003405002080B582B000AF7860254B1B7D9E
:1043D000022B43D0234B1B7D012B3FD0214B1B795C
:1043E00001225340DBB2002B38D01F4B5B780422F4
:1043F0001340DBB2002B31D11C4B1B780122534000
:10440000DBB2002B2AD0174B9A78164B5B789A4276
:1044100024D1144B5A79134B1B799A421ED1114B5C
:10442000DB7901225340DBB2002B17D00E4B5B78B7
:1044300008221340DBB2002B10D10A4B1B7A012259
:104440005340DBB2002B09D07B681B78002B03D0D4
:104450007B681800FFF7A0F9FFF734FCC046BD46A3
:1044600002B080BD1C0500208C04002054060020F2
:10447000B0B500AF444B5B781C00A023DB050121E5
:10448000180003F059FC03009C4213D0A023DB0565
:104490000121180003F050FC031E04D03B4B180010
:1044A000FFF77AF903E03A4B1800FFF775F932206D
:1044B000FFF71CFF344B1B791C0080235A00A023FC
:1044C000DB051100180003F037FC03009C4215D0F7
:1044D00080235A00A023DB051100180003F02CFCF8
:1044E000031E04D02B4B1800FFF756F903E02A4BAC
:1044F0001800FFF751F93220FFF7F8FE224B1B7826
:1045000001225340DBB2002B10D01F4B5A781E4BB8
:104510009B789A4205D11C4B1A791B4B5B799A42C6
:1045200004D01E4B5A7804210A435A70164B9B78CC
:1045300001225340DBB2002B06D0134B5B78002BDB
:1045400002D0114B0122DA71A023DB0501211800F2
:1045500003F0F2FB03005A1E9341DAB20A4B5A7081
:1045600080235A00A023DB051100180003F0E4FBB0
:1045700003005A1E9341DAB2034B1A71024B002218
:104580001A72C046BD46B0BD1C05002050E40008AC
:104590005CE4000868E4000874E400088C0400206F
:1045A00080B500AF8A4B5D229B5C002B00D10BE1F4
:1045B000884B1800FFF7B2F8854B60229B5C002BFC
:1045C00008D0854B1800FFF7E7F8814B5D220021EA
:1045D0009954F5E0814B1B681B7801221340DBB234
:1045E000002B00D0BAE07D4B1B681B781B06DB0E4E
:1045F000DBB21A007A4B9B7A9A4200D0AEE0794B3C
:104600001800FFF7C9F8784B1A78744B1B685B7871
:10461000DB07DB0FDBB29A420FD0704B1B685B7875
:1046200001221340DBB2002B01D0704B00E0704B35
:10463000704A19001000FFF7DDF8684B1B685B78C3
:10464000DB07DB0FDBB25A1E9341DAB2664B1A70FE
:10465000624B1B685B7801229343DBB2002B04D1D1
:104660005E4B1B689B78002B31D05C4B1B689B78A2
:104670009AB25A4B1B685B781B065B0EDBB29BB28F
:104680001B029BB2D3189AB25B4B1A805A4B1B8801
:104690001A00534B5B685B009A420FD9564B1B883C
:1046A0001A00564B11001800FFF78CF84C4B5B6852
:1046B0009BB2DB189AB2504B1A8011E04E4B1B880C
:1046C0001A004F4B11001800FFF77CF808E04D4B23
:1046D0001800FFF761F8424B5B689AB2464B1A80AC
:1046E0003E4B1B681B7806221340DBB2022B09D11C
:1046F000454B1800FFF750F8444B5A7804210A4301
:104700005A7025E0354B1B681B7806221340DBB23C
:10471000002B1DD13E4B1800FFF73EF8324BDB78E3
:10472000002B02D0304B0022DA712F4BDA782E4B5F
:104730009A702D4B9A792C4B5A71364B02221A6083
:10474000324B5A7804218A435A700020FFF7F8FD53
:10475000294B1B881800FFF799FA31E01F4B1B68A3
:104760001B7801221340DBB2002B1DD11B4B1B68B1
:104770001B781B06DB0EDBB21A00274B110018005A
:10478000FFF720F8154B1B689B781A00134B1B682A
:104790005B781B065B0EDBB21B02D2181F4B1100AD
:1047A0001800FFF70FF80BE00C4B1B681B781B067B
:1047B000DB0EDBB21A001A4B11001800FFF702F8EB
:1047C000034B5D2200219954C046BD4680BDC046C2
:1047D0009404002080E400088CE4000850000020CD
:1047E0003405002098E400081C05002094E300082C
:1047F00098E30008A0E400084C000020B8E400089A
:10480000F0E40008FCE400080CE300088C0400203D
:104810000CE50008540000201CE5000828E500080D
:104820003CE5000880B500AF01F0D0FF00F070FA61
:1048300000F074FC00F04CFC00F08CFB00F0BEFBC0
:1048400000F0F4FB00F0E8FA00F05AFB00F01EFC68
:104850005A4B01221A765A4A5A4B1100180001F09D
:1048600069FD594B1A6D80239B00134006D0F0233D
:104870009A01564B1100180003F040FB544A554B67
:104880001100180007F076F8534B9A68524BC0217C
:1048900049010A439A60514B0021180002F0B4FB11
:1048A000FFF724FB454B5B689AB24D4B1A804D4B8A
:1048B0005A7804210A435A7080235A00A023DB054A
:1048C0001100180003F038FA03005A1E9341DAB2BF
:1048D000454B5A71A023DB050121180003F02CFA87
:1048E00003005A1E9341DAB23F4B9A7001F0DEFF8B
:1048F0003E4B8021180003F01FFA031E0CD13B4BE6
:104900004021180003F018FA031E05D0384B180098
:10491000FEF742FFFEF7B0FC344B8021180003F095
:104920000BFA031E0CD0314B4021180003F004FA9F
:10493000031E05D12F4B1800FEF72EFFFEF76CFD6E
:104940002A4B8021180003F0F7F9031E0DD1274BE5
:104950004021180003F0F0F9031E06D1264B180081
:10496000FEF71AFF254B01221A70254B1800FEF79F
:1049700013FF134B78229B5C002B07D1214B1800AF
:10498000FEF70AFF0220FFF757FCFEE70C4B7822E8
:104990009B5C1A001C4B11001800FEF713FF0A4B1A
:1049A0001A6D80239B00134032D1184B1800FEF77C
:1049B000F3FE0320FFF740FCFEE7C046340500206D
:1049C00094040020AC0300200010024000030020EB
:1049D000222007114CE50008005801405C0200202D
:1049E0004C0000208C0400201C0500200004005016
:1049F00058E5000874E5000888E500085406002022
:104A0000A0E50008B8E50008CCE50008E8E50008E6
:104A1000A84B1800FEF7C0FEFFF73CFCFFF746FA74
:104A2000A54B5A7804210A435A70A44B9B7A1A006A
:104A3000A34B11001800FEF7C5FEA04B1B68FA221D
:104A400091001800FBF77CFB03001A009D4B11003E
:104A50001800FEF7B7FE994B1B7B1A009A4B11000A
:104A60001800FEF7AFFE954B5B7B1A00974B920048
:104A7000D258974B11001800FEF7BCFE954B18005A
:104A800006F0C0FAFEF704FF021C934B1A6001F017
:104A900003FF0200914BDB68D21A904B1A61864BE0
:104AA0001B7801221340DBB2002B0DD0824B1A7809
:104AB00001218A431A708A4B1800FEF76DFE7E4B67
:104AC0005A7804210A435A707B4B5B7808221340C2
:104AD000DBB2002B10D0784B5A7808218A435A70E9
:104AE000804B1B785A1CD1B27E4A11701A007E4B43
:104AF00011001800FEF766FE6F4B5B780222134030
:104B0000DBB2002B06D06C4B5A7802218A435A70D4
:104B1000FFF784FA684B1B7810221340DBB2002B9E
:104B200010D0654B1A7810218A431A706F4B180009
:104B3000FEF7F4FD614B1800FEF794FF5F4B180081
:104B4000FFF774F85C4B1B7820221340DBB2002B7C
:104B500006D0594B1A7820218A431A7001F07AFD49
:104B6000554B5B7810221340DBB2002B08D0524B20
:104B70005A7810218A435A705D4B1800FEF70CFEDC
:104B80004D4B5B7820221340DBB2002B0AD04A4BFE
:104B90005A7820218A435A70564B1800FEF7FCFDC4
:104BA00001F03CFC01F0D6FB534B180001F0D0F9AA
:104BB000514B1800FFF7D2F9504B1800FFF702FCD9
:104BC000FFF756FCFFF7ECFC444B1B7D002B10D18C
:104BD000394B5B7804221340DBB2002B09D0364BF3
:104BE0005A7804218A435A700120FFF7A9FBFFF786
:104BF0009FF83A4B1B7D012B0AD1384B1B691E2BAA
:104C000006D93D4B1B7C032B02D00220FFF798FBFB
:104C1000324B1B7D022B07D1304B1B69384A934224
:104C200002D90320FFF78CFB2C4B1B7D032B1FD1DC
:104C30002A4B1B7901225340DBB2002B18D0314B99
:104C40001B681A00304B11001800FEF7BBFD2D4BFE
:104C50001B689BB21800FFF719F8FFF733F82B4BCE
:104C60001800FEF799FDFFF793FB0020FFF768FBA4
:104C70001A4B1B7D032B00D000E7184B1B79002B30
:104C800000D1FBE6154B19691E4B1A6813005B0136
:104C90009B1A9B009B18DB00994200D8EEE61B4B49
:104CA0001800FEF779FDFFF773FB0020FFF748FBC4
:104CB000E4E6C046FCE500088C0400203405002032
:104CC0000CE6000820E6000834E600082400002076
:104CD0004CE6000878040020180500201C05002080
:104CE00060E600089004002070E6000884E60008F2
:104CF000A0E60008B4E6000894040020C8E6000816
:104D0000DC05000054000020E0E60008F8E600089A
:104D100090B59BB000AF34243B19180034231A001F
:104D2000002106F0B0F92023FB18180014231A0004
:104D3000002106F0A8F93B1D18001C231A000021D1
:104D400006F0A1F9314B1B68314A1A402F4B8021E4
:104D500009010A431A6003F019FB2E4B1A6D2D4B03
:104D6000C02149010A431A653B1914221A603B19F4
:104D7000802252009A6021007B1801229A617B18E0
:104D80000022DA617B18A02212021A627B1800222C
:104D90005A627B18180003F063FB031E01D000F079
:104DA000BFFA20217B180F221A607B1800225A605C
:104DB0007B1800229A607B180022DA607B180022A0
:104DC0001A617B180021180003F0B4FE031E01D005
:104DD00000F0A6FA3B1DA1221A603B1D00229A603A
:104DE0003B1D802252025A603B1DC02212039A6171
:104DF0003B1D180004F0C2F8031E01D000F090FA29
:104E000004F0F2F9C046BD461BB090BD00700040F2
:104E1000FFE7FFFF0010024080B582B000AF3B000B
:104E2000180008231A00002106F02DF9304B314AF2
:104E30001A602F4B0022DA632D4BC02212065A60F3
:104E40002B4B00229A602A4B07229A63284B01229F
:104E50001A61274B0022DA60254B20220021995449
:104E6000234B212200219954214B00229A62204B8E
:104E7000C222FF325A621E4B2C22002199541C4B35
:104E800004225A611A4B00221A63194B00229A61BC
:104E9000174B01225A63164B0022DA61144B18009B
:104EA00001F012FD031E01D000F03AFA3B00124A55
:104EB0001A603B00802252015A603A000C4B1100EC
:104EC000180001F00FFF031E01D000F029FA3B008B
:104ED0000A4A1A603A00064B1100180001F002FF5E
:104EE000031E01D000F01CFAC046BD4602B080BDD2
:104EF0005C0200200024014004000008000002447D
:104F000080B500AF104B114A1A600F4B00225A6057
:104F10000D4BE02212019A600B4B0D4A5A610A4B6D
:104F200000221A62084B00225A62074B00229A6242
:104F3000054B180002F056FF031E01D000F0F0F9F7
:104F4000C046BD4680BDC04600030020007C004036
:104F5000FFFF000080B500AF164B174A1A60154BD3
:104F600000225A60134B7F229A60124BFF22DA60B4
:104F7000104B00221A610F4B00225A610D4B002288
:104F80009A610C4B0022DA610A4B180004F03AF9DE
:104F9000031E01D000F0C4F9064B04223C21180086
:104FA00004F020FA031E01D000F0BAF9C046BD4655
:104FB00080BDC046300300200028004080B500AF0F
:104FC000184B194A1A60174B822252005A60154B2F
:104FD00000229A60134B0022DA60124B00221A6101
:104FE000104B00225A610F4B802292009A610D4BA8
:104FF0000022DA610B4B00221A620A4B00225A622D
:10500000084B00229A62074B0722DA62054B180010
:1050100004F0D8FA031E01D000F082F9C046BD4664
:1050200080BDC046540300200030014080B500AF71
:10503000144B154A1A60134BE12252025A60114B6D
:1050400000229A600F4B0022DA600E4B00221A6198
:105050000C4B0C225A610B4B00229A61094B002227
:10506000DA61084B00221A62064B00225A62054B95
:10507000180004F02DFF031E01D000F051F9C046C6
:10508000BD4680BDAC0300200038014080B500AFB4
:105090000D4B0E4A1A600C4BC02252005A600A4B4C
:1050A0007F229A60084B7F22DA60074B00221A6148
:1050B000054B180005F081FF031E01D000F030F908
:1050C000C046BD4680BDC04678040020002C00408C
:1050D00080B582B000AF104B1A6B0F4B01210A4311
:1050E0001A630D4B1B6B012213407B607B6800220F
:1050F0000021092002F0D2F8092002F0E4F8002291
:1051000000210A2002F0CAF80A2002F0DCF8C046AA
:10511000BD4602B080BDC0460010024090B58BB0C5
:1051200000AF14243B19180014231A00002105F0C5
:10513000AAFF764BDA6A754B04210A43DA62734B95
:10514000DB6A042213403B613B69704BDA6A6F4BA8
:1051500080210A43DA626D4BDB6A80221340FB60D8
:10516000FB686A4BDA6A694B01210A43DA62674BD2
:10517000DB6A01221340BB60BB68644BDA6A634B95
:1051800002210A43DA62614BDB6A022213407B6030
:105190007B68A023DB0500221A21180002F0E9FD3C
:1051A000C0239B015A480022190002F0E2FD3B197E
:1051B000802292011A603B1903225A603B19002297
:1051C0009A603B19534A1900100002F03FFC3B194A
:1051D00003221A603B1903225A603B1900229A608D
:1051E0003B194D4A1900100002F030FC3B19022215
:1051F000FF321A603B19C42292035A603B19022203
:105200009A603A19A023DB051100180002F01EFC79
:105210003B1902221A603B1901225A603B190022F5
:105220009A603B190022DA603A19A023DB051100CD
:10523000180002F00BFC3B1918221A603B190122DE
:105240005A603B1900229A603B190222DA603A192F
:10525000A023DB051100180002F0F8FB3B192F4AD0
:105260001A603B1903225A603B1900229A603B19CD
:10527000274A1900100002F0E9FB21007B18C02228
:1052800092011A600C003B1901225A603B1900225E
:105290009A603B190022DA603B191D4A1900100080
:1052A00002F0D4FB3B19982212021A603B19032228
:1052B0005A603B1900229A603A19A023DB051100BD
:1052C000180002F0C3FB3B19C0221A603B190022F0
:1052D0005A603B1901229A603B190D4A19001000CF
:1052E00002F0B4FB00220121052001F0D7FF0520C8
:1052F00001F0E9FF00220121072001F0CFFF072084
:1053000001F0E1FFC046BD460BB090BD0010024069
:105310000004005000080050001C00503FCF000067
:1053200080B500AF034B1800FEF736FAC046BD4605
:1053300080BDC0460CE7000880B500AF074B5A6B34
:10534000064B01210A435A63044B9A6B034B80219D
:1053500049050A439A63C046BD4680BD001002401D
:1053600090B589B000AF78600C243B191800142365
:105370001A00002105F087FE7B681B682A4A9342C9
:105380004DD12A4B5A6B294B802189000A435A631D
:10539000264BDA6A254B01210A43DA62234BDB6A8A
:1053A00001221340BB60BB683B1904221A603B1901
:1053B00003225A603B1900229A603A19A023DB05A8
:1053C0001100180002F042FB194B1A4A1A60184BE0
:1053D00000225A60164B00229A60154B0022DA60B8
:1053E000134B80221A61124B802252005A61104BDB
:1053F0008022D2009A610E4B0022DA610C4B00220F
:105400001A620B4B180001F07BFF031E01D0FFF75F
:1054100087FF7B68064ADA64054B7A689A62C04661
:10542000BD4609B090BDC0460024014000100240B6
:10543000B80200200800024080B582B000AF78605A
:105440007B681B680A4A93420ED10A4B9A6B094B40
:10545000802109060A439A63002201210D2001F0F0
:105460001DFF0D2001F02FFFC046BD4602B080BDDC
:10547000007C00400010024080B582B000AF786030
:105480007B681B680A4A93420ED10A4B1A6D094B7E
:105490008021C9020A431A6500220021022001F07E
:1054A000FDFE022001F00FFFC046BD4602B080BDE8
:1054B000002800400010024090B589B000AF78602D
:1054C0000C243B19180014231A00002105F0DBFD01
:1054D0007B681B68184A934229D1184B5A6B174BAB
:1054E000802149010A435A63144BDA6A134B0121A4
:1054F0000A43DA62114BDB6A01221340BB60BB68CE
:1055000021007B18E0221A607B1802225A607B1867
:1055100000229A607B180322DA607B1800221A614D
:105520007A18A023DB051100180002F08FFAC0469C
:10553000BD4609B090BDC046003001400010024099
:1055400090B589B000AF78600C243B191800142383
:105550001A00002105F097FD7B681B682D4A9342D5
:1055600053D12D4B5A6B2C4B8021C9010A435A63EE
:10557000294BDA6A284B01210A43DA62264BDB6A9F
:1055800001221340BB60BB683B19C022D2001A60E5
:1055900021007B1802225A607B1800229A607B1837
:1055A0000322DA607B1804221A617A18A023DB0533
:1055B0001100180002F04AFA184B194A1A60174BEA
:1055C00003225A60154B00229A60144B0022DA60C5
:1055D000124B80221A61114B00225A610F4B00229C
:1055E0009A610E4B2022DA610C4B00221A620B4B9F
:1055F000180001F085FE031E01D0FFF791FE7B68C5
:10560000064A1A67054B7A689A62C046BD4609B0D9
:1056100090BDC04600380140001002403004002018
:105620003000024080B582B000AF78607B681B68B4
:10563000064A934206D1064B9A6B054B802109011D
:105640000A439A63C046BD4602B080BD002C0040AC
:105650000010024080B500AF024B1800FEF79CF826
:10566000FEE7C04614E7000880B500AF024B180003
:10567000FEF792F8FEE7C04630E7000880B500AFBD
:10568000C046BD4680BD80B500AFC046BD4680BDAA
:1056900080B500AF01F0EEF8C046BD4680BD000009
:1056A00080B500AF034B180003F062FFC046BD4653
:1056B00080BDC0463003002080B500AF012002F05D
:1056C00075FBC046BD4680BD80B500AF80235B0042
:1056D000180002F06BFBC046BD4680BD80B500AF30
:1056E000034B180001F02AFFC046BD4680BDC046EE
:1056F000B802002080B500AF034B180001F01EFF78
:10570000C046BD4680BDC0463004002080B500AF15
:10571000034B180002F068FCC046BD4680BDC04681
:105720000003002080B582B000AF78600A00FB1C47
:105730001A707B68186F7B68DB6E99B2FB1C1B7854
:105740001A0002F016FBC046BD4602B080BD000044
:1057500080B582B000AF78607B6801211800FFF748
:10576000E1FF7B68986E7B685B6E9BB2002219003C
:1057700002F0FFFAFA239B00180000F0C1FC7B68DE
:10578000986E7B685B6E9BB20122190002F0F1FA01
:10579000034B180000F0B4FCC046BD4602B080BD0B
:1057A0007017000080B582B000AF78600A00FB1C63
:1057B0001A707B6800211800FFF7B4FF7B68586FF0
:1057C000FA239B00F91C012203F090FFC0467B687E
:1057D0005B6F180004F09BFA0300012BF7D1C04661
:1057E000C046BD4602B080BDB0B586B002AF78609D
:1057F0000F257B1900221A700E243B1900221A7003
:105800007B6800211800FFF78DFF7B68586F3A19FD
:105810007919FA239B000093012304F0BDF83B198A
:105820001B781800BD4604B0B0BDB0B584B000AF61
:1058300078600A00FB1C1A70FB1C1A787B68110048
:105840001800FFF7AFFF0F257C197B681800FFF7E2
:10585000CBFF030023707B6801211800FFF762FF74
:105860007B191B781800BD4604B0B0BD80B582B06E
:1058700000AF786008001100FB1C021C1A70BB1CF2
:105880000A1C1A707B6800211800FFF74BFFFB1CF5
:105890001B78802252421343DAB27B681100180051
:1058A000FFF780FFBB1C1A787B6811001800FFF718
:1058B00079FF7B6801211800FFF734FFC046BD4621
:1058C00002B080BDB0B586B000AFF86008007A6065
:1058D00019000B243B19021C1A700A203B180A1CE1
:1058E0001A703B181B78012B2ED9FB680021180079
:1058F000FFF718FF3B191A78FB6811001800FFF733
:1059000051FF1723FB1800221A700FE017257B198F
:105910001B787A68D418FB681800FFF765FF03004E
:1059200023707B191A787B1901321A701723FA1821
:105930000A23FB1812781B789A42E7D3FB680121EF
:105940001800FFF7EFFE00E0C046BD4606B0B0BD50
:1059500090B587B000AFF86008007A6019000B249A
:105960003B19021C1A700A203B180A1C1A703B18BB
:105970001B78012B32D9FB6800211800FFF7D2FEFB
:105980003B191B78802252421343DAB2FB681100A4
:105990001800FFF707FF1723FB1800221A700FE00B
:1059A00017243B191B787A68D3181A78FB68110002
:1059B0001800FFF7F7FE3B191A783B1901321A70ED
:1059C0001723FA180A23FB1812781B789A42E7D398
:1059D000FB6801211800FFF7A5FE00E0C046BD46A8
:1059E00007B090BD80B582B000AF78607B681800CA
:1059F00000F04CF97B681B681B0CDAB27B6806214F
:105A00001800FFF733FF7B681B681B0ADAB27B685C
:105A100007211800FFF72AFF7B681B68DAB27B6852
:105A200008211800FFF722FF7B681B79053BDBB2DA
:105A30005BB21022524213435BB2DAB27B68092197
:105A40001800FFF713FF7B6832220B211800FFF7C5
:105A50000DFF7B6823220C211800FFF707FF7B68EE
:105A60009B791B01DAB27B68DB79DB18DBB2D318D8
:105A7000DAB27B689B7A01210B40DBB2D318DAB231
:105A80007B681D211800FFF7F1FE7B685B791B0125
:105A9000DAB27B685B7A9B00DBB2D318DBB20333EC
:105AA000DAB27B681E211800FFF7E0FE7B68FF2258
:105AB0001F211800FFF7DAFE7B689B891B0A9BB247
:105AC000DAB27B6820211800FFF7D0FE7B689B8943
:105AD000DAB27B6821211800FFF7C8FE7B681A7ACA
