:020000040800F2
:100000000020002019660008E1550008E7550008A7
:1000100000000000000000000000000000000000E0
:10002000000000000000000000000000ED55000886
:100030000000000000000000F7550008015600080D
:1000400069660008696600081156000869660008BC
:1000500069660008295600086966000839560008D4
:10006000000000004D56000865560008696600084B
:10007000696600087D5600080000000069660008F7
:100080000000000069660008000000000000000099
:1000900069660008000000006966000869660008DB
:1000A00069660008696600086966000869660008F4
:1000B0006966000869660008000000000000000092
:1000C00010B5064C2378002B07D1054B002B02D02E
:1000D000044800E000BF0123237010BD000200208F
:1000E00000000000E4DE0008044B10B5002B03D034
:1000F0000349044800E000BF10BDC04600000000F6
:1001000004020020E4DE00080023C25C0133002A60
:10011000FBD1581E7047000002B4714649084900DF
:10012000095C49008E4402BC7047C04603B4714666
:10013000490840004900095E49008E4403BC7047ED
:10014000002243088B4274D303098B425FD3030A16
:100150008B4244D3030B8B4228D3030C8B420DD329
:10016000FF22090212BA030C8B4202D312120902B7
:1001700065D0030B8B4219D300E0090AC30B8B42F5
:1001800001D3CB03C01A5241830B8B4201D38B03A3
:10019000C01A5241430B8B4201D34B03C01A524148
:1001A000030B8B4201D30B03C01A5241C30A8B428B
:1001B00001D3CB02C01A5241830A8B4201D38B0276
:1001C000C01A5241430A8B4201D34B02C01A52411A
:1001D000030A8B4201D30B02C01A5241CDD2C3098C
:1001E0008B4201D3CB01C01A524183098B4201D308
:1001F0008B01C01A524143098B4201D34B01C01AF3
:10020000524103098B4201D30B01C01A5241C3086A
:100210008B4201D3CB00C01A524183088B4201D3D9
:100220008B00C01A524143088B4201D34B00C01AC5
:100230005241411A00D20146524110467047FFE731
:1002400001B5002000F0F0F802BDC0460029F7D04B
:1002500076E7704703460B437FD4002243088B4266
:1002600074D303098B425FD3030A8B4244D3030B3D
:100270008B4228D3030C8B420DD3FF22090212BA02
:10028000030C8B4202D31212090265D0030B8B427E
:1002900019D300E0090AC30B8B4201D3CB03C01A68
:1002A0005241830B8B4201D38B03C01A5241430B43
:1002B0008B4201D34B03C01A5241030B8B4201D333
:1002C0000B03C01A5241C30A8B4201D3CB02C01A9E
:1002D0005241830A8B4201D38B02C01A5241430A16
:1002E0008B4201D34B02C01A5241030A8B4201D305
:1002F0000B02C01A5241CDD2C3098B4201D3CB01AC
:10030000C01A524183098B4201D38B01C01A52415A
:1003100043098B4201D34B01C01A524103098B425E
:1003200001D30B01C01A5241C3088B4201D3CB0049
:10033000C01A524183088B4201D38B00C01A52412C
:1003400043088B4201D34B00C01A5241411A00D2DC
:1003500001465241104670475DE0CA0F00D0494245
:10036000031000D34042534000229C4603098B42B5
:100370002DD3030A8B4212D3FC22890112BA030A3D
:100380008B420CD3890192118B4208D389019211BF
:100390008B4204D389013AD0921100E08909C30944
:1003A0008B4201D3CB01C01A524183098B4201D346
:1003B0008B01C01A524143098B4201D34B01C01A31
:1003C000524103098B4201D30B01C01A5241C308A9
:1003D0008B4201D3CB00C01A524183088B4201D318
:1003E0008B00C01A5241D9D243088B4201D34B0033
:1003F000C01A5241411A00D20146634652415B1075
:10040000104601D34042002B00D549427047634655
:100410005B1000D3404201B5002000F005F802BD9A
:100420000029F8D016E770477047C0468446100090
:1004300062468C461900634600E0C0461FB501F0D5
:1004400015FF002801D40021C8421FBD10B501F0DE
:1004500065FE4042013010BD10B501F007FF0028D5
:1004600001DB002010BD012010BDC04610B501F019
:10047000FDFE002801DD002010BD012010BDC0469A
:1004800010B501F08DFE002801DC002010BD012018
:1004900010BDC04610B501F083FE002801DA00202F
:1004A00010BD012010BDC046844608006146FFE72C
:1004B0001FB500F087FC002801D40021C8421FBDF1
:1004C00010B500F013FC4042013010BD10B500F033
:1004D00079FC002801DB002010BD012010BDC046C2
:1004E00010B500F06FFC002801DD002010BD0120D8
:1004F00010BDC04610B500F01FFC002801DC002034
:1005000010BD012010BDC04610B500F015FC00283C
:1005100001DA002010BD012010BDC046002B11D112
:10052000002A0FD1002900D1002802D00021C943A0
:10053000080007B4024802A14018029003BDC0465B
:10054000E9FEFFFF03B4684601B5029800F04CF8DD
:10055000019B9E4602B00CBC7047C046F0B5CE462B
:10056000474680B5070099463B0C9C4613041B0C7C
:100570001D000E0061460004140C000C45434B4363
:1005800060436143C0182C0C20188C46834203D969
:1005900080235B029846C444494679437243030C66
:1005A00063442D042D0CC918000440198918C0BCDF
:1005B000B946B046F0BDC0469E2110B5C905041C21
:1005C000FFF7A2FF002803D1201C00F013FF10BD8D
:1005D0009E21201CC90500F05FFD00F00BFF802369
:1005E0001B069C466044F2E7F0B557464E4645462A
:1005F000DE46E0B504000D009246994683B08B427A
:1006000030D82DD04946504602F02AFE2900060077
:10061000200002F025FE331A9846203B9B4633D437
:100620005A465346934042461F00534693401E008D
:10063000AF423AD8AF4200D178E05B46A41BBD413F
:10064000002B00DA75E000220023009201930123C1
:100650005A4693400193012342469340009328E079
:100660008242CFD900220023009201930C9B002BE1
:1006700001D01C605D600098019903B0F0BCBB46DE
:10068000B246A946A046F0BD424620239B1A5246D8
:10069000DA40414613004A468A40170042461F434B
:1006A000534693401E00AF42C4D90022002300925B
:1006B00001934346002BD9D0FB0772081A434646E4
:1006C0007B080EE0AB4201D1A2420CD8A41A9D4196
:1006D000012024196D410021013E24184D41002EB6
:1006E00006D0AB42EED9013E24196D41002EF8D15F
:1006F000009801995B4600196941002B24DB2B000F
:100700005A464446D3402A00E2401C005B4615008E
:10071000002B2ADB26009E40330026004746BE40C1
:100720003200801A9941009001919FE7A342BCD802
:1007300083E74246202300219B1A00220091019268
:100740000122DA40019286E7424620239B1A2A00C2
:1007500046469A402300F340444613432A00E240B1
:100760001C005B461500002BD4DA42462F002023E4
:10077000260097409B1ADE403B003343CDE7C0463E
:10078000F0B5C64643025B0A4E0245004F00DA0050
:10079000C40F9C46700A904600B52D0E3F0EC90F3F
:1007A000B6098C424BD0EA1B002A36DD002F61D0FF
:1007B000FF2D00D1ADE08023DB041E431B2A00DCAB
:1007C000D3E001204346181A430100D48CE0800195
:1007D0008709380002F026FD05388740854200DC95
:1007E000B6E02D1AB3483840430704D00F23034026
:1007F000042B00D00430430100D478E06A1CFE2DA5
:1008000065D08001430A9C46D2B26346D0051843A6
:10081000E407204380BCB846F0BD002A35D07A1BDF
:10082000002D00D0AFE04346002B00D1A7E0531EBF
:10083000012A00D12FE1FF2A69D01A00AAE0E91BA2
:10084000002970DD002F37D0FF2D62D08023DB041C
:100850001E431B2900DCB0E001204044430143D586
:100860000135FF2D33D00123934A03404008104047
:100870001843B9E7002E00D183E0511E012A00D1B0
:10088000D8E0FF2A45D00A0098E7FE276A1C1742E5
:1008900000D086E0002D00D0B7E04346002B00D109
:1008A000F3E00022002EB0D0981B430100D4FAE000
:1008B00043460C00F01A97E7002E00D1C8E04A1E0C
:1008C000012900D1AEE0FF2923D01100C1E70023A8
:1008D000FF229C4699E7FE216A1C114277D0FF2A2D
:1008E000F5D0150046447008430700D07EE7C308E2
:1008F000FF2D0ED05B025B0A9C46EAB285E7002E14
:1009000007D08022D203134203D0104201D10C0041
:100910000300002BDBD08020C00318434002430AB1
:100920009C46FF2271E70029D5D07A1B002D60D1AB
:100930004346002B24D0531E012A73D0FF2AE7D050
:100940001A001B2A00DC85E001203D00801985E7A4
:1009500020233A00451B38000135EA405D1BA840C2
:10096000431E9841002510433EE7202330009B1A88
:1009700031009840D140431E9841084322E70C00C3
:1009800003001500B4E7FF2FC1D080234046DB04ED
:10099000184380461B2A51DD01200C003D00301A0F
:1009A00012E743469F1B7B012BD4002F00D010E79A
:1009B0000023002400229C4627E720233200300039
:1009C000CA40591A8840431E9841104345E7002DFC
:1009D0004AD14346002B63D00022002E00D114E7F9
:1009E00030004044430100D47EE7324B01351840CB
:1009F0007AE7FF2F8CD080234146DB0419438846D9
:100A00009FE743460C00F71AE3E64246002A00D06F
:100A100075E7002E00D07AE78023DB0300249C4694
:100A2000FF22F2E6300040440125430100D45BE799
:100A3000022518E743460125981BC5E620234446B6
:100A40004046D4409A1A9040431E98412043A4E760
:100A50000D004DE7202341464046D1409A1A904070
:100A6000431E9841084370E74246002A00D14FE7F1
:100A7000002E00D14DE78022D203134200D148E777
:100A8000104200D045E7030043E7002E90D00C0051
:100A900084460022B9E643460C00F01A013593E67D
:100AA00084460022B1E6002800D01DE70023002480
:100AB0009C46AAE6FFFFFFFBFFFFFF7DF0B54F4618
:100AC0004646D6464502C0B547000C1C6D0A3F0E8F
:100AD000C60F002F00D170E0FF2F00D175E0EB00B2
:100AE0008025ED041D43002399469A467F3F60020E
:100AF000430A984663001B0EE40F002B4ED0FF2BD9
:100B000046D04246D0008022D204024390460022C2
:100B10007F3B3100FF1A4B466140C9B213430F2B94
:100B200000D9B5E06E489B00C3589F460023984605
:100B30002600454692465346022B00D189E0032BFE
:100B400000D19EE0012B18D03B007F33002B69DDE4
:100B50006A0704D00F222A40042A00D004352A0153
:100B600003D5604B1D403B008033FE2B00DD70E061
:100B7000AD016D0AD8B202E00E0000200025C005CC
:100B80002843F6073043E0BCBA46B146A846F0BD5C
:100B90004346002B3FD10222FF3F03E04346002B98
:100BA0002DD1012231004B466140C9B213430F2BB6
:100BB00034D84D489B00C3589F46002D13D10423C1
:100BC0009946033B00279A4691E7002D05D108235B
:100BD0009946063BFF279A4689E70C239946093B2D
:100BE000FF279A4683E7280002F01CFB7627431F65
:100BF0009D4000237F4299469A463F1A77E7404638
:100C000002F010FB4246431F9A4076235B42904617
:100C10001B1A00227DE7FF2303227AE70E00FF2044
:100C20000025ACE70120C01A1B28A6DC9E372A004D
:100C3000BD40C2406B1E9D4115436B0704D00F237E
:100C40002B40042B00D004356B0144D50120002536
:100C500095E7FF20002592E780250026FF20ED0381
:100C60008DE7002398468020C003054209D0434603
:100C7000034206D1454605436D022600FF206D0A5A
:100C80007DE78020C00305436D02FF206D0A76E7F3
:100C900042466B015001834219D21B220025013FBD
:100CA00001261C006D005B00002C01DB984201D87E
:100CB0001B1A3543013A002AF3D15A1E93411D43B2
:100CC0003B007F330E00002B00DD41E7AAE71A222C
:100CD00001251B1AE4E7AD0100206D0A4FE7C0466D
:100CE00020E40008FFFFFFF760E4000870B5420051
:100CF00045024E024C00C30F6D0A0120120E760A07
:100D0000240EC90FFF2A06D0FF2C03D0A24201D126
:100D1000B54206D070BD002DFCD1FF2CFAD1002EBB
:100D2000F8D18B4206D00120002AF3D12800431EBF
:100D30009841EFE70020EDE770B5420045024E0212
:100D40004C00C30F6D0A120E760A240EC80FFF2A3C
:100D50001BD0FF2C0ED0002A1BD1002C01D1002E5D
:100D60001CD0002D0CD083421CD00221581E0840FC
:100D7000013870BD002E22D1002AF4D1002DF2D10D
:100D80000028F6D101204042F3E7002D17D1FF2CB7
:100D9000F0D0002CE7D1002EE5D1E6E70020002DB1
:100DA000E7D0E2E7A24205DCEADBB54202D8E7D3AE
:100DB0000020DEE74342584140000138D9E70220D5
:100DC0004042D6E770B5420045024E024C00C30FC8
:100DD0006D0A120E760A240EC80FFF2A0BD0FF2CC4
:100DE0000DD0002A1FD1002C16D1002E14D10020C6
:100DF000002D10D009E0002D0CD1FF2C13D1002EB6
:100E000008D1002A08D0834212D00221581E08407F
:100E1000013800E0022070BD002DF4D10028FAD185
:100E200001204042F7E7002CEDD1002EEBD1ECE79A
:100E3000A24205DCF2DBB54202D8EFD30020EAE79C
:100E40004342584140000138E5E7C046F0B54F46FF
:100E50004646D64644024500C0B5640A0F1C2D0E16
:100E6000C60F002D00D18DE0FF2D00D192E00023B0
:100E7000802099469A46E400C00404437F3D7802EE
:100E8000430A98467B001B0EFF0F002B00D170E039
:100E9000FF2B00D186E04246D00080227F3BED1838
:100EA0000023D204024390469C4631004B467940D1
:100EB000681C0F2B1CD8764A9B00D3589F463900DC
:100EC0004446E2465346022B0FD0032B00D1D7E015
:100ED000012B37D100200024C0052043C907084357
:100EE000E0BCBA46B146A846F0BDFF200024F3E7B7
:100EF000260C2404220C44462404240C43462700D8
:100F00001B0C574374435A435E4312193B0C9B1806
:100F10009C4203D980225202944666443F041A043C
:100F20003F0CD2199401671EBC411B0C920E9B19F9
:100F300014439B011C431B0100D49BE00123620866
:100F40001C40144302007F32002A64DD630704D092
:100F50000F232340042B00D00434230103D50200C7
:100F60004C4B80321C40FE2ABFDCA401640AD0B284
:100F7000B2E74346002B3DD14A4601331A4391461E
:100F80009C4692E7002C29D104239946033B002577
:100F90009A4674E7002C1BD108239946063BFF258F
:100FA0009A466CE74346FF35002B0BD102234A4695
:100FB0001A4391469C4678E753463100022B00D0F5
:100FC00083E792E703234A461A4391469C466CE71F
:100FD0000C239946093BFF259A4650E7200002F072
:100FE00021F97625431F9C4000236D4299469A467D
:100FF0002D1A44E7404602F015F94246431F9A4035
:1010000000232D1A90469C46763D4EE78024002111
:10101000FF20E40360E701239B1A1B2B00DD59E747
:1010200022009E30DA4084401300621E94411C432B
:10103000630704D00F232340042B00D00434630142
:101040001AD50120002447E78020C003044209D0BC
:101050004346034206D14446044364023900FF205C
:10106000640A39E78020C003044364023100FF2092
:10107000640A31E7280065E7A4010020640A2BE731
:101080008020C00304436402FF20640A24E7C046B2
:10109000A0E40008FFFFFFF7F8B5CE46474643023D
:1010A0005B0A4E02DA009446720A914645004A00F5
:1010B00080B52D0E1F00C40F120EC90FB609FF2AEE
:1010C0005BD0012041408C4239D0A81A00285ADD5B
:1010D000002A6AD0FF2D00D1D9E08022D204164325
:1010E0001B2800DCE9E001206346181A430100D404
:1010F000B4E080018709380002F094F80538874091
:10110000854200DCCCE02D1AB5483840430704D0B6
:101110000F230340042B00D00430430100D4A0E08F
:101120006A1CFE2D00D18DE08001470AD2B2D005A5
:101130003843E4072043C0BCB946B046F8BDA81AFE
:101140008046002845DD002A70D0FF2D00D19EE0AA
:101150008023DB041E4343461B2B00DCD2E001202E
:10116000604443017AD50135FF2D6BD001239D4AA0
:101170000340400810401843C8E7002E20D08C429E
:1011800023D02800FF38002839D0571B002D00D06D
:101190009DE06346002B00D1DBE07B1E012F00D1D8
:1011A0000DE1FF2F71D01F0098E0002E00D1A7E0C5
:1011B000421E012800D1E6E0FF2868D010008FE72A
:1011C00001204140A14200D07FE7FF2040428046FD
:1011D000A8444046002838D0511B002D00D1AEE075
:1011E000FF2A00D1DFE080236046DB0418438446F9
:1011F0001B2900DCD9E0012015008019B1E7FE2091
:101200006A1C104271D1002D00D0A6E06346002B6D
:1012100000D1D9E00022002E00D188E7981B4301BD
:1012200000D4E1E063460C00F01A6FE7002E00D115
:10123000B7E00200013A012800D19CE0FF2826D047
:10124000904688E7FF22002771E7FE206A1C1042C3
:1012500064D0FF2AF6D0150066447008430700D01A
:1012600056E7C308FF2D12D05B025F0AEAB25EE7C1
:101270006246002A00D196E0002E08D08022D203D8
:10128000134204D04846104201D10C004B46002BBB
:10129000D8D08027FF031F437F02FF227F0A46E743
:1012A00020233A00451B38000135EA405D1BA84069
:1012B000431E98410025104328E720231B1A3200C3
:1012C0009E40C2403000431E984110430CE7FF2A65
:1012D000DBD080236046DB04184384461B2F56DD99
:1012E00001200C001500301A00E763469F1B7B01AC
:1012F0003DD4002F00D0FEE600240022002716E790
:101300000500AFE7320043464146DA4020235B1A2E
:101310009E403000431E9841104321E7002DA7D185
:101320006346002B59D00022002E00D1FFE630008A
:101330006044430192D52A4B013518408EE763463D
:10134000002B47D04B1E012915D0FF292BD01900A7
:101350004EE70C004B463D0084E76246002A8BD1E5
:10136000002E92D180270024FF22FF03DFE6634690
:101370000C00F71ABFE6300060440125430100D499
:101380006CE70225F2E663460125981BAEE62023B2
:1013900064466046FC40DF1BB840431E9841204332
:1013A0009FE705005EE74B4671E7202365466046F0
:1013B000CD40591A8840431E984128431CE7634694
:1013C0000C000125F01A91E6002E95D00C004F4636
:1013D0000022ACE64B460D0044E74F460022A6E64D
:1013E000FFFFFFFBFFFFFF7D002800D036E7002452
:1013F00000279CE641024200C30F490A0020120E5A
:101400007E2A03DD9D2A02DD094A98187047802054
:1014100000040143952A07DC9620821AD1404842F5
:10142000002BF3D10800F1E7963A9140F7E7C04668
:10143000FFFFFF7F70B5051E0ED001F0F3FE9E2367
:1014400004001B1A962B0CDC082801DD083CA54083
:101450006D026D0AD8B201E000200025C0052843C6
:1014600070BD992B09DD020029001B3291404A1EF4
:1014700091410522121AD5400D43052C12DC29009A
:101480000C4E31406A0709D00F202840042805D0AF
:1014900004314A0102D59F2331401B1B89014D0AAB
:1014A000D8B2DBE7621F95402900024E31406A073F
:1014B000F4D0E9E7FFFFFFFBF0B54F464646D646BE
:1014C0000D000400C0B51F0011002803620F400A80
:1014D00010437A00520DE3003C039146640AFA0F70
:1014E0004F0F6E0027439246B846760DED0FC900A8
:1014F000954200D199E04C46341BA446002C00DCF8
:101500007CE04A46002A00D1B8E0C54A964200D1A4
:101510001CE180223C0012041443A0466246382A93
:1015200000DD61E11F2A00DDCCE164462022121BB0
:10153000444694400F00A14664469140E7404C4623
:101540004A1E91413C43424621436446E240801A90
:101550005C1AA3429B415F42C71B3B0200D4D0E010
:101560007F027F0A002F00D1FFE0380001F05AFE11
:1015700001000839202322005B1A8F40DA408C409A
:101580001743B14200DAFFE0891B4B1C1F2B00DD23
:10159000A8E020223900D21A200094409140D8407F
:1015A000621E9441DF40002601430C43630709D0CB
:1015B0000F232340042B05D0231DA342A4416442E2
:1015C0003F191C003B0200D49EE0954B01369E4221
:1015D00000D1B7E0934AE40817407B0771057F020A
:1015E00023433F0B4A0D12053A43ED072A431800E7
:1015F0001100E0BCBA46B146A846F0BD002C4BD065
:101600004C46A41BA446002E00D023E104001C433A
:1016100000D1AFE16246541E012A00D115E2804D8F
:10162000AC4500D1C8E1A4461BE14A46B21A944633
:10163000002A00DCACE04A46002A43D0784A9642B1
:1016400000D1AFE180223C0012041443A046624660
:10165000382A67DC1F2A00DC5FE14746203AD74082
:101660006246202A05D064464022121B444694401C
:1016700021434A1E91410C003C4357E03A000A4383
:1016800000D105E12200013A012C00D182E1644C35
:10169000A4455BD0944641E7634C771C274200D0B9
:1016A000C4E004001C43002E00D069E1002C00D1EE
:1016B000BFE144460C4300D0D0E14207DB081343AE
:1016C000C00829E03A000A4300D170E1624664464E
:1016D000013A012C00D1E0E0514CA44500D161E178
:1016E0009446B4E73A001F39CA401100202B03D0BA
:1016F0004022D31A9F403C43631E9C410027002692
:101700000C43630700D053E7B446E4087B07234348
:10171000F808434A94451DD06246070352053F0B23
:10172000520D60E744460C43621E9441E4189C420B
:101730009B415F423F183B02E3D5394B01369E4245
:1017400000D0B5E03200002700234CE74207DB0859
:101750001343C0081A00024300D1E1E180273F0390
:1017600007433F032E4A3F0B3DE7200001F05AFD9F
:10177000010018311F2900DCFCE6083884402700EE
:101780000024B14200DBFFE6264A761A17400DE737
:10179000002A2FD04A46921B9446002E00D1ADE07D
:1017A0001F4A914500D10FE1802212041043624686
:1017B000382A00DD0FE11F2A00DD80E16446202287
:1017C0001E00121B6746040093409440FE405A1EC0
:1017D0009341F84034431C43804464188C42BF4119
:1017E0007F424E464744A6E742460A4311004A1E3E
:1017F0009141ADE60C4C721C224200D0A1E00200E7
:101800001A43002E00D0FAE0002A00D145E13A0048
:101810000A4300D046E14207DB081343C0087BE7D8
:10182000FF070000FFFF7FFFFE07000047465C1A2E
:10183000C21BA342BF417F42B94617004A46BF1AA6
:101840003A0200D58DE023003B4300D08AE6002019
:10185000002561E7B44CA14500D1ADE0802424040B
:1018600020436446382C3DDC62461F2C00DDB7E087
:1018700020251E002D1B0400AB40AC40D640D040BC
:1018800042465D1EAB413443121A904623432CE07E
:101890004207DB081343C0083BE75C189C429B41AE
:1018A00040445B42C71801263B0200D429E70226C8
:1018B0009E4A63081740012214401C43FB071C4347
:1018C0007F0873E64446203AD4406246202A05D079
:1018D00067464022D21B4746974039434A1E9141F2
:1018E000214335E60343581E8341CC1AA142BF4130
:1018F00043467F4255464E46DF1B2EE602001A4302
:1019000000D1BDE062466446013A012C00D1E5E019
:10191000854CA44558D0944649E764462022121BC2
:10192000444694400F00A14664469140E7404C462F
:101930004A1E91413C4342460C436146CA408018CE
:10194000F4E6794CA24200D1FDE6591899429B4138
:1019500040445F42C719FC07490816000C437F0842
:10196000CFE6CC1AA142BF4143467F42181A5546E2
:10197000C71BF7E5C9087B0755460B43F808C8E6BF
:10198000002C00D081E043460B4315D18020002578
:101990000003E3E65C1AA3429B41C71B5B4201269E
:1019A000FF1ADAE54207DB081343C008D2E6420714
:1019B000DB081343C008ACE643464246C9085B0750
:1019C00055460B43D008C5E6434642465B07C90867
:1019D0000B43D008BEE603431C00631E9C41FCE69B
:1019E0000200203CE24014006246202A03D0402539
:1019F000AD1AA8400343581E8341234375E7002ACC
:101A0000E2D03A000A43CDD04207DB0813438022DC
:101A1000C0081203104206D0FC08144203D1200073
:101A2000CB087A0713435A0FDB005207DB08134336
:101A300090E643460B4300D109E743464246C908B6
:101A40005B0755460B43D00866E6CC1AA142894194
:101A50003F1A4942554601267F1A7EE542465C1AE6
:101A6000871AA34292415242BF1A3A023DD5CC1A7C
:101A7000A1428941434649421F1A55467F1A95E5BE
:101A80007B07C9080B43F80843E64446DB080C43D0
:101A900030D142071343C0085CE67B07C9080B43FB
:101AA000F80839E65C189C429B4140445B42C718E9
:101AB0003B0200D425E61D4B01261F4021E6040011
:101AC000203AD4406246202A04D040226646921B27
:101AD000904003435A1E93411C437EE65C188C429F
:101AE0008941404449424718DDE623003B4300D189
:101AF000ADE606E6440723438024C00824032042C1
:101B000008D04246D608264204D155463000CB08BC
:101B100051070B435A0FDB00DB085207134319E64A
:101B20000023014A1F005EE5FF070000FFFF7FFF63
:101B3000F0B557464E464546DE46E0B581460500BF
:101B40000C03480092461F0085B0240B400DCE0FB9
:101B5000002800D156E1D44B984200D172E16B0FBE
:101B6000E4001C4380231B0423439846CF4BED0025
:101B70009B4600239946834400933C037B005046D8
:101B8000240B5B0DFF0F002B00D11FE1C64A9342CF
:101B900000D162E1C549420F8C46E4005946144326
:101BA000802263441204CB1A14439B46C2000020D7
:101BB00033007B409A464B460F2B27D8BC499B00ED
:101BC000CB589F46B246009B022B16D0032B00D168
:101BD0008EE2012B00D0D9E00023002400255246DC
:101BE0001B052343D20713432800190005B0F0BC9E
:101BF000BB46B246A946A046F0BD00240025AA4B2C
:101C0000EDE7BA46A04615000090DCE7444500D257
:101C1000C7E100D1C2E101235B429C462E00404651
:101C20000025E3442302140E1C431B0C9946230495
:101C30001F0C1202494600920197FEF707FB0200B3
:101C40007A430B04310C804619438A4207D9012399
:101C50005B429C460919E0448C4200D807E2881A8E
:101C60004946FEF7F3FA09048C4631046646019AA8
:101C7000090C4243030031438A4204D90919013B4C
:101C80008C4200D8EDE1881A424612041A4390466D
:101C90004146009B0E041B0C1F000293009B360C58
:101CA0001B04190C0B007343120C7E430391514328
:101CB0007A431F0CBC4676186644B14203D9802192
:101CC00049028C466244310C8A1831041E04360CD9
:101CD0008E19904202D312D1B54210D24346591EFA
:101CE000009B9C4665441F009D429B415B421B1923
:101CF000C018844200D2A0E100D19BE18846AE1B0F
:101D0000B542AD41801A6D42401B844200D1D5E1FD
:101D10004946FEF79BFA019A0B044243310C050039
:101D200019438A4200D96CE1881A4946FEF78EFAB7
:101D3000019A360442430904360C03000E43B242B2
:101D400000D953E10398B61A02002D041D43029FE7
:101D50002B041B0C5A437B439C46290C4843130C11
:101D6000844463447943984203D9802040028446E6
:101D70006144180C12041B04120C41189B188E426B
:101D800000D2FFE000D1FAE001231D43494A5A4442
:101D9000002A00DCAAE06B0700D03DE1ED084346D5
:101DA000DB0106D54246444B1A4090468022D200C1
:101DB0005A44424B9A4200DD1FE743465B071D43EE
:101DC000434652055C02240B530D08E7524622435A
:101DD00000D17BE0002C00D1FAE0200001F022FAD3
:101DE00002000B3A1D2301009B1A52460839DA40C3
:101DF0008C40144352468A40314B58449B4683449E
:101E00000020D5E64B462343984644D0002C00D111
:101E1000CEE0200001F006FA010002000B391D237C
:101E20005B1A49461000D940083884400B004D46E3
:101E30002343984685402348831A9B4600239946AE
:101E400000939AE64B46234398461DD108239946B2
:101E5000063B0025834600938FE65246224309D174
:101E6000022349461943184B89469C460024022008
:101E7000E3449DE603234A461A43134B91469C468E
:101E800052460320E34493E60C239946093BA046BF
:101E90008346009371E60423994600239B46013351
:101EA0000025009369E6C046FF07000001FCFFFF24
:101EB000E0E40008FF030000FFFFFFFEFE07000054
:101EC000F30300000DFCFFFF01F8FFFF494601236B
:101ED00019438946002401206AE6002380249A469B
:101EE00000258A4B24037AE601256D4201239B1AC3
:101EF000382B00DD70E61F2B00DCBFE01F214942BC
:101F00008A1A4146D1400A00202B04D04146804B1A
:101F10005B4499400D436B1E9D4107232A431D00DE
:101F200000241540134200D1D4E00F2100231140BA
:101F3000042900D1CBE0111D9142924152429B18DD
:101F40000A00190200D4C2E001230024002546E65D
:101F5000802341461B03194208D01C4206D11C4372
:101F60002403BA461500694B240B38E68024434607
:101F700024031C432403B246644B240B2FE6002B9E
:101F800000D103E7A619681EA64200D28DE08E425A
:101F900000D2A3E000D1B3E00500F5E6AA4200D9E3
:101FA00039E64346DE0758086B081E43ED0739E65D
:101FB000484601F037F901000200153120321C2992
:101FC00000DC2CE74B46083883400025984632E772
:101FD00001F028F903001A00153220301C2A00DC19
:101FE00000E75446083B00229C4005E73619013BB8
:101FF000B44200D9A6E6B24200D8A3E6831E361941
:10200000A0E60919013D8C4200D98DE68A4200D82C
:102010008AE6851E091987E60F232B40042B00D181
:10202000BCE605235B42AB429B4104355B42ED08B5
:102030009844B4E6AF4200D960E6824204D800D0AA
:102040005CE6AE4200D859E602235B429C46009B08
:10205000E0449C4665449D429B415B421B19C0186D
:102060004DE68A4200D80EE6831E09190BE68A4225
:1020700000D8F4E5831E98460919F0E525492800A3
:1020800059448D4042468A40691E8D414146D840A0
:10209000D94002432A430B00510700D151E70F21D9
:1020A0001140042900D046E74BE705008E4200D0DE
:1020B0006AE6009A934200D066E667E6164A5A44FA
:1020C000002A00DC10E701230025984467E65D073D
:1020D0005B021C0BD2080023154380E50098023DEB
:1020E00042008242BF417F423C1936190092DDE72F
:1020F0008024434624031C432403044B240B6EE535
:10210000009A9A42EAD30500D3E7C046FF070000D1
:102110003E0400001E040000FF030000F0B54E4620
:102120004546DE4657469046E0B517001A03120BA7
:102130000500844619480E034C0091465A00DB0FF7
:102140009B46360B640DC90F520D844219D0824252
:1021500010D0012094420ED14E450CD10120C4452F
:1021600009D1594517D0002C05D130002843431E12
:10217000984100E00120F0BCBB46B246A946A0460B
:10218000F0BD330001202B43F5D1A242F3D14B46E1
:102190003B43F0D1E2E70020EDE7C046FF07000037
:1021A000F0B54746CE460400180016001B031B0B73
:1021B0002D4D4A00994680B543000F03A446B04612
:1021C0003F0B520DC90F5B0DC00FAA4221D0AB428D
:1021D00013D0002A22D13C43002B02D14D462E437E
:1021E00022D0002C10D0814222D002200139084098
:1021F0000138C0BCB946B046F0BD4D462E4329D18A
:10220000002AF0D13C43EED10028F2D10120404217
:10221000EFE73D0025431DD19342EED0002BE2D1E4
:102220004C462643DFD1E0E70020002CE1D0DCE77C
:102230009A420ADCE8DB4F45D7D80ED000204F4544
:10224000D7D20029E2D00800D3E7434258414000EA
:102250000138CEE702204042CBE7C445C5D8002074
:10226000C445C6D2EDE7C046FF070000F0B54746BB
:10227000CE460400180016001B031B0B2C4D4A0011
:10228000994680B543000F03A446B0463F0B520D5C
:10229000C90F5B0DC00FAA420DD0AB4210D0002A6F
:1022A00027D13C43002B11D14D462E430ED10020A7
:1022B000002C15D00EE03D00254310D1934218D1DB
:1022C0004D462E430BD1002A02D13C43002C0BD0AB
:1022D000814214D0022001390840013800E0022078
:1022E000C0BCB946B046F0BD0028F9D1012040423B
:1022F000F6E7002BECD14C462643E9D1EAE79A42B7
:1023000004DD4342584140000138E9E79A42EBDBE3
:102310004F45DFD806D000204F45E1D20029E5D057
:102320000800DDE7C445D5D80020C445D8D2F5E77C
:10233000FF070000F0B557464E464546DE46E0B57D
:1023400098460C034B000600924687B0240B5B0DA9
:10235000CF0F002B00D15CE1D94A934200D175E147
:10236000420FE4001443802212041443D54AC500EE
:10237000944663440093002399469B464346424655
:102380001E03D20F5B0050469046360B5B0D00D10A
:1023900020E1CB4A934200D162E1CA49420F8C4608
:1023A00000996344F6008C46164380229C44120434
:1023B00063461643C2000020009300994346013152
:1023C0008C4649467B4001930F2926D8BE4B890095
:1023D00059588F46434601933400150083465B46A7
:1023E000022B16D0032B00D103E2012B00D0CDE04D
:1023F000002200240025019B12052243DB071A431B
:102400002800110007B0F0BCBB46B246A946A04662
:10241000F0BD00240025AA4AEDE7280C2D042D0C60
:102420002B00110C1204120C5343984613002F007A
:10243000434399464F434F44BB4647460B003F0C2E
:10244000BA464343DA440293D14504D980277F0238
:10245000B9464B44029353461B0C9B4653461F04FC
:1024600043461B041B0C98463B0043440493330C27
:102470003604360C9846330043439946434643435B
:102480002F009A46434677435D43380C4D44451927
:10249000A94503D980235B029946CA443F04280C0E
:1024A0003F0C2D04ED19270C2404240C03002000FC
:1024B00050437A4391463A0053440593030C9A469D
:1024C0004A43614349445144AB44894503D980237D
:1024D0005B0299464A4400040B0C000C09040918DD
:1024E00020009946434670435C437E435F43030CA0
:1024F0009846A41944444A440397A64204D9802329
:102500005B029846474403972304029E9A46059B24
:102510005E449846AE42AD4176188E428941000431
:10252000000C504440446D424719B8469346494216
:102530008946C344D94498428041A845AD4193455A
:102540009241894589416D4240422843240C5242C0
:1025500049420A43039B00198018C7184B46DC0DFB
:10256000049B75021D436A1E95414B46F60D7F0282
:1025700035435A023C431543FB0100D41CE10121C1
:102580006A080D401543E207154364084F4961444A
:10259000002900DCB0E06B0709D00F222A40042A92
:1025A00005D02A1DAA42AD416D4264191500E30110
:1025B00004D58021464AC90014406144454A9142ED
:1025C00000DD26E76207ED08640249051543240B88
:1025D0004A0D10E75246324300D17FE0002E00D171
:1025E000DCE0300000F01EFE02000B3A1D2301006B
:1025F0009B1A52460839DA408E40164352468A40AA
:10260000009B3549181A03008C4663440020009350
:10261000D3E6250005434AD0002C00D1B0E02000CD
:1026200000F000FE010002000B391D2310005B1AB0
:102630003100350008388440D94085400C43264895
:10264000831A0093002399469B4697E6050025438D
:1026500026D1082200930223002491469B468DE652
:102660005246009B324310D1154900268C466344E4
:102670004946009302231943894602209DE65B46A2
:102680000197022B00D0ADE6C3E60D4A0320944625
:1026900063444A46009303231A43914652468CE60C
:1026A0000C2200930323050091469B4666E6042313
:1026B000994600230093013300249B465EE6C04602
:1026C000FF07000001FCFFFF20E50008FF030000FA
:1026D000FFFFFFFEFE0700000DFCFFFF4946012340
:1026E000194389460026012067E60023802400253F
:1026F000434A019324037EE60120401A382800DD76
:1027000076E61F285BDD1F2223005242511ACB4080
:102710001900202803D03B4A6244944025436A1E96
:1027200095412A000A4307210D000024154011425B
:102730005BD00F2100241140042953D0111D914278
:1027400092415242A4180A0023024BD501220024D0
:10275000002550E680231B031C4209D01E4207D1EE
:1027600033431C0343461500240B254A019342E6DC
:102770008022120314432403214A240B01973AE6D2
:1027800000F050FD01000200153120321C2900DC50
:102790004BE7340008380025844050E700F042FD44
:1027A00003001A00153220301C2A00DC1EE75646B2
:1027B000083B00229E4023E7009B9C46E6E6124928
:1027C000220061442E008D408A40C640691E8D4122
:1027D00032432A43C4405307B6D00F211140042985
:1027E000ACD1B1E765076402240BD208154300227F
:1027F00001E68022120314432403014A240BFAE564
:10280000FF0700003E0400001E040000F8B5574614
:102810004E464546DE46E0B51E0017004A000B0353
:10282000520D5B0A9046420F1A43CD0FCD4C310337
:10283000C300944670007A0F490AFF009A46B946D1
:10284000400DF60F1143A04200D1B1E001225640E5
:10285000B346B54200D188E04246121A002A00DC95
:10286000AEE0002800D1C1E0BE48804500D151E172
:10287000802000040143382A00DD7BE11F2A00DDAF
:10288000EEE120203E00801A0C00D640D140874067
:1028900062468440521A781E874194463443274347
:1028A000DC1BA3429B4162465B42D31A99464B46CE
:1028B0001B0200D418E14B465802430A99464B4686
:1028C000002B00D137E1484600F0ACFC010008398C
:1028D0002023220048465B1ADA4088408C40434659
:1028E0001043884500DD36E1C91A4B1C1F2B00DD63
:1028F000EAE020222600D21A01009440DE40D840AF
:1029000000239140621E94418146984631430C4316
:10291000630709D00F232340042B05D0231DA342B6
:10292000A4416442A1441C004B461B0200D4DEE0DB
:1029300041468C4B0131994200D1E7E04B468A4831
:10294000E4080340180049055B07400223434A0D91
:10295000040B1205ED0722432A4318001100F0BCB6
:10296000BB46B246A946A046F8BD4246121A002A06
:1029700052DD002800D19CE0A04500D1CAE08020B3
:1029800000040143382A00DD49E11F2A00DC97E1F9
:1029900010000E002038C640202A04D04020821AA1
:1029A00091400F43B9464C46621E944134433AE18C
:1029B0000A003A4328D0B346B5422BD06B4A424472
:1029C000002A5DD042464446821A002C00D0F5E031
:1029D00065461D4300D19CE1551E012A00D1FBE153
:1029E000604CA24200D1BDE12A00F0E0080038436B
:1029F00000D1C3E0501E012A00D1A8E1594CA242E7
:102A000000D187E0020036E701225640B346B542C6
:102A100000D021E7554A4244002A00D1B5E04246A1
:102A20004446821A002C00D138E14E4EB04200D10B
:102A3000DEE18026644636043443A446382A00DDAD
:102A400096E11F2A00DD24E22026B41AA24664463D
:102A50005646B440A1461C004E46D440264334009E
:102A60005646B3405E1EB3411C436346D340C9186B
:102A7000E419BC42BF417F42B94680468944D8E050
:102A800040463B4C0130204200D0B4E04046002894
:102A900000D044E16046184300D190E1080038437B
:102AA00000D0AAE16146DB0849070B436146CC0828
:102AB00027E00800384361D0501E012A00D139E1D7
:102AC000A24227D002005DE702001F39CA40110070
:102AD000202B03D04022D31A98400443631E9C410C
:102AE0000023994698460C43630700D012E74B46F3
:102AF0004A46E4085B072343D408424619498A4200
:102B00000ED024035205240B520D22E70A000024A4
:102B100000231EE7DB086246520713436246D408CF
:102B20001A00224300D1FCE1802212031443240343
:102B30000C4A240B0DE7200000F074FB0100183153
:102B40001F2900DCC4E608388440434620000024E6
:102B5000884500DCC8E6044A5B1A10409846814666
:102B6000D6E6C046FF070000FFFF7FFF01F8FFFF2A
:102B7000FE0700000F437A1E974191E66146DB088D
:102B800049070B436146CC08B8E74046D34C0130B7
:102B9000204200D0A2E04046002800D001E160467B
:102BA000184300D15EE10800384300D05FE1614680
:102BB000DB0849070B436146CC08A2E7C84DA84291
:102BC00000D1CFE0802564462D042C43A446382A4A
:102BD00056DC1F2A00DDD1E020251E00AD1A644618
:102BE000AB40AC40D6405D1EAB413443234364460A
:102BF000D440091B49E06046DC1B461AA3428041D1
:102C00004042814630004E46801B8146000276D409
:102C10004B46234300D052E60024002571E7394398
:102C20000C00621E9441E4189C429B415B42634449
:102C300099464B461B0200D456E701239C46A84BFD
:102C4000E044984538D04B46A6480122034018007E
:102C5000630814401C43C3071C434308994657E6C6
:102C600010000E002038C640202A04D04020821ACE
:102C700091400F43B9464F467A1E974137430FE6BE
:102C800062461A4313005A1E9341FC1AA742BF41E1
:102C90007F42CB1B99465D46804608E666461E434A
:102CA00000D1BEE0561E012A00D109E18C4CA2429F
:102CB00000D119E13200C1E642460024002348E673
:102CC00020200C00801A3E0087408440D640781EA9
:102CD0008741D14034433C438C44A4E7804A90422E
:102CE00000D1E9E0DF199F429B4161445B42C91872
:102CF000CC077F084B08994680463C43F4E6FC1A13
:102D0000A742BF4163467F42C91ACB1B99465D4625
:102D1000D5E5FF084B075D463B43CC08EEE662462F
:102D20001A4300D082E00B003B431BD180240025D6
:102D30002403F9E6DC199C429B41614489465B42CD
:102D400099444B461B0244D401239846CCE6DC1B35
:102D50006246A3429B41511A5B42CB1A994601231A
:102D60009846A4E5FF084B075D463B43CC08D7E6F1
:102D700062461A431400631E9C4179E615006446BE
:102D8000203DEC40A046202A05D040256446AA1AE2
:102D9000944023439A465446631E9C414346234332
:102DA00073E762461A4323D00A003A4300D0A0E0FA
:102DB0006246DB08520713436246D408B0E60B00B4
:102DC0003B4300D128E7FF084B075D463B43CC0857
:102DD00097E60223984636E7FC1AA742BF416346AE
:102DE0007F42C91ACB1B994601235D4698465EE592
:102DF0004B07FF083B43CC0892E6DC1B6046A3422E
:102E0000B641401A7642801B8146000260D5FC1A0A
:102E1000A742BF4163467F42C91ACB1B99465D4614
:102E200076E5FF084B073B43CC0867E60A00DB0862
:102E30003A4300D16FE66246520713436246D40814
:102E400080221203144207D0C808104204D15D4604
:102E50000400FB0849070B435A0FDB00DB0852074D
:102E600013435DE64B07FF083B43CC0849E6DC19FA
:102E70009C429B41614489465B4299444B461B02FC
:102E800000D431E64A46174B1A4001239146984632
:102E90002AE616006446203EF440A046202A05D0CB
:102EA00040266446B21A944023439A465446631E11
:102EB0009C4143461C43DBE502000024002348E517
:102EC000DC19BC42BF41614489467F42B94438E7BE
:102ED0004B46234300D19FE606E6C046FE070000AE
:102EE000FF070000FFFF7FFFFF084B073B43CC08B5
:102EF00016E66246DB08520713436246D408802276
:102F00001203144207D0C808104204D15D460400E1
:102F1000FB0849070B435A0FDB005207DB0813433A
:102F2000FEE50023014A1C0013E5C046FF07000030
:102F300070B505000C481C0316005B000A0349002D
:102F4000120B490D240B5B0D814208D0064A00206C
:102F5000934203D120003043431E984170BD0120AD
:102F60002A43FBD1F2E7C046FF0700000A0030B554
:102F7000134C530009030500090B00205B0DD20F11
:102F8000A34204DD0F48834202DD0F4BD01830BD51
:102F90008020400301430D48C01A1F2808DD0C485B
:102FA000C31AD9400B005842002AF0D11800EEE7AE
:102FB000084CC540A446634499400B002B43F2E7FC
:102FC000FE0300001D040000FFFFFF7F330400002C
:102FD00013040000EDFBFFFF70B5002816D0C317E7
:102FE000C5185D40C40F280000F01CF9114A121AE0
:102FF0000A2816DC03002E0015339E400B23181AF6
:10300000C54052052D032D0B530D03E00024002372
:10301000002500261B052B43E4072343300019003D
:1030200070BD0B38854052052D0300262D0B530D26
:10303000F0E7C0461E04000010B5041E10D000F0DA
:10304000F1F80F4B1B1A0A2811DC0B222100121A6F
:10305000D14015300A035B058440120B5B0D01E083
:10306000002300221B0513432000190010BD22007D
:103070000B3882405B0512030024120B5B0DF1E755
:103080001E04000070B543004602C40FFE201B0E54
:10309000591C750A08420CD0E022920094466D0734
:1030A000360B63441B053343E40723432800190010
:1030B00070BD002B14D1002D1BD0280000F0B2F8F9
:1030C0000A281CDC0B232E001B1ADE4003001533DC
:1030D0009D400E4A3603121A5205360B530DE1E796
:1030E000002D09D08022360B1203094B6D071643C1
:1030F000D8E700230026D5E70026054BD2E70300DA
:103100000B3B9D402E000025E3E7C04689030000ED
:10311000FF07000002004B00F0B55B0D0C033D4EB5
:10312000640A400F5F1CC90F0443D50037420AD020
:1031300039481E18FE2E16DDFF200024C00520434E
:10314000C9070843F0BD002B06D12C4326D0052229
:103150009201540AD8B2F1E72543EDD08020C00394
:103160000443FF20EAE7002E1BDD9201531E9A4123
:10317000E4006D0F22432A43530748D00F23134026
:10318000042B00D004328023DB0413403FD0701C9A
:10319000FE2ED1D09201540AC0B2CFE70020002405
:1031A000CCE73200173222DB8020000420431E24AB
:1031B000A41B1F2C1DDD02225242961B0200F2406E
:1031C0001600202C04D0154A9446634498400543C9
:1031D0002A00531E9A41324300265307CED1802441
:1031E0001300E404012023402242D3D1B0E700239E
:1031F000ADE70B4A94462A00E24014002A006344DB
:103200009A409840551EAA4102432243E4E7330006
:103210009EE7C046FE07000080FCFFFFA2FCFFFF08
:1032200082FCFFFF1C2101231B04984201D3000CE8
:1032300010391B0A984201D3000A08391B09984229
:1032400001D30009043902A2105C40187047C0463F
:10325000040302020101010100000000000000005F
:1032600010B5002903D1FFF7DDFF203002E0080090
:10327000FFF7D8FF10BDC04680B582B000AF020096
:10328000FB1D1A70FB1D1B78002B0CD0FB1D1B783F
:10329000013BDBB21800FFF7EFFF020013009B00B9
:1032A0009B185B0000E001231800BD4602B080BD02
:1032B00080B582B000AF0200FB1D1A70FB1D1B78A9
:1032C0009B0001229A4013001800BD4602B080BD49
:1032D00090B585B000AF78600A00FB1C1A7000231F
:1032E000FB600B217B1800221A707B1800221A70D9
:1032F00031E00B217B181B787A68D3181B782F2BB1
:103300001ED97B181B787A68D3181B78392B17D8ED
:103310007B181B787A68D3181B78303B1C00FA1C8A
:103320007B1812781B78D31ADBB2013BDBB2180092
:10333000FFF7A2FF03006343FA68D318FB6004E0C1
:1033400001F0B4FF01235B420DE00B217B181A78DA
:103350007B1801321A700B23FA18FB1C12781B78A9
:103360009A42C6D3FB681800BD4605B090BD000068
:1033700090B587B000AF78600A00FB1C1A7000237C
:103380007B6100233B610F217B1800221A707B18A0
:1033900000221A7059E00F23FB181B787A68D318A3
:1033A0001B78303B362B34D89A002E4BD3181B6831
:1033B0009F4600233B6131E001233B612EE0022365
:1033C0003B612BE003233B6128E004233B6125E0C4
:1033D00005233B6122E006233B611FE007233B619D
:1033E0001CE008233B6119E009233B6116E00A2336
:1033F0003B6113E00B233B6110E00C233B610DE0CC
:103400000D233B610AE00E233B6107E00F233B6184
:1034100004E001F04BFF01235B421EE0FA1C0F2485
:103420003B1912781B78D31ADBB2013BDBB21800D0
:10343000FFF73EFF02003B6953437A69D3187B6173
:103440003B191A783B1901321A700F23FA18FB1C2A
:1034500012781B789A429ED37B691800BD4607B04C
:1034600090BDC04660E5000880B584B000AFF8604C
:10347000B9607A607B689AB2FA239B00B968044805
:1034800006F08AFC7B681800BD4604B080BDC046CB
:103490006C03002080B584B000AF7860184B1B7EB1
:1034A000002B29D0174B1B68FB600A2008F0FEF8A0
:1034B00003F042F90200144B1100180008F0DCF888
:1034C000FB681B0C9BB21A00FF231A401100FB681B
:1034D0001B0A9BB21A00FF231A40FB689BB218001C
:1034E000FF230340094808F0C7F87B68180008F07C
:1034F000C3F80A2008F0DAF8C046BD4604B080BD23
:10350000E80400200028004028DF000830DF000821
:1035100080B582B000AF7860074B1B7E002B06D0D1
:103520007B68180008F0A8F80A2008F0BFF8C04629
:10353000BD4602B080BDC046E804002080B582B020
:1035400000AF78603960084B1B7E002B08D03A68CA
:103550007B681100180008F08FF80A2008F0A6F820
:10356000C046BD4602B080BDE804002080B582B0F0
:1035700000AF78603960084B1B7E002B08D03A689A
:103580007B681100180008F077F80A2008F08EF820
:10359000C046BD4602B080BDE804002090B583B0AF
:1035A00000AF391D154B0222180003F051FA052017
:1035B00000F0F6FE391D114B0222180003F048FA04
:1035C000022000F0EDFE0E4B1B881800FDF732FFC5
:1035D000031C0C49181CFDF739FC031C1C1C3B1D6B
:1035E0005B881800FDF726FF031C191C201CFDF743
:1035F00065FA031C181CBD4603B090BD1C020020D8
:103600007800F81F0000404080B584B000AF002370
:10361000FB600023BB6000237B60A023DB0501224D
:103620000221180004F0ABFAB91C3E4B012218002D
:1036300003F00EFA052000F0B3FEB91C394B01224D
:10364000180003F005FA022000F0AAFEBB1C1B883C
:103650001800FDF7EFFE031C181CFFF713FD020016
:103660000B0000203049FEF763FA02000B00100047
:10367000190000222D4BFFF7C9F802000B001000C3
:10368000190000222A4BFEF755FE02000B00100025
:103690001900FFF73FFD031CFB602649F868FDF7A2
:1036A0000DFA031C181CFFF7EDFC02000B001000C4
:1036B00019000AF02BFAC022D2051F4BFEF73AFE82
:1036C00002000B001000190000221C4BFDF7F4FE55
:1036D00002000B00802000061949FEF729FA0200BB
:1036E0000B0010001900FFF715FD031CBB60B86844
:1036F000FFF7C8FC134A144BFFF788F802000B00D1
:1037000010001900FFF706FD031C7B60A023DB05FA
:1037100000220221180004F032FA7B68181CBD4612
:1037200004B080BD1C0200200000B0400000F03F4B
:103730000088C34000401C4666A2724000DCAE40D8
:103740005CF83141666666666612714080B582B08B
:1037500000AF7860074B1800FFF79CFE064B002275
:103760001A70064B1A7801210A431A70C046BD46EA
:1037700002B080BD44DF0008500400204C0400204B
:1037800090B583B000AF7860164B1B781C00164BC9
:103790005B685B0078211800FCF7D2FC03009C42B8
:1037A0000AD9124B1800FFF775FE114BDA68104B5F
:1037B00004210A43DA6011E00E4B1800FFF76AFE9D
:1037C000084B1B780133DAB2064B1A70054B1B7895
:1037D0001A00094B11001800FFF7B0FEC046BD46A5
:1037E00003B090BD50040020E804002054DF00081E
:1037F00000ED00E07CDF00088CDF000880B500AF42
:10380000154B1A7B154B5A71134B5A7B134B9A71FC
:10381000114BDA7A114BDA710F4B9A7B0F4B9A737B
:103820000D4B1B681800FDF705FE031C0C49181C06
:10383000FDF744F9031C181CFCF7BEFE0200074B01
:103840001A60054BDA7B054B1A71034B1A89034B3F
:103850009A81C046BD4680BDE80400205404002083
:10386000D723744280B500AF154B00229A72144BD7
:10387000962292005A60124B8022D2055A61104B58
:1038800007225A730E4B0422DA720D4B0C221A7364
:103890000B4B01229A730A4B1422DA73084B094A24
:1038A0001A60074B05221A81054B01221A74044B3A
:1038B00000221A76FFF7A2FFC046BD4680BDC04673
:1038C000E804002000D6C83380B582B000AF344B86
:1038D0007B607B681B68334A934200D85BE07B685F
:1038E0001B68314A934256D87B685B7B092B52D8C0
:1038F0007B68DB7A042B4ED87B68DB7A002B4AD0BE
:103900007B681B7B062B46D97B681B7B0C2B42D824
:103910007B68DB7B092B3ED97B68DB7B142B3AD899
:103920007B689B7B342B36D07B685B691F49181CF6
:10393000FCF7EAFD031E2ED07B685B691C49181C4E
:10394000FCF7CEFD031E26D07B685B683B2B22D99B
:103950007B685B68174A93421DD87B681B89012BE3
:1039600019D97B685B691449181CFCF7CDFD031E4F
:1039700011D07B685B691149181CFCF7B1FD031E6F
:1039800009D079680E4B1C22180007F0F5F9FFF7F3
:1039900035FF002300E001231800BD4602B080BDC2
:1039A0000000080880B63908BF878B3B9A99D93F39
:1039B00000004040C0A800006666E63F66664640DC
:1039C000E804002090B585B000AF78607B68BB60EC
:1039D00003F0AEFE0F23FB1800221A7014E00F2430
:1039E0003B191B780E4A944663449B001900BB6840
:1039F0001A1DBA601B681A00022003F0D5FE3B199D
:103A00001A783B1901321A700F23FB181B78062B0A
:103A1000E5D903F0BBFEC046BD4605B090BDC0462B
:103A20000000020280B582B000AF0200BB1D1A8008
:103A3000094B1B881900094B0422180005F0E2FB12
:103A4000BB1D1A88064B11001800FFF777FDC04612
:103A5000BD4602B080BDC04614000020F002002028
:103A6000A4DF000880B500AFC0239B010B480022F3
:103A7000190004F084F80A4B180002F0BFF802F0B5
:103A800065FE084B1A68074B04210A431A6001219E
:103A9000012004F099FBC046BD4680BD00040050E3
:103AA000540400200070004090B583B000AF7860EF
:103AB0003960524B9A7A524B1B68111C1F220A40E4
:103AC000D2B2D0001A7807210A40111C021C0A4306
:103AD0001A704B4B1B681A7801210A431A70484B25
:103AE0001B687A68127801210A4010005A78012177
:103AF0008A43111C021C0A435A70414B1B681A78F6
:103B000006218A431A707B685B78002B03D17B689F
:103B1000DB79002B01D0012200E00022384B1B682A
:103B2000111C01220A40D2B201210A4090185A7891
:103B300002218A43111C021C0A435A70304B1B6835
:103B40007A68127901210A4090005A7804218A4348
:103B5000111C021C0A435A70FFF756FD031C191C66
:103B6000181CFCF70DFE031C2649181CFCF708FE68
:103B7000031C1A1C224B1C68101CFCF71DFD0300C3
:103B8000DBB2A370FFF70AFD031C1F49181CFDF7E9
:103B90005DF9031C181CFDF72DFC0300DBB2133B81
:103BA000DAB2174B1B68111C1F220A40D2B2D00098
:103BB0005A7807210A40111C021C0A435A707B687C
:103BC0005B78002B03D17B68DB79002B01D00123CC
:103BD00000E000231A1C01231340DAB27B68DA707C
:103BE0007B681A797B689A71084B0321180002F0F0
:103BF00047F9C046BD4603B090BDC046E80400206A
:103C0000200000200000A0420000204154040020B9
:103C100080B586B000AF3B1D180014231A000021A8
:103C200007F0B3F83B1DC0221A603B1D03225A6007
:103C30003B1D00229A603B1D044A1900100003F04E
:103C40000BFEC046BD4606B080BDC0460004005015
:103C500090B587B002AF184B180001F059FFFFF77D
:103C600001FEFFF731FE08217B1810221A607B1835
:103C7000A022D2055A603B0008221A603B00A02215
:103C8000D2055A607B183A000B4C0C4901916946E9
:103C9000586808601B6811685268200001F064FFD2
:103CA000054B180002F002FA034B180001F052FE17
:103CB000C046BD4605B090BD54040020140300204A
:103CC00080B584B000AF80231B06FB6080231B06F9
:103CD000BB6080231B067B60FB1C00221A705D4BBF
:103CE0001800FFF7D7FB5C4B180002F0E9F85A4BBD
:103CF0005D229B5C002B2BD0574B60229B5C0122EA
:103D00005340DBB2002B1FD0534B5B7FFF2B17D1EF
:103D1000514B9B7FFF2B13D1FB1C01221A704E4B82
:103D2000DB7F012B03D102F007FD0300BB604A4B90
:103D3000DB7F022B08D102F0FFFC03007B6003E075
:103D400002F0FAFC0300FB60434B5D220021995412
:103D5000FB1C1B78002B51D03F4B1B7F002B0ED040
:103D600080235B013D480122190003F008FF8023F6
:103D70009B013A480122190003F001FF0DE0802366
:103D80005B0136480022190003F0F9FE80239B01F5
:103D900032480022190003F0F2FE02F0CDFC0200CE
:103DA000BB68D21A96235B009A4207D280239B01FC
:103DB0002A480122190003F0E2FE06E080239B015D
:103DC00026480022190003F0DAFE02F0B5FC0200DA
:103DD0007B68D21A96235B009A4207D280235B014C
:103DE0001E480122190003F0CAFE7CE780235B0114
:103DF0001A480022190003F0C2FE74E7164B1B7F1D
:103E0000002B07D080235B0114480122190003F026
:103E1000B6FE06E080235B0110480022190003F083
:103E2000AEFE02F089FC0200FB68D21A96235B000A
:103E30009A4207D280239B0108480122190003F00F
:103E40009EFE50E780239B0104480022190003F0E6
:103E500096FE48E7C8DF0008540400200004005024
:103E600080B500AF2C4B1800FFF714FB2B4B18004C
:103E700002F026F8294B5D229B5C002B10D0274BCB
:103E800060229B5C01225340DBB2002B04D002F085
:103E900053FC0200224B1A60204B5D2200219954F2
:103EA00002F04AFC02001F4B1B68D21AFA23DB0007
:103EB0009A4204D902F040FC02001A4B1A6002F048
:103EC0003BFC0200164B1B68D21A96235B009A42F9
:103ED00007D280239B0114480122190003F04FFEF2
:103EE00006E080239B0110480022190003F047FEE2
:103EF0000A4B1B7C032B07D180235B010A4801225C
:103F0000190003F03CFEB1E780235B010648002264
:103F1000190003F034FEA9E7E4DF00085404002090
:103F200014060020180600200004005080B582B05E
:103F300000AF78607B681B7F002B0BD0274B1B7C6E
:103F4000002B07D080239B0125480122190003F094
:103F500016FE06E080239B0121480022190003F091
:103F60000EFE7B681B7C032B0BD11C4B1B7C002B98
:103F700007D080235B011A480122190003F0FFFDDE
:103F800006E080235B0116480022190003F0F7FDCC
:103F900002F0D2FB0200134B1B68D31A124A934261
:103FA00004D902F0C9FB02000E4B1A6002F0C4FBF8
:103FB00002000C4B1B68D31A312B0AD8074B1B7C11
:103FC000002B06D0C0239B0105480122190003F0F5
:103FD000D6FDC046BD4602B080BDC046E804002004
:103FE000000400501C0600208813000090B589B022
:103FF00000AFF860B9607A60754B1B68FB61744B69
:104000005B68BB6102F098FB03007B61714B180099
:1040100007F0D2FB7A69704B1100180007F02CFBF7
:10402000FB691B0C9BB21A00FF231A401100FB69AD
:104030001B0A9BB21A00FF231A40FB699BB21800AF
:10404000FF230340654807F017FBBB699BB21A00CA
:10405000FF231A401100BB691B0A9BB21A001F23E1
:104060001A40BB691B0C9BB21800FF230340802041
:104070008001844663445A4807F0FEFAFFF78EFA3F
:10408000031C181CFDF7B6F90400FFF787FA031CA0
:104090005449181CFCF7DAFE031C181CFDF7AAF99A
:1040A000030064211800FCF7BBF90B001A004E4B0B
:1040B0002100180007F0E0FAFFF7A6FA031C181C0D
:1040C000FDF798F90400FFF79FFA031C4749181CF5
:1040D000FCF7BCFE031C181CFDF78CF903000A2139
:1040E0001800FCF79DF90B001A00414B2100180045
:1040F00007F0C2FAFB681B79002B01D03D4B00E0B2
:104100003D4B3E4A1900100007F0B6FAFB689B7958
:10411000002B01D0374B00E0374B394A1900100013
:1041200007F0AAFAFB681B78002B01D0314B00E0A6
:10413000314B344A1900100007F09EFAFB685B7897
:10414000002B01D02B4B00E02B4B2F4A1900100005
:1041500007F092FAFB68DB78002B01D0254B00E0DA
:10416000254B2A4A1900100007F086FAFB68DB7914
:10417000002B01D01F4B00E01F4B254A19001000F7
:1041800007F07AFA234B1B7C1A00234B9200D2587B
:10419000224B1100180007F06FFABA68204B11008B
:1041A000180007F069FA7A681E4B1100180007F032
:1041B00063FA02F0C1FA02007B69D21A1A4B1100AD
:1041C000180007F059FAC046BD4609B090BDC04678
:1041D00000280040F8DF00080CE000081CE00008A0
:1041E0003CE000080000C84258E000080000204100
:1041F0006CE0000880E0000884E0000888E0000827
:1042000098E00008B0E00008C0E00008D4E0000832
:10421000ECE00008540400200000002008E1000841
:104220001CE1000830E100084CE1000880B584B0D2
:1042300000AF78600023FB601AE0C0239B011148A7
:104240000122190003F09BFCFA239B00180000F0E8
:10425000A7F8C0239B010B480022190003F08FFC34
:10426000FA239B00180000F09BF8FB680133FB6009
:10427000FA687B689A42E0DBC046C046BD4604B09F
:1042800080BDC0460004005080B582B000AF00235E
:104290007B6016E0C0239B0110480122190003F047
:1042A0006EFCC82000F07CF8C0239B010B48002264
:1042B000190003F064FCC82000F072F87B68013339
:1042C0007B607B68022BE5DDFA235B00180000F0C1
:1042D00067F8C046BD4602B080BDC046000400502D
:1042E00080B582B000AF00237B601AE080239B0181
:1042F00029480122190003F042FCFA239B00180010
:1043000000F04EF880239B0123480022190003F09F
:1043100036FCFA239B00180000F042F87B6801335A
:104320007B601E4B9B7A0A211800FBF709FF0300F4
:10433000DBB21A007B689342D8DB00233B601AE0B3
:1043400080235B0114480122190003F018FCC823E4
:104350009B00180000F024F880235B010E48002227
:10436000190003F00CFCC8239B00180000F018F89B
:104370003B6801333B60094B9B7A0A211800FBF72D
:1043800065FF0B00DBB21A003B689342D8DBC046E6
:10439000C046BD4602B080BD00040050E8040020C5
:1043A00080B584B000AF786002F0C6F90300BB604E
:1043B0007B68FB60FB6801330AD00C4B1B781A004A
:1043C000FB689B18FB6003E0094B180006F09CFC9F
:1043D00002F0B2F90200BB68D31AFA689A42F3D825
:1043E000C046C046BD4604B080BDC0462C0000207B
:1043F0003804002090B583B000AF02F037F900F028
:104400004DFC00F051FE00F029FE00F069FD00F0C7
:104410009BFD00F0D1FD00F0C5FC00F037FD00F081
:10442000FBFD564A564B1100180001F03BFFF023EC
:10443000DA01544B1100180003F070FC524A534B40
:104440001100180007F018F9514B9A68504BC02121
:1044500049010A439A604F4B0021180002F024FDE5
:10446000FFF7F6FB4C4B5B689AB24C4B1A804C4BF7
:104470001A7801210A431A7080235A00A023DB0511
:104480001100180003F05EFB03005A1E9341DAB2DC
:10449000444B5A71A023DB050121180003F052FBA5
:1044A00003005A1E9341DAB23E4B9A7002F04EF965
:1044B0003D4B8021180003F045FB031E0CD13A4B05
:1044C0004021180003F03EFB031E05D0374B1800B7
:1044D000FFF71EF8FFF7F4FB334B8021180003F0C1
:1044E00031FB031E0CD0304B4021180003F02AFB97
:1044F000031E05D12E4B1800FFF70AF8FFF7B0FC9A
:10450000294B8021180003F01DFB031E0DD1264B03
:104510004021180003F016FB031E06D1254B18009E
:10452000FEF7F6FF244B01221A70244B1800FEF709
:10453000EFFF124B78229B5C002B07D1204B180019
:10454000FEF7E6FF0220FFF771FEFEE70B4B782235
:104550009B5C1A001B4B11001800FEF7EFFF1A4B73
:104560001A6D80239B00134032D1184B1800FEF7C0
:10457000CFFF0320FFF75AFEFEE7C0465404002099
:104580006C030020C00200202220071164E1000813
:10459000005801401C020020E80400201400002004
:1045A0004C040020E004002000040050C8DF000894
:1045B000E4DF000870E100080906002088E1000837
:1045C000A0E10008B4E1000800100240D0E10008BA
:1045D000DB4B1800FEF79CFFFFF756FEFFF780FE4F
:1045E000FFF716FBD74B1A7801210A431A70D64BF6
:1045F0009B7A1A00D54B11001800FEF79FFFD24B93
:104600001B681A00D24B11001800FEF797FFCE4B23
:104610001B7B1A00CF4B11001800FEF78FFFCA4B0F
:104620005B7B1A00CC4B11001800FEF787FFCB4BC9
:10463000180006F069FBFEF7E7FF021CC84B1A6082
:10464000C84B1B791C0080235A00A023DB051100F6
:10465000180003F077FA03009C4212D002F06CF8C5
:104660000200C14B1A6080235A00A023DB05110011
:10467000180003F067FA03005A1E9341DAB2B94BEF
:104680001A71B04B5B7804221340DBB2002B0CD0C4
:10469000AC4B5A7804218A435A70B44B1968B44B16
:1046A0001A68B04B1800FFF7A1FCA64B1B7801223B
:1046B0001340DBB2002B15D0A24B1A7801218A439C
:1046C0001A70A84B1B7801225340DBB2002B06D195
:1046D000A44B1B7901225340DBB2002B02D0A54B27
:1046E00007221A70974B1B7810221340DBB2002B65
:1046F00010D0944B1A7810218A431A709E4B1800E0
:10470000FEF7C8FE904B1800FFF778F88E4B1800A4
:10471000FFF758F9934B9A78924B5B789A4220D1E5
:10472000904B5A798F4B1B799A4212D002F004F8C1
:1047300002008D4B1B68D11A834B9B7A1A00130021
:104740009B009B181A01D21A13011A0013009942F8
:1047500007D8884B1B78002B03D1824BDB79002BC9
:1047600056D0864B1B7801225340DBB2002B4FD032
:104770007C4B1B7801225340DBB2002B48D001F068
:10478000DBFF02007E4B9B69D21A6F4B9B7A1900AC
:104790000B009B005B189B000A339A4238D9784B78
:1047A0001B7C032B34D06F4B5B78002B02D06D4BFE
:1047B0000122DA716F4B1B78002B05D06D4B1B78F3
:1047C000013BDAB26B4B1A706E4B1800FEF762FEBB
:1047D000684B1B781A006C4B11001800FEF7AEFEF8
:1047E000624B1B685A1C614B1A6001F0A5FF020066
:1047F000664B1A60544A5B4B11001800FFF754F9DE
:104800005E4B01221A70624B1B881800FFF70AF9F1
:104810005A4B1B78002B3FD001F08EFF02005B4B00
:104820001B68D21A5B4B1B689A4235D9504B1B68E8
:104830005A1C4F4B1A60444B5A6813005B019B1A79
:104840009B009B18DB0003211800FBF779FC030099
:104850007B60514B1800FEF71DFE484B00221A707A
:10486000394B9B7A1A0013009B009B181A01D21A2D
:1048700093001A0013001A00464B1B68D318FA2243
:1048800092009A18434B1A60424B1A687B68934215
:1048900000D913003F4A136001F016FD294B1B7825
:1048A00020221340DBB2002B08D0264B1A7820219F
:1048B0008A431A70244B180001F03AFE304B5D22F7
:1048C0009B5C002B00D157E1344B1800FEF7E2FD52
:1048D0002B4B60229B5C002B08D0314B1800FEF75D
:1048E00017FE274B5D220021995441E12D4B1B6897
:1048F0001B7801221340DBB2002B00D004E1294BCE
:104900001B681B781B06DB0EDBB21A000E4B9B7A72
:104910009A4200D0F8E0134B1A78224B1B685B7860
:10492000DB07DB0FDBB29A4246D01E4B1B685B787D
:1049300001221340DBB2002B38D01B4B37E0C046BE
:10494000E0E100084C040020E8040020ECE100084D
:1049500000E2000810E2000828E200083804002005
:10496000DC040020E0040020D80400200C06002015
:10497000100600200806002038E200080A06002081
:104980005404002054E2000864E2000804050020FA
:10499000140000201C00002074E2000888E20008D7
:1049A00098E200081800002080E00008A54BA64A05
:1049B00019001000FEF7DAFDA44B1B685B78DB07DB
:1049C000DB0FDBB25A1E9341DAB2A14B1A709F4B38
:1049D0001B685B7801229343DBB2002B04D19B4B15
:1049E0001B689B78002B31D0984B1B689B789AB240
:1049F000964B1B685B781B065B0EDBB29BB21B02FF
:104A00009BB2D3189AB2934B1A80924B1B881A0010
:104A1000914B5B685B009A420FD98E4B1B881A0042
:104A20008E4B11001800FEF789FD8B4B5B689BB223
:104A3000DB189AB2874B1A8016E0864B1B881A0047
:104A4000874B11001800FEF779FD0DE0824B5B6883
:104A50009BB21A00834B11001800FEF76FFD7E4BCE
:104A60005B689AB27B4B1A807A4B1B881800FEF762
:104A7000D9FF764B1B681B7806221340DBB2022B52
:104A80001CD1794B1800FEF743FD784B1B685A1C6C
:104A9000764B1A6001F050FE0200754B1A606E4AA8
:104AA0006B4B11001800FEF7FFFF724B01221A70CA
:104AB000684B1B881800FEF7B5FF58E0634B1B6876
:104AC0001B7806221340DBB2002B50D16A4B180032
:104AD000FEF71EFD5E4BDB78002B02D05C4B002204
:104AE000DA715B4BDA785A4B9A70594B9A79584B7A
:104AF0005A71604B00221A70604BFA22D2001A6081
:104B00005F4B00221A7032E0504B1B681B78012269
:104B10001340DBB2002B1DD14C4B1B681B781B06CE
:104B2000DB0EDBB21A00574B11001800FEF706FD32
:104B3000464B1B689B781A00444B1B685B781B062E
:104B40005B0EDBB21B02D2184F4B11001800FEF7B0
:104B5000F5FC0DE03D4B1B681B781B06DB0EDBB242
:104B60001A004A4B11001800FEF7E8FC00E0C046AE
:104B7000474B5D2200219954454B180001F0A0F9E4
:104B8000434B1800FFF7D2F9A023DB0501211800E1
:104B900002F0D8FF031E03D12D4BDB79002B01D08F
:104BA000012300E000231A1C01231340DAB2284B32
:104BB0005A7080235A00A023DB051100180002F070
:104BC000C1FF03005A1E9341DAB2214B1A71204BE8
:104BD0001B7901225340DBB2002B00D127E5254B86
:104BE0001B7801225340DBB2002B00D11FE5284B7C
:104BF0005B7C01225340DBB2002B00D117E5144B44
:104C00001A79134B5B799A4200D010E5104B5A7811
:104C10000F4B9B789A4200D009E51E4B1B7801226E
:104C20005340DBB2002B00D101E5154B1B78002B64
:104C300000D0FCE4184B1800FEF72CFCFEF712FF26
:104C4000F5E4C04684E00008A4E200081800002053
:104C5000E004002014000020E8040020BCE200086A
:104C600000E300081CE3000838E300080C060020FD
:104C7000040500200A06002054E300081C00002060
:104C8000080600206CE3000878E300088CE30008C5
:104C900054040020090600209CE3000890B59BB056
:104CA00000AF34243B19180034231A00002106F009
:104CB0006CF82023FB18180014231A00002106F0BA
:104CC00064F83B1D18001C231A00002106F05DF853
:104CD000314B1B68314A1A402F4B802109010A438E
:104CE0001A6003F063FA2E4B1A6D2D4BC021490157
:104CF0000A431A653B1914221A603B19802252009C
:104D00009A6021007B1801229A617B180022DA61E7
:104D10007B18A02212021A627B1800225A627B18AA
:104D2000180003F0ADFA031E01D000F0BFFA2021F5
:104D30007B180F221A607B1800225A607B18002211
:104D40009A607B180022DA607B1800221A617B18B7
:104D50000021180003F0FEFD031E01D000F0A6FAAA
:104D60003B1DA1221A603B1D00229A603B1D802240
:104D700052025A603B1DC02212039A613B1D18006B
:104D800004F00CF8031E01D000F090FA04F03CF996
:104D9000C046BD461BB090BD00700040FFE7FFFF5E
:104DA0000010024080B582B000AF3B00180008231D
:104DB0001A00002105F0E9FF304B314A1A602F4BF1
:104DC0000022DA632D4BC02212065A602B4B0022C0
:104DD0009A602A4B07229A63284B01221A61274BBB
:104DE0000022DA60254B202200219954234B2122F6
:104DF00000219954214B00229A62204BC222FF329B
:104E00005A621E4B2C22002199541C4B04225A61D9
:104E10001A4B00221A63194B00229A61174B012288
:104E20005A63164B0022DA61144B180001F09CFC07
:104E3000031E01D000F03AFA3B00124A1A603B0010
:104E4000802252015A603A000C4B1100180001F008
:104E500099FE031E01D000F029FA3B000A4A1A60AD
:104E60003A00064B1100180001F08CFE031E01D021
:104E700000F01CFAC046BD4602B080BD1C020020F6
:104E800000240140040000080000024480B500AF87
:104E9000104B114A1A600F4B00225A600D4BE02252
:104EA00012019A600B4B0D4A5A610A4B00221A629A
:104EB000084B00225A62074B00229A62054B1800E9
:104EC00002F0A0FE031E01D000F0F0F9C046BD467E
:104ED00080BDC046C0020020007C0040FFFF0000F3
:104EE00080B500AF164B174A1A60154B00225A6066
:104EF000134B7F229A60124BFF22DA60104B002284
:104F00001A610F4B00225A610D4B00229A610C4B23
:104F10000022DA610A4B180004F084F8031E01D065
:104F200000F0C4F9064B04223C21180004F06AF991
:104F3000031E01D000F0BAF9C046BD4680BDC04690
:104F4000F00200200028004080B500AF184B194A3D
:104F50001A60174B822252005A60154B00229A6049
:104F6000134B0022DA60124B00221A61104B002210
:104F70005A610F4B802292009A610D4B0022DA6138
:104F80000B4B00221A620A4B00225A62084B002285
:104F90009A62074B0722DA62054B180004F022FAE6
:104FA000031E01D000F082F9C046BD4680BDC04658
:104FB000140300200030014080B500AF144B154AA7
:104FC0001A60134BE12252025A60114B00229A6080
:104FD0000F4B0022DA600E4B00221A610C4B0C22A0
:104FE0005A610B4B00229A61094B0022DA61084B8F
:104FF00000221A62064B00225A62054B180004F088
:1050000077FE031E01D000F051F9C046BD4680BDB9
:105010006C0300200038014080B500AF0D4B0E4AF4
:105020001A600C4BC02252005A600A4B7F229A60D1
:10503000084B7F22DA60074B00221A61054B1800EB
:1050400005F03DFE031E01D000F030F9C046BD461C
:1050500080BDC04638040020002C004080B582B0DE
:1050600000AF104B1A6B0F4B01210A431A630D4B13
:105070001B6B012213407B607B680022002109200A
:1050800002F05CF8092002F06EF8002200210A20EC
:1050900002F054F80A2002F066F8C046BD4602B09D
:1050A00080BDC0460010024090B58BB000AF142404
:1050B0003B19180014231A00002105F066FE764BF8
:1050C000DA6A754B04210A43DA62734BDB6A042205
:1050D00013403B613B69704BDA6A6F4B80210A4396
:1050E000DA626D4BDB6A80221340FB60FB686A4B1F
:1050F000DA6A694B01210A43DA62674BDB6A0122F3
:105100001340BB60BB68644BDA6A634B02210A43FD
:10511000DA62614BDB6A022213407B607B68A0236A
:10512000DB0500221A21180002F029FDC0239B0193
:105130005A480022190002F022FD3B1980229201F8
:105140001A603B1903225A603B1900229A603B19EE
:10515000534A1900100002F07FFB3B1903221A602A
:105160003B1903225A603B1900229A603B194D4AB1
:105170001900100002F070FB3B190222FF321A6086
:105180003B19C42292035A603B1902229A603A19D1
:10519000A023DB051100180002F05EFB3B19022280
:1051A0001A603B1901225A603B1900229A603B1990
:1051B0000022DA603A19A023DB051100180002F082
:1051C0004BFB3B1918221A603B1901225A603B190C
:1051D00000229A603B190222DA603A19A023DB050B
:1051E0001100180002F038FB3B192F4A1A603B19D6
:1051F00003225A603B1900229A603B19274A190082
:10520000100002F029FB21007B18C02292011A60D5
:105210000C003B1901225A603B1900229A603B198D
:105220000022DA603B191D4A1900100002F014FB3D
:105230003B19982212021A603B1903225A603B194B
:1052400000229A603A19A023DB051100180002F031
:1052500003FB3B19C0221A603B1900225A603B191C
:1052600001229A603B190D4A1900100002F0F4FA6D
:1052700000220121052001F061FF052001F073FFEC
:1052800000220121072001F059FF072001F06BFFE8
:10529000C046BD460BB090BD001002400004005057
:1052A00000080050001C00503FCF000080B500AF48
:1052B000034B1800FEF72CF9C046BD4680BDC04622
:1052C000A8E3000880B500AF074B5A6B064B0121DD
:1052D0000A435A63044B9A6B034B802149050A43E6
:1052E0009A63C046BD4680BD0010024090B589B0AB
:1052F00000AF78600C243B19180014231A00002119
:1053000005F043FD7B681B682A4A93424DD12A4B26
:105310005A6B294B802189000A435A63264BDA6A6B
:10532000254B01210A43DA62234BDB6A0122134039
:10533000BB60BB683B1904221A603B1903225A6008
:105340003B1900229A603A19A023DB0511001800CE
:1053500002F082FA194B1A4A1A60184B00225A605E
:10536000164B00229A60154B0022DA60134B802204
:105370001A61124B802252005A61104B8022D200D7
:105380009A610E4B0022DA610C4B00221A620B4B21
:10539000180001F005FF031E01D0FFF787FF7B68AF
:1053A000064ADA64054B7A689A62C046BD4609B07F
:1053B00090BDC04600240140001002407802002049
:1053C0000800024080B582B000AF78607B681B683F
:1053D0000A4A93420ED10A4B9A6B094B8021090667
:1053E0000A439A63002201210D2001F0A7FE0D203F
:1053F00001F0B9FEC046BD4602B080BD007C004051
:105400000010024080B582B000AF78607B681B68F6
:105410000A4A93420ED10A4B1A6D094B8021C902E8
:105420000A431A6500220021022001F087FE0220B3
:1054300001F099FEC046BD4602B080BD0028004084
:105440000010024090B589B000AF78600C243B1981
:10545000180014231A00002105F097FC7B681B68D4
:10546000184A934229D1184B5A6B174B8021490196
:105470000A435A63144BDA6A134B01210A43DA6276
:10548000114BDB6A01221340BB60BB6821007B1813
:10549000E0221A607B1802225A607B1800229A6070
:1054A0007B180322DA607B1800221A617A18A02385
:1054B000DB051100180002F0CFF9C046BD4609B067
:1054C00090BDC046003001400010024090B589B048
:1054D00000AF78600C243B19180014231A00002137
:1054E00005F053FC7B681B682D4A934253D12D4B2A
:1054F0005A6B2C4B8021C9010A435A63294BDA6A43
:10550000284B01210A43DA62264BDB6A0122134051
:10551000BB60BB683B19C022D2001A6021007B1817
:1055200002225A607B1800229A607B180322DA60FC
:105530007B1804221A617A18A023DB0511001800D9
:1055400002F08AF9184B194A1A60174B03225A6065
:10555000154B00229A60144B0022DA60124B802215
:105560001A61114B00225A610F4B00229A610E4BB7
:105570002022DA610C4B00221A620B4B180001F05A
:105580000FFE031E01D0FFF791FE7B68064A1A67E3
:10559000054B7A689A62C046BD4609B090BDC046C8
:1055A0000038014000100240F003002030000240AB
:1055B00080B582B000AF78607B681B68064A934272
:1055C00006D1064B9A6B054B802109010A439A6369
:1055D000C046BD4602B080BD002C00400010024015
:1055E00080B500AFFEE780B500AFFEE780B500AF45
:1055F000C046BD4680BD80B500AFC046BD4680BD3B
:1056000080B500AF01F086F8C046BD4680BD000001
:1056100080B500AF034B180003F0BAFEC046BD468C
:1056200080BDC046F002002080B500AF012002F02E
:10563000C3FAC046BD4680BD80B500AF80235B0085
:10564000180002F0B9FAC046BD4680BD80B500AF73
:10565000034B180001F082FEC046BD4680BDC04627
:105660007802002080B500AF034B180001F076FEF1
:10567000C046BD4680BDC046F003002080B500AFE7
:10568000034B180002F0C0FBC046BD4680BDC046BB
:10569000C002002080B582B000AF78600A00FB1C19
:1056A0001A707B68186F7B68DB6E99B2FB1C1B78E5
:1056B0001A0002F064FAC046BD4602B080BD000088
:1056C00080B582B000AF78607B6801211800FFF7D9
:1056D000E1FF7B68986E7B685B6E9BB200221900CD
:1056E00002F04DFAFA239B00180000F0C1FC7B6821
:1056F000986E7B685B6E9BB20122190002F03FFA44
:10570000034B180000F0B4FCC046BD4602B080BD9B
:105710007017000080B582B000AF78600A00FB1CF3
:105720001A707B6800211800FFF7B4FF7B68586F80
:10573000FA239B00F91C012203F0E8FEC0467B68B7
:105740005B6F180004F0F3F90300012BF7D1C0469A
:10575000C046BD4602B080BDB0B586B002AF78602D
:105760000F257B1900221A700E243B1900221A7093
:105770007B6800211800FFF78DFF7B68586F3A198E
:105780007919FA239B000093012304F015F83B19C3
:105790001B781800BD4604B0B0BDB0B584B000AFF2
:1057A00078600A00FB1C1A70FB1C1A787B681100D9
:1057B0001800FFF7AFFF0F257C197B681800FFF773
:1057C000CBFF030023707B6801211800FFF762FF05
:1057D0007B191B781800BD4604B0B0BD80B582B0FF
:1057E00000AF786008001100FB1C021C1A70BB1C83
:1057F0000A1C1A707B6800211800FFF74BFFFB1C86
:105800001B78802252421343DAB27B6811001800E1
:10581000FFF780FFBB1C1A787B6811001800FFF7A8
:1058200079FF7B6801211800FFF734FFC046BD46B1
:1058300002B080BDB0B586B000AFF86008007A60F5
:1058400019000B243B19021C1A700A203B180A1C71
:105850001A703B181B78012B2ED9FB680021180009
:10586000FFF718FF3B191A78FB6811001800FFF7C3
:1058700051FF1723FB1800221A700FE017257B1920
:105880001B787A68D418FB681800FFF765FF0300DF
:1058900023707B191A787B1901321A701723FA18B2
:1058A0000A23FB1812781B789A42E7D3FB68012180
:1058B0001800FFF7EFFE00E0C046BD4606B0B0BDE1
:1058C00090B587B000AFF86008007A6019000B242B
:1058D0003B19021C1A700A203B180A1C1A703B184C
:1058E0001B78012B32D9FB6800211800FFF7D2FE8C
:1058F0003B191B78802252421343DAB2FB68110035
:105900001800FFF707FF1723FB1800221A700FE09B
:1059100017243B191B787A68D3181A78FB68110092
:105920001800FFF7F7FE3B191A783B1901321A707D
:105930001723FA180A23FB1812781B789A42E7D328
:10594000FB6801211800FFF7A5FE00E0C046BD4638
:1059500007B090BD80B582B000AF78607B6818005A
:1059600000F04CF97B681B681B0CDAB27B680621DF
:105970001800FFF733FF7B681B681B0ADAB27B68ED
:1059800007211800FFF72AFF7B681B68DAB27B68E3
:1059900008211800FFF722FF7B681B79053BDBB26B
:1059A0005BB21022524213435BB2DAB27B68092128
:1059B0001800FFF713FF7B6832220B211800FFF756
:1059C0000DFF7B6823220C211800FFF707FF7B687F
:1059D0009B791B01DAB27B68DB79DB18DBB2D31869
:1059E000DAB27B689B7A01210B40DBB2D318DAB2C2
:1059F0007B681D211800FFF7F1FE7B685B791B01B6
:105A0000DAB27B685B7A9B00DBB2D318DBB203337C
:105A1000DAB27B681E211800FFF7E0FE7B68FF22E8
:105A20001F211800FFF7DAFE7B689B891B0A9BB2D7
:105A3000DAB27B6820211800FFF7D0FE7B689B89D3
:105A4000DAB27B6821211800FFF7C8FE7B681A7A5A
:105A50007B6822211800FFF7C1FE7B689A7B7B6878
:105A600039211800FFF7BAFE7B685D2200219954A6
:105A70007B6842211800FFF790FE030019007B6845
:105A8000782299547B689B79092B30D17B687822E6
:105A90009B5C122B2BD17B681B68194A934210D94F
:105AA0007B681B68174A93420BD87B680222362119
:105AB0001800FFF793FE7B6864223A211800FFF775
:105AC0008DFE7B681B68104A934210D97B681B6867
:105AD0000E4A93420BD87B68032236211800FFF749
